:100000000C945A000C9475000C9475000C947500B7
:100010000C9475000C9475000C9475000C9475008C
:100020000C9475000C9475000C9475000C9475007C
:100030000C9475000C9475000C9475000C9475006C
:100040000C94B4010C9475000C9475000C9475001C
:100050000C9475000C9475000C9475000C9475004C
:100060000C9475000C94750000000007000201005C
:100070000003040600000000000000000102040864
:100080001020408001020408102001020408102002
:10009000040404040404040402020202020203032E
:1000A000030303030000232629000025282B00005A
:1000B00024272A0011241FBECFEFD4E0DEBFCDBF1E
:1000C00011E0A0E0B1E0E2EAF6E002C005900D9296
:1000D000AA30B107D9F711E0AAE0B1E001C01D9242
:1000E000AF34B107E1F70C94A9010C94000061E072
:1000F000809102010E94620261E0809100010E94F1
:1001000062020E94D90160930A0170930B018093EF
:100110000C0190930D010895CF93DF93C0910F01CF
:10012000D0911001209709F044C0E1E1F1E0119273
:10013000119281E0E334F807E1F1F9CF82819381F4
:1001400081939193AA2797FDA095BA2F280F391F65
:100150004A1F5B1F81E0E134F80781F78091470176
:10016000909148019093420180934101AA2797FD05
:10017000A095BA2F280F391F4A1F5B1FCA01B9016A
:1001800029E130E040E050E00E9436033093460120
:1001900020934501CE0101969093100180930F01A9
:1001A000499774F088E190E09093100180930F01DB
:1001B00007C020E030E040E050E0E1E1F1E0BECFF8
:1001C000DF91CF9108950E94D901109248011092B9
:1001D000470110924A011092490161E080910801A3
:1001E0000E94620260E0809108010E94C90282E0E0
:1001F00090E00E94130261E0809108010E94C90210
:1002000085E090E00E94130260E0809108010E9466
:10021000C90260E0809108010E9462028091080199
:100220000E94800290934A01809349018091490184
:1002300090914A01892B91F311C0809108010E948D
:10024000800290934A0180934901809147019091E7
:10025000480101969093480180934701809149019C
:1002600090914A01019749F30E948C0080910F01FF
:10027000909110014897F4F08091450190914601CA
:1002800027E0883092074CF461E0809102010E94DF
:10029000C90260E0809100010BC0815D974054F07D
:1002A00061E0809100010E94C90260E0809102013A
:1002B0000E94C90264E670E080E090E00E94F101D3
:1002C0000895EF92FF920F931F930E94D9017B0133
:1002D0008C0180910A0190910B01A0910C01B091C9
:1002E0000D01A8019701281B390B4A0B5B0BDA01A2
:1002F000C90181599140A040B04030F180910E0178
:10030000882369F061E0809102010E94C90260E0E7
:10031000809100010E94C90210920E010DC060E0A0
:10032000809102010E94C90261E0809100010E9457
:10033000C90281E080930E01E0920A01F0920B0164
:1003400000930C0110930D011F910F91FF90EF90FE
:100350000895CFEFD4E0DEBFCDBF0E9420020E94FF
:1003600077000E94E300FDCF1F920F920FB60F920D
:1003700011248F939F93AF93BF9380914B019091E2
:100380004C01A0914D01B0914E010196A11DB11DEE
:1003900080934B0190934C01A0934D01B0934E017B
:1003A000BF91AF919F918F910F900FBE0F901F90B3
:1003B000189560914B0170914C0180914D01909185
:1003C0004E0127E0660F771F881F991F2A95D1F7E6
:1003D0002DE730E040E050E00E941403CA01B9016B
:1003E0000895AF92BF92CF92DF92EF92FF920F9358
:1003F0001F935B016C010E94D9017B018C010E945B
:10040000D9016E197F09800B910B6A157B058C054C
:100410009D05A8F31F910F91FF90EF90DF90CF9073
:10042000BF90AF900895019751F0880F991F880FE2
:10043000991F02972FB7F8940197F1F72FBF0895EE
:10044000789410924B0110924C0110924D01109231
:100450004E0184B5826084BD84B5816084BD85B55C
:10046000826085BD85B5816085BDEEE6F0E0808166
:1004700081608083E1E8F0E0808182608083808118
:1004800081608083E0E8F0E0808181608083E1EB3F
:10049000F0E0808184608083E0EBF0E08081816027
:1004A0008083EAE7F0E080818460808380818260DD
:1004B00080838081816080838081806880831092C6
:1004C000C1000895282F3327C90184589F4FFC018C
:1004D000949120573F4FF9018491882381F0E82FB0
:1004E000FF27E255FF4FE491FF27662329F480811F
:1004F00090958923808308958081892B8083089536
:10050000482F5527CA0188599F4FFC012491CA01E1
:1005100084589F4FFC01949140575F4FFA013491EA
:100520003323A1F1222331F1233021F48091800083
:100530008F7705C0243031F4809180008F7D8093C7
:10054000800018C0213019F484B58F7704C02230A0
:1005500021F484B58F7D84BD0DC0263021F48091B7
:10056000B0008F7705C0273029F48091B0008F7DCF
:100570008093B000E32FFF27EC55FF4FE491FF2756
:100580008081892319F081E090E0089580E090E077
:100590000895482F5527CA0188599F4FFC0124917F
:1005A000CA0184589F4FFC01949140575F4FFA0154
:1005B00034913323C1F1222331F1233021F480918E
:1005C00080008F7705C0243031F4809180008F7DCA
:1005D0008093800018C0213019F484B58F7704C04F
:1005E000223021F484B58F7D84BD0DC0263021F4E6
:1005F0008091B0008F7705C0273029F48091B0003A
:100600008F7D8093B000E32FFF27E755FF4FE491E4
:10061000FF27662329F4808190958923808308959C
:100620008081892B80830895A1E21A2EAA1BBB1B0F
:10063000FD010DC0AA1FBB1FEE1FFF1FA217B307AE
:10064000E407F50720F0A21BB30BE40BF50B661FC4
:10065000771F881F991F1A9469F760957095809588
:1006600090959B01AC01BD01CF01089597FB092E28
:1006700005260ED057FD04D0D7DF0AD0001C38F471
:1006800050954095309521953F4F4F4F5F4F0895BE
:10069000F6F790958095709561957F4F8F4F9F4F9E
:0206A0000895BB
:0A06A20007000C000D0064000B00BF
:00000001FF
