:100000000C9435000C945B000C945B000C945B002A
:100010000C945B000C945B000C945B000C945B00F4
:100020000C945B000C945B000C945B000C945B00E4
:100030000C945B000C945B000C945B000C945B00D4
:100040000C944F030C945B000C945B000C945B00CD
:100050000C945B000C945B000C945B000C945B00B4
:100060000C945B000C945B00480311241FBECFEF7F
:10007000D4E0DEBFCDBF11E0A0E0B1E0E2E6FCE0FD
:1000800002C005900D92AE30B107D9F711E0AEE095
:10009000B1E001C01D92A632B107E1F710E0CAE657
:1000A000D0E004C02297FE010E940E06C836D10798
:1000B000C9F70C9427030C9400000F931F938C0135
:1000C00064E070E089E190E00E94FD03F801918313
:1000D00080831F910F9108950F931F938C0164E00B
:1000E00070E089E190E00E94FD03F8019183808334
:1000F0001F910F9108956EBD0DB407FEFDCF0895B9
:1001000081E797E100000197E9F70895FC0101906C
:10011000F081E02D84E611928A95E9F70895FC01BB
:1001200055278081918177272223D9F0FA01EE0F9C
:10013000FF1FEE0FFF1FE80FF91F21E030E040E046
:1001400050E004C0220F331F441F551F6A95D2F799
:1001500080819181A281B381822B932BA42BB52B1B
:100160001EC0FA01EE0FFF1FEE0FFF1FE80FF91F71
:1001700021E030E040E050E004C0220F331F441F74
:10018000551F6A95D2F720953095409550958081FE
:100190009181A281B38182239323A423B5238083F9
:1001A0009183A283B3830895DC01E62FFF27EE0F2E
:1001B000FF1FEE0FFF1F8D919C91E80FF91F208309
:1001C0003183428353830895FC017727660F771F9D
:1001D000660F771F0190F081E02DE60FF71F8081F9
:1001E0009181A281B381822B932BA42BB52B808389
:1001F0009183A283B3830895FC015527440F551FB3
:10020000440F551F0190F081E02DE40FF51F21E010
:1002100030E040E050E004C0220F331F441F551F60
:100220006A95D2F780819181A281B381822B932B31
:10023000A42BB52B80839183A283B3830895DC0123
:10024000E42FFF27EE0FFF1FEE0FFF1F8D919C91F4
:10025000E80FF91F80819181A281B38104C0B69516
:10026000A795979587956A95D2F7817099270895F4
:10027000FC015527440F551F440F551F0190F08175
:10028000E02DE40FF51F21E030E040E050E004C035
:10029000220F331F441F551F6A95D2F720953095C2
:1002A0004095509580819181A281B38182239323CF
:1002B000A423B52380839183A283B3830895AF924F
:1002C000BF92CF92DF92EF92FF920F931F93CF9343
:1002D000DF935C01362F542F69311CF029310CF06B
:1002E0007BC059311CF009310CF076C0E22FFF279A
:1002F000E7FDF095832F992787FD9095E81BF90B73
:10030000F7FF03C0F095E195FF4FDE2EE02FFF27AA
:10031000E7FDF095852F992787FD9095E81BF90B50
:10032000F7FF03C0F095E195FF4FEE2EED155CF55C
:1003300032171CF4232F452F02C0402F052F4017E2
:100340001CF461E0C62E02C05FEFC52E142F022FF1
:10035000FF24C0E0D0E014C0FE0CDF1414F4FD183C
:100360001C0D193148F407FD07C009312CF4412F49
:10037000602FC5010E94FC000F5F2196093164F5D2
:10038000DC1654F729C050171CF4632F052F02C048
:10039000622F232F62171CF431E0C32E02C02FEF0F
:1003A000C22E162FFF24C0E0D0E014C0FD0CEF14C5
:1003B00014F4FE181C0D093148F417FD07C019315B
:1003C0002CF4402F612FC5010E94FC000F5F219685
:1003D000093114F4EC1654F7DF91CF911F910F916E
:1003E000FF90EF90DF90CF90BF90AF900895FC0109
:1003F000628343830895DF92EF92FF920F931F93DE
:100400007C01162FD42E042F262FFC0143816281FC
:100410000E945F01F7011283D3821F910F91FF9019
:10042000EF90DF9008951BB88FEF8AB984B18E6288
:1004300084B980E58CBD1EBC0DB407FEFDCF1EBC8B
:100440000DB407FEFDCF1EBC0DB407FEFDCF1EBCD4
:100450000DB407FEFDCF299A299808950F931F9395
:10046000CF93DF938C01EB0140E050E030EA3CC0D9
:100470004F5F5F4FF8016081718102C0882319F4DA
:1004800020E03BB909C0803110F48BB904C02E5074
:100490002295207F2BB9282F82E390E0000001975E
:1004A000E9F7E22FFF27EE0FFF1FEE0FFF1FE60F0A
:1004B000F71F80819181A281B381BEBD0DB407FE7B
:1004C000FDCFAEBD0DB407FEFDCF9EBD0DB407FE42
:1004D000FDCF1BB88EBD0DB407FEFDCF299A29981C
:1004E000822F8F5F893150F24C175D0709F0C0CF22
:1004F000DF91CF911F910F910895FF920F931F935A
:10050000CF93DF938C01EB0140E050E080EAF82EBE
:1005100036C04F5F5F4FF8016081718130E002C0EB
:10052000332311F4FBB808C0303110F43BB904C0D8
:100530002E502295207F2BB9232FE32FFF27EE0F7C
:10054000FF1FEE0FFF1FE60FF71F80819181A28131
:10055000B381BEBD0DB407FEFDCFAEBD0DB407FE29
:10056000FDCF9EBD0DB407FEFDCF1BB88EBD0DB4F3
:1005700007FEFDCF299A29983F5F393188F24C1741
:100580005D0739F6DF91CF911F910F91FF9008958C
:100590008AE191E00E94130208958F929F92AF9298
:1005A000BF92CF92DF92EF92FF920F931F93CF9360
:1005B000DF9388249924C0E0D0E00E94D2057B011B
:1005C0008C010E94D2055B016C019B01AC016C2F78
:1005D0008AE191E00E94D400EA20FB200C211D2139
:1005E000A80197016C2F86E191E00E94D40021962A
:1005F000C931D10511F7C0E0D0E00DC062E070E074
:100600008AE191E00E942E0261E070E086E191E0D3
:100610000E942E0221960E946605807290700A96B2
:10062000C817D90758F30894811C911C84E68816D2
:10063000910409F6DF91CF911F910F91FF90EF90F8
:10064000DF90CF90BF90AF909F908F900895CFEFA5
:10065000D4E0DEBFCDBF0E94BB030E94C8020E944F
:10066000CD02FDCF6F5F7F4F91F4019781F48AE156
:1006700091E00E946C0086E191E00E946C0082E1B2
:1006800091E00E946C008EE091E00E946C00089561
:100690006FEF7FEF81E090E00E94320308951F9298
:1006A0000F920FB60F9211248F939F93AF93BF9326
:1006B00080911E0190911F01A0912001B091210114
:1006C0000196A11DB11D80931E0190931F01A0935F
:1006D0002001B0932101BF91AF919F918F910F9015
:1006E0000FBE0F901F90189560911E0170911F0111
:1006F000809120019091210127E0660F771F881FCC
:10070000991F2A95D1F72DE730E040E050E00E9494
:10071000EA05CA01B9010895AF92BF92CF92DF9264
:10072000EF92FF920F931F935B016C010E94740381
:100730007B018C010E9474036E197F09800B910B61
:100740006A157B058C059D05A8F31F910F91FF90FD
:10075000EF90DF90CF90BF90AF900895019751F048
:10076000880F991F880F991F02972FB7F894019748
:10077000F1F72FBF0895789410921E0110921F0177
:10078000109220011092210184B5826084BD84B54D
:10079000816084BD85B5826085BD85B5816085BD7C
:1007A000EEE6F0E0808181608083E1E8F0E0808126
:1007B00082608083808181608083E0E8F0E08081D6
:1007C00081608083E1EBF0E0808184608083E0EBF6
:1007D000F0E0808181608083EAE7F0E080818460DE
:1007E000808380818260808380818160808380813A
:1007F000806880831092C10008950F931F93CF9358
:10080000DF93869F8001879F100D969F100D112406
:10081000C8010E941904EC01009729F0A80160E0CA
:1008200070E00E94E005CE01DF91CF911F910F9102
:100830000895CF93DF93AC01029710F442E050E0AB
:10084000A0912401B0912501FD0120E030E0C0E03D
:10085000D0E020C0808191818417950769F482815E
:100860009381209719F09B838A8304C0909325017C
:1008700080932401CF0132C04817590738F421155D
:10088000310519F08217930708F49C01EF010280EB
:10089000F381E02D3097F1F62115310589F1C90179
:1008A000841B950B049708F4A901E0E0F0E026C052
:1008B0008D919C91119782179307E9F44817590776
:1008C00079F4ED018A819B81309719F093838283BB
:1008D00004C09093250180932401CD01029649C064
:1008E000841B950BFD01E80FF91F4193519302976B
:1008F0008D939C933AC0FD01A281B3811097C1F6FC
:100900008091220190912301892B41F48091020171
:100910009091030190932301809322012091000183
:10092000309101012115310541F42DB73EB7809179
:10093000040190910501281B390BE0912201F091EF
:1009400023012E1B3F0B2417350788F0CA0102969E
:100950002817390760F0CF01840F951F02969093F6
:1009600023018093220141935193CF0102C080E083
:1009700090E0DF91CF910895CF93DF93009709F432
:100980004EC0EC0122971B821A82A0912401B091E3
:100990002501109711F140E050E001C0DC01AC17D7
:1009A000BD0700F1BB83AA83FE0121913191E20FC3
:1009B000F31FEA17FB0771F48D919C911197280F93
:1009C000391F2E5F3F4F39832883FD018281938138
:1009D0009B838A834115510559F4D0932501C09317
:1009E00024011DC0FD0182819381AD010097B1F604
:1009F000FA01D383C28321913191E20FF31FEC17E7
:100A0000FD0769F488819981280F391F2E5F3F4FB8
:100A1000FA01318320838A819B8193838283DF91D2
:100A2000CF910895AF92BF92CF92DF92EF92FF9253
:100A30000F931F93CF93DF93EC01E880F9800A8135
:100A40001B81C801B7012DE133EF41E050E00E9466
:100A5000EA0527EA31E440E050E00E9412065B011B
:100A60006C01C801B7012DE133EF41E050E00E9475
:100A7000EA05CA01B90124E13BE040E050E00E94F0
:100A80001206A61AB70AC80AD90A1A141B041C04AB
:100A90001D0444F08FEF9FEFAFEFBFE7A80EB91E24
:100AA000CA1EDB1EA882B982CA82DB82C5019F777B
:100AB000DF91CF911F910F91FF90EF90DF90CF903A
:100AC000BF90AF9008950E941205089586E091E0CE
:100AD0000E9412050895AA27BB27809306019093D0
:100AE0000701A0930801B09309010895AF92BF9246
:100AF000CF92DF92EF92FF920F931F93CF93DF93EA
:100B0000EC01E880F9800A811B81C801B7012DE161
:100B100033EF41E050E00E94EA0527EA31E440E08B
:100B200050E00E9412065B016C01C801B7012DE183
:100B300033EF41E050E00E94EA05CA01B90124E127
:100B40003BE040E050E00E941206A61AB70AC80A2D
:100B5000D90A1A141B041C041D0444F08FEF9FEFE4
:100B6000AFEFBFE7A80EB91ECA1EDB1EA882B9826E
:100B7000CA82DB828FEF9FEFAFEFBFE7A822B922D7
:100B8000CA22DB22C601B501DF91CF911F910F91DF
:100B9000FF90EF90DF90CF90BF90AF9008950E94AC
:100BA000760508958AE091E00E94760508956093A5
:100BB0000A0170930B0180930C0190930D0108952D
:100BC000DC0140FF03C001C06D936D934250504063
:100BD000D8F70895A1E21A2EAA1BBB1BFD010DC078
:100BE000AA1FBB1FEE1FFF1FA217B307E407F507DD
:100BF00020F0A21BB30BE40BF50B661F771F881FB9
:100C0000991F1A9469F760957095809590959B014E
:100C1000AC01BD01CF010895EE0FFF1F0590F491C7
:100C2000E02D0994629FD001739FF001829FE00D37
:100C3000F11D649FE00DF11D929FF00D839FF00D5B
:100C4000749FF00D659FF00D9927729FB00DE11D07
:100C5000F91F639FB00DE11DF91FBD01CF011124E4
:020C60000895F5
:0E0C620000002601200001000000010000003B
:00000001FF
