:100000000C945B000C9481000C9481000C94810092
:100010000C9481000C9481000C9481000C9481005C
:100020000C9481000C9481000C9481000C9481004C
:100030000C9481000C9481000C9481000C9481003C
:100040000C941F020C9481000C946E040C9481009B
:100050000C9481000C9481000C9481000C9481001C
:100060000C9481000C9481001E0200000007000225
:10007000010000030406000000000000000001026F
:100080000408102040800102040810200102040826
:100090001020040404040404040402020202020204
:1000A0000303030303030000232629000025282B54
:1000B000000024272A0011241FBECFEFD4E0DEBFAA
:1000C000CDBF11E0A0E0B1E0E4EDFBE002C005909F
:1000D0000D92A031B107D9F711E0A0E1B1E001C064
:1000E0001D92A43AB107E1F710E0CAE6D0E004C0DF
:1000F0002297FE010E94E605C836D107C9F70C9485
:1001000043010C94000040E05BE460E070E08BE1B0
:1001100091E00E94500161E080910C010E94420335
:1001200060E080910A010E94420361E08091080131
:100130000E9442030E9444026093150170931601CD
:100140008093170190931801109214010E944402A9
:100150006093100170931101809312019093130129
:1001600060E0809108010E94A9030895EF92FF9238
:100170000F931F930E9444027B018C018091150113
:1001800090911601A0911701B0911801A801970153
:10019000281B390B4A0B5B0B8091040190910501E0
:1001A000A0910601B091070182179307A407B50734
:1001B000F4F480911401882341F060E080910801FB
:1001C0000E94A9031092140108C061E08091080107
:1001D0000E94A90381E0809314010E94440260936D
:1001E0001501709316018093170190931801809167
:1001F0000A010E94D00290931A0180931901BC0158
:100200008BE191E00E9412028091190190911A01F4
:100210000B9784F461E080910C010E94A9030E9475
:100220004402609310017093110180931201909326
:1002300013011EC08091100190911101A091120133
:10024000B0911301E81AF90A0A0B1B0B8091000107
:1002500090910101A0910201B09103018E159F05BB
:10026000A007B1072CF460E080910C010E94A90363
:1002700068EC70E080E090E00E945C021F910F91BA
:10028000FF90EF900895CFEFD4E0DEBFCDBF0E9486
:100290008B020E9483000E94B600FDCF089508954E
:1002A000CB01BA010E94F40308950E9435049927F6
:1002B00008950E94460408950E9465040895862FBB
:1002C0000E94AC040895CB010E94B3040895862FC8
:1002D0000E94AC0408950F931F938C016DE00E945F
:1002E0005F016AE0C8010E945F011F910F910895AC
:1002F0000F931F938C010E945F01C8010E946B0144
:100300001F910F9108950F931F938C010E94630119
:10031000C8010E946B011F910F9108950F931F93C5
:100320008C010E946701C8010E946B011F910F910F
:100330000895CB01BA013327442755270E94C004F2
:1003400008952AE00E94990108950F931F938C014C
:100350000E94A101C8010E946B011F910F91089595
:10036000AB01662777270E94A10108950F931F9381
:100370008C010E94B001C8010E946B011F910F9176
:100380000895EF92FF920F931F93CF93DF93EC01A9
:100390007A018B0177FF0BC06DE20E945F0110951F
:1003A0000095F094E094E11CF11C011D111D2AE060
:1003B000B801A701CE010E949901DF91CF911F9151
:1003C0000F91FF90EF9008950F931F938C010E945F
:1003D000C101C8010E946B011F910F910895211561
:1003E000310521F4642F0E945F0108952A30310500
:1003F00019F40E94C10108950E94990108950F9374
:100400001F938C010E94EF01C8010E946B011F9194
:100410000F910895AB01662757FD6095762F0E94D6
:10042000C10108950F931F938C010E940A02C80115
:100430000E946B011F910F910895089508951F92D6
:100440000F920FB60F9211248F939F93AF93BF9388
:100450008091200190912101A0912201B09123016E
:100460000196A11DB11D8093200190932101A093BD
:100470002201B0932301BF91AF919F918F910F9073
:100480000FBE0F901F90189560912001709121016F
:10049000809122019091230127E0660F771F881F2A
:1004A000991F2A95D1F72DE730E040E050E00E94F7
:1004B0009305CA01B9010895AF92BF92CF92DF921E
:1004C000EF92FF920F931F935B016C010E94440215
:1004D0007B018C010E9444026E197F09800B910BF5
:1004E0006A157B058C059D05A8F31F910F91FF9060
:1004F000EF90DF90CF90BF90AF900895019751F0AB
:10050000880F991F880F991F02972FB7F8940197AA
:10051000F1F72FBF089578941092200110922101D5
:10052000109222011092230184B5826084BD84B5AB
:10053000816084BD85B5826085BD85B5816085BDDE
:10054000EEE6F0E0808181608083E1E8F0E0808188
:1005500082608083808181608083E0E8F0E0808138
:1005600081608083E1EBF0E0808184608083E0EB58
:10057000F0E0808181608083EAE7F0E08081846040
:10058000808380818260808380818160808380819C
:10059000806880831092C100089580930E010895B1
:1005A00090910E019295990F990F907C8F70982BD6
:1005B00090937C0080917A00806480937A0080918F
:1005C0007A0086FDFCCF20917800809179009927F0
:1005D000982F88273327822B932B08951F93CF932F
:1005E000DF93182FEB0161E00E944203E12FFF2708
:1005F000E659FF4F8491833051F4809180008068E8
:1006000080938000D0938900C093880037C08430E5
:1006100051F480918000806280938000D0938B00A1
:10062000C0938A002BC0813029F484B5806884BDD2
:10063000C7BD24C0823029F484B5806284BDC8BDA2
:100640001DC0863041F48091B00080688093B00076
:10065000C093B30013C0873041F48091B000806232
:100660008093B000C093B40009C0C038D10514F421
:1006700060E001C061E0812F0E94A903DF91CF916A
:100680001F910895282F3327C90182589F4FFC01DD
:1006900094912E563F4FF9018491882381F0E82FE1
:1006A000FF27E055FF4FE491FF27662329F480815F
:1006B00090958923808308958081892B8083089574
:1006C000482F5527CA0186599F4FFC012491CA0122
:1006D00082589F4FFC0194914E565F4FFA0134911E
:1006E0003323A1F1222331F1233021F480918000C2
:1006F0008F7705C0243031F4809180008F7D809306
:10070000800018C0213019F484B58F7704C02230DE
:1007100021F484B58F7D84BD0DC0263021F48091F5
:10072000B0008F7705C0273029F48091B0008F7D0D
:100730008093B000E32FFF27EA55FF4FE491FF2796
:100740008081892319F081E090E0089580E090E0B5
:100750000895482F5527CA0186599F4FFC012491BF
:10076000CA0182589F4FFC0194914E565F4FFA0187
:1007700034913323C1F1222331F1233021F48091CC
:1007800080008F7705C0243031F4809180008F7D08
:100790008093800018C0213019F484B58F7704C08D
:1007A000223021F484B58F7D84BD0DC0263021F424
:1007B0008091B0008F7705C0273029F48091B00078
:1007C0008F7D8093B000E32FFF27E555FF4FE49125
:1007D000FF27662329F480819095892380830895DB
:1007E0008081892B80830895EF92FF920F931F934E
:1007F0007B018C0122E030E040E050E00E94B50532
:10080000205C3D4B404F5F4FCA01B901A8019701E1
:100810000E94B5052150304040405040BB2757FD55
:10082000BA95A52F942F832F2F5F3F4F4F4F5F4FC8
:100830008093C50021502093C400E1ECF0E080815A
:1008400080618083808188608083808180688083EC
:100850001F910F91FF90EF900895982F8091C00005
:1008600085FFFCCF9093C600089580911E01909162
:100870001F0120911C0130911D01821B930B805898
:100880009F4F60E870E00E948005089540911C0130
:1008900050911D0180911E0190911F0184179507B1
:1008A00019F48FEF9FEF0895FA01EC5DFE4F208160
:1008B000CA01019660E870E00E94800590931D01D6
:1008C00080931C01822F9927089580911C0190919B
:1008D0001D0190931F0180931E0108951F920F9296
:1008E0000FB60F9211242F933F934F935F936F9303
:1008F0007F938F939F93AF93BF93EF93FF93409119
:10090000C600E0911E01F0911F01CF01019660E841
:1009100070E00E9480059C0180911C0190911D0156
:100920002817390739F0EC5DFE4F408330931F01E3
:1009300020931E01FF91EF91BF91AF919F918F91F5
:100940007F916F915F914F913F912F910F900FBECB
:100950000F901F90189508950E942D0408958AE025
:100960000E94AC040895CF93DF93EC0103C021965D
:100970000E94AC0488818823D1F7DF91CF9108953C
:100980002F923F924F925F926F927F928F929F929F
:10099000AF92BF92CF92DF92EF92FF920F931F938D
:1009A000CF93DF93CDB7DEB7A0970FB6F894DEBF35
:1009B0000FBECDBF6B017C0119012A0161157105C4
:1009C0008105910521F480E30E94AC044BC06624AC
:1009D000772443015E010894A11CB11C8501060D1A
:1009E000171DC701B601A20191010E949305F801EC
:1009F00060830894611C711C811C911CC701B601A5
:100A0000A20191010E94930569017A012115310526
:100A10004105510519F773010894E108F108EA0C42
:100A2000FB1CAA24BB24650111C0F70180818A3018
:100A300010F4805D01C0895C0E94AC040894A10898
:100A4000B108C108D1080894E108F108882799275E
:100A5000DC0186199709A809B909A816B906CA06BA
:100A6000DB0619F7A0960FB6F894DEBF0FBECDBF18
:100A7000DF91CF911F910F91FF90EF90DF90CF907A
:100A8000BF90AF909F908F907F906F905F904F90AE
:100A90003F902F900895EF92FF920F931F937B0149
:100AA0008C0197FF0BC08DE20E94AC04109500955D
:100AB000F094E094E11CF11C011D111D2AE030E0CE
:100AC00040E050E0C801B7010E94C0041F910F919F
:100AD000FF90EF90089520E130E040E050E00E9468
:100AE000C004089528E030E040E050E00E94C004D7
:100AF000089522E030E040E050E00E94C0040895F4
:100B000097FB092E07260AD077FD04D049D006D0DE
:100B100000201AF4709561957F4F0895F6F790952F
:100B200081959F4F0895A1E21A2EAA1BBB1BFD01C0
:100B30000DC0AA1FBB1FEE1FFF1FA217B307E407BC
:100B4000F50720F0A21BB30BE40BF50B661F771F14
:100B5000881F991F1A9469F76095709580959095F4
:100B60009B01AC01BD01CF01089597FB092E05261D
:100B70000ED057FD04D0D7DF0AD0001C38F45095B2
:100B80004095309521953F4F4F4F5F4F0895F6F7B1
:100B900090958095709561957F4F8F4F9F4F0895E9
:100BA000AA1BBB1B51E107C0AA1FBB1FA617B70793
:100BB00010F0A61BB70B881F991F5A95A9F78095AF
:100BC0009095BC01CD010895EE0FFF1F0590F491A3
:040BD000E02D099477
:100BD400E8030000FA0000000D0005000800010011
:00000001FF
