:100000000C945B000C9481000C9481000C94810092
:100010000C9481000C9481000C9481000C9481005C
:100020000C9481000C9481000C9481000C9481004C
:100030000C9481000C9481000C9481000C9481003C
:100040000C94C80C0C9481000C9481000C948100D9
:100050000C9481000C9481000C9481000C9481001C
:100060000C9481000C948100C10C00000007000278
:10007000010000030406000000000000000001026F
:100080000408102040800102040810200102040826
:100090001020040404040404040402020202020204
:1000A0000303030303030000232629000025282B54
:1000B000000024272A0011241FBECFEFD4E0DEBFAA
:1000C000CDBF11E0A0E0B1E0E2EAF1E202C00590AC
:1000D0000D92A832B107D9F713E0A8E2B1E001C050
:1000E0001D92A53EB107E1F710E0CAE6D0E004C0DA
:1000F0002297FE010E94AE10C836D107C9F70C94B2
:10010000A80C0C9400000F931F938C0164E070E026
:1001100089E190E00E949D0EF801918380831F91F8
:100120000F9108950F931F938C0164E070E089E1B3
:1001300090E00E949D0EF801918380831F910F91A2
:1001400008956EBD0DB407FEFDCF089581E797E1D8
:1001500000000197E9F70895FC010190F081E02D7E
:1001600084E611928A95E9F70895FC01552780816C
:10017000918177272223D9F0FA01EE0FFF1FEE0FAE
:10018000FF1FE80FF91F21E030E040E050E004C01D
:10019000220F331F441F551F6A95D2F7808191812A
:1001A000A281B381822B932BA42BB52B1EC0FA0105
:1001B000EE0FFF1FEE0FFF1FE80FF91F21E030E0E9
:1001C00040E050E004C0220F331F441F551F6A95C2
:1001D000D2F7209530954095509580819181A281EC
:1001E000B38182239323A423B52380839183A283A5
:1001F000B3830895DC01E62FFF27EE0FFF1FEE0FFC
:10020000FF1F8D919C91E80FF91F2083318342835A
:1002100053830895FC017727660F771F660F771FBA
:100220000190F081E02DE60FF71F80819181A2817E
:10023000B381822B932BA42BB52B80839183A28334
:10024000B3830895FC015527440F551F440F551FD4
:100250000190F081E02DE40FF51F21E030E040E057
:1002600050E004C0220F331F441F551F6A95D2F778
:1002700080819181A281B381822B932BA42BB52BFA
:1002800080839183A283B3830895DC01E42FFF2749
:10029000EE0FFF1FEE0FFF1F8D919C91E80FF91FCE
:1002A00080819181A281B38104C0B695A79597956D
:1002B00087956A95D2F7817099270895FC01552793
:1002C000440F551F440F551F0190F081E02DE40F9E
:1002D000F51F21E030E040E050E004C0220F331F62
:1002E000441F551F6A95D2F720953095409550953B
:1002F00080819181A281B38182239323A423B5239A
:1003000080839183A283B3830895AF92BF92CF92EB
:10031000DF92EF92FF920F931F93CF93DF935C01D5
:10032000362F542F69311CF029310CF07BC0593124
:100330001CF009310CF076C0E22FFF27E7FDF095A5
:10034000832F992787FD9095E81BF90BF7FF03C0D2
:10035000F095E195FF4FDE2EE02FFF27E7FDF095AA
:10036000852F992787FD9095E81BF90BF7FF03C0B0
:10037000F095E195FF4FEE2EED155CF532171CF46C
:10038000232F452F02C0402F052F40171CF461E09A
:10039000C62E02C05FEFC52E142F022FFF24C0E02F
:1003A000D0E014C0FE0CDF1414F4FD181C0D19313C
:1003B00048F407FD07C009312CF4412F602FC50117
:1003C0000E9422010F5F2196093164F5DC1654F773
:1003D00029C050171CF4632F052F02C0622F232F52
:1003E00062171CF431E0C32E02C02FEFC22E162F6D
:1003F000FF24C0E0D0E014C0FD0CEF1414F4FE188C
:100400001C0D093148F417FD07C019312CF4402F99
:10041000612FC5010E9422010F5F2196093114F45A
:10042000EC1654F7DF91CF911F910F91FF90EF9051
:10043000DF90CF90BF90AF900895FC01628343831B
:100440000895DF92EF92FF920F931F937C01162F76
:10045000D42E042F262FFC01438162810E94850146
:10046000F7011283D3821F910F91FF90EF90DF90DD
:1004700008951BB88FEF8AB984B18E6284B980E584
:100480008CBD1EBC0DB407FEFDCF1EBC0DB407FE17
:10049000FDCF1EBC0DB407FEFDCF1EBC0DB407FE84
:1004A000FDCF299A299808950F931F93CF93DF9337
:1004B0008C01EB0140E050E030EA3CC04F5F5F4F01
:1004C000F8016081718102C0882319F420E03BB9F2
:1004D00009C0803110F48BB904C02E502295207FC2
:1004E0002BB9282F82E390E000000197E9F7E22F73
:1004F000FF27EE0FFF1FEE0FFF1FE60FF71F808194
:100500009181A281B381BEBD0DB407FEFDCFAEBD0A
:100510000DB407FEFDCF9EBD0DB407FEFDCF1BB889
:100520008EBD0DB407FEFDCF299A2998822F8F5FCB
:10053000893150F24C175D0709F0C0CFDF91CF91A0
:100540001F910F910895FF920F931F93CF93DF9305
:100550008C01EB0140E050E080EAF82E36C04F5F9E
:100560005F4FF8016081718130E002C0332311F4E4
:10057000FBB808C0303110F43BB904C02E502295AE
:10058000207F2BB9232FE32FFF27EE0FFF1FEE0F46
:10059000FF1FE60FF71F80819181A281B381BEBD4D
:1005A0000DB407FEFDCFAEBD0DB407FEFDCF9EBD61
:1005B0000DB407FEFDCF1BB88EBD0DB407FEFDCFF9
:1005C000299A29983F5F393188F24C175D0739F62F
:1005D000DF91CF911F910F91FF9008952F923F923D
:1005E0004F925F926F927F928F929F92AF92BF9243
:1005F000CF92DF92EF92FF920F931F93CF93DF93EF
:1006000089ED93E00E94390289ED93E00E94AC00ED
:1006100085ED93E00E94AC0014E2E12E19E4F12E86
:10062000012D112DE092BA03F092BB030093BC039D
:100630001093BD0329E432E940E050E02093B60373
:100640003093B7034093B8035093B90382E994E21F
:10065000A0E0B0E08093B2039093B303A093B403FF
:10066000B093B503E092AE03F092AF030093B003F2
:100670001093B1032093AA033093AB034093AC03D0
:100680005093AD038093A6039093A703A093A80370
:10069000B093A903B4E2EB2EB1E0FB2E012D112D96
:1006A000E092A203F092A3030093A4031093A50386
:1006B00029E430E040E050E020939E0330939F0314
:1006C0004093A0035093A10382E990E0A0E0B0E042
:1006D00080939A0390939B03A0939C03B0939D03F4
:1006E000E0929603F0929703009398031093990376
:1006F0002093920330939303409394035093950374
:1007000080938E0390938F03A0939003B0939103F3
:1007100025E030E00AE813E0A2EC6A2EA2E07A2E8F
:10072000FAEF8F2EF1E09F2EE6E2AE2EE3E0BE2E32
:100730007EE5C72E72E0D72E66E9E62E61E0F62E42
:10074000B901660F771F660F771FFB01EA55FC4F53
:1007500080819181A281B38149E0880F991FAA1FEE
:10076000BB1F4A95D1F7F80180839183A283B3839D
:10077000E9012197AE01440F551F440F551FFA019F
:10078000EA55FC4F80819181A281B381E9E0880F15
:10079000991FAA1FBB1FEA95D1F7F30180839183AC
:1007A000A283B38322503040220F331F220F331F06
:1007B000F901EA55FC4F80819181A281B381E9E082
:1007C000880F991FAA1FBB1FEA95D1F7F4018083F8
:1007D0009183A283B38362577C4FFB018081918117
:1007E000A281B381F50180839183A283B3834257B1
:1007F0005C4FFA0180819181A281B381F6018083EF
:100800009183A283B38322573C4FF9018081918168
:10081000A281B381F70180839183A283B383C33024
:10082000D10518F425E030E001C09E0104501040CD
:100830008CEF9FEF680E791E880E991EA80EB91EC8
:10084000C80ED91EE80EF91E93E00E34190709F000
:1008500077CF212CA8E43A2EA2E94A2E512C2092DF
:100860004E0330924F034092500350925103612C3B
:10087000F2E97F2EF4E28F2EF1E09F2E60924A0380
:1008800070924B0380924C0390924D0380E094E26F
:10089000A9E8B0E08093460390934703A0934803F0
:1008A000B093490380E098E4A0E5B0E08093420370
:1008B00090934303A0934403B093450360923E0397
:1008C00070923F03809240039092410380E094E253
:1008D000A2E9B0E080933A0390933B03A0933C03DA
:1008E000B0933D0380E098E0A9E4B0E08093360344
:1008F00090933703A0933803B09339036092320387
:1009000070923303809234039092350320922E0329
:1009100030922F03409230035092310380E090E0F8
:10092000A9E4B0E080932A0390932B03A0932C03B7
:10093000B0932D03E4E2AE2EE1E0BE2EC12CD12C0B
:10094000A092EA02B092EB02C092EC02D092ED02C9
:1009500079E4E72EF12C012D112DE092E602F092C0
:10096000E7020093E8021093E90222E930E040E058
:1009700050E02093E2023093E3024093E40250936C
:10098000E502A092DE02B092DF02C092E002D092B5
:10099000E102E092DA02F092DB020093DC021093B3
:1009A000DD022093D6023093D7024093D8025093B1
:1009B000D902A092D202B092D302C092D402D092B5
:1009C000D502E092CE02F092CF020093D0021093B3
:1009D000D1022093CA023093CB024093CC025093B1
:1009E000CD02A092C602B092C702C092C802D092B5
:1009F000C902609286027092870280928802909269
:100A00008902612C64E2762E69E4862E912C609234
:100A1000820270928302809284029092850280E02A
:100A200090E5A4E5B0E080937E0290937F02A093CE
:100A30008002B093810280E092EBA2E2B1E0809369
:100A40007A0290937B02A0937C02B0937D0280E0B7
:100A500094E2A9E8B0E08093760290937702A093A5
:100A60007802B093790280E098E8A4E4B0E0809343
:100A7000720290937302A0937402B093750280E0A7
:100A800092E5A2E2B1E080936E0290936F02A09390
:100A90007002B093710280E094E2A1E9B0E080932B
:100AA0006A0290936B02A0936C02B0936D0280E097
:100AB00092E9A8E4B0E08093660290936702A09365
:100AC0006802B093690280E09CE6A4E2B1E0809302
:100AD000620290936302A0936402B09365026092F5
:100AE000BE017092BF018092C0019092C10120921C
:100AF000BA013092BB014092BC015092BD0180E02E
:100B00009AE8A2E2B1E08093B6019093B701A09376
:100B1000B801B093B90180E094E0ADE8B0E0809313
:100B2000B2019093B301A093B401B093B50180E0FA
:100B300098E4A2E5B0E08093AE019093AF01A0935A
:100B4000B001B093B10180E092E5A9E2B1E08093F9
:100B5000AA019093AB01A093AC01B093AD0180E0EA
:100B600094EAA4E9B0E08093A6019093A701A09332
:100B7000A801B093A90180E098E4AAE4B0E08093D2
:100B8000A2019093A301A093A401B093A50180E0DA
:100B900094E2A5E2B1E080939E0190939F01A0931F
:100BA000A001B093A10180E092E9A2E9B0E08093B6
:100BB0009A0190939B01A0939C01B0939D01209377
:100BC0002202309323024093240250932502209363
:100BD0001E0230931F024093200250932102A092E4
:100BE0001A02B0921B02C0921C02D0921D02E09227
:100BF0001602F09217020093180210931902209324
:100C00001202309313024093140250931502A092E3
:100C10000E02B0920F02C0921002D0921102E09226
:100C20000A02F0920B0200930C0210930D02209323
:100C30000602309307024093080250930902A092E3
:100C40000202B0920302C0920402D0920502E09226
:100C5000FE01F092FF010093000210930102E09266
:100C60005A01F0925B0100935C0110935D01A09228
:100C70005601B0925701C0925801D0925901E092AA
:100C80005201F092530100935401109355012093A7
:100C90004E0130934F014093500150935101A09267
:100CA0004A01B0924B01C0924C01D0924D01E092AA
:100CB0004601F092470100934801109349012093A7
:100CC0004201309343014093440150934501A09267
:100CD0003E01B0923F01C0924001D0924101E092AA
:100CE0003A01F0923B0100933C0110933D012093A7
:100CF000360130933701409338015093390126B1C2
:100D000083B12F7199278170907035E0880F991FFA
:100D10003A95E1F7282B209334010E94ED0C609363
:100D200030017093310180933201909333010E941E
:100D3000ED0C60932C0170932D0180932E01909304
:100D40002F010E94ED0C609328017093290180937C
:100D50002A0190932B010E94ED0C6093CF037093B6
:100D6000D0038093D1039093D203DF91CF911F9151
:100D70000F91FF90EF90DF90CF90BF90AF909F903A
:100D80008F907F906F905F904F903F902F9008953D
:100D9000CF92DF92EF92FF920F931F93CF93DF9347
:100DA0008C016B0189ED93E00E94AC0085ED93E02E
:100DB0000E94AC00C801880F991F880F991F2AE96B
:100DC000E22E21E0F22EE80EF91EEC01CA5CDE4FA5
:100DD00016C0F70121913191419151917F01602F0E
:100DE00089ED93E00E94FA00299139914991599136
:100DF000602F85ED93E00E94FA000F5F1F4FC01631
:100E0000D1063CF7DF91CF911F910F91FF90EF90AA
:100E1000DF90CF900895CF92DF92EF92FF920F93E1
:100E20001F93CF93DF938C016B0189ED93E00E94B8
:100E3000AC0085ED93E00E94AC00C801880F991FBB
:100E4000880F991F4AE2E42E43E0F42EE80EF91EC3
:100E5000EC01CA53DD4F16C0F70121913191419148
:100E600051917F01602F89ED93E00E94FA00299152
:100E7000399149915991602F85ED93E00E94FA00D4
:100E80000F5F1F4FC016D1063CF7DF91CF911F9126
:100E90000F91FF90EF90DF90CF900895CF92DF9267
:100EA000EF92FF920F931F93CF93DF938C016B010F
:100EB00089ED93E00E94AC0085ED93E00E94AC00C8
:100EC000C801880F991F880F991F62E6E62E62E01D
:100ED000F62EE80EF91EEC01C250DE4F16C0F701E7
:100EE00021913191419151917F01602F89ED93E0E2
:100EF0000E94FA002991399149915991602F85ED0D
:100F000093E00E94FA000F5F1F4FC016D1063CF716
:100F1000DF91CF911F910F91FF90EF90DF90CF90D5
:100F200008954091C0035091C1034A30510508F023
:100F300043C08091BE039091BF03892B09F048C044
:100F40004F5F5F4F5093C1034093C00380910401F2
:100F5000909105010197909305018093040168E148
:100F600070E080E090E00E944E076091C0037091B5
:100F7000C1036E5F7F4F89ED93E00E945402609140
:100F8000C0037091C10385ED93E00E94540268E1B3
:100F900070E080E090E00E94C806609104017091CA
:100FA00005016E5F7F4F89ED93E00E9454026091CE
:100FB000040170910501ABC04A30510549F480919C
:100FC000BE039091BF03892B19F481E090E053C0D8
:100FD0002091C2033091C3032A30310508F040C08C
:100FE0008091BE039091BF03019709F049C02F5F24
:100FF0003F4F3093C3032093C2034150504050935E
:10100000C1034093C00368E170E080E090E00E947B
:101010000B076091C2037091C3036E5F7F4F89ED30
:1010200093E00E9454026091C2037091C30385ED66
:1010300093E00E94540268E170E080E090E00E943A
:101040004E076091C0037091C1036E5F7F4F89EDC1
:1010500093E00E9454026091C0037091C10357C095
:101060002A30310569F48091BE039091BF03019746
:1010700039F482E090E09093BF038093BE0308951B
:1010800040910401509105014A30510508F044C0D7
:101090008091BE039091BF03029709F04AC021508E
:1010A00030403093C3032093C2034F5F5F4F509390
:1010B00005014093040168E170E080E090E00E9447
:1010C000C80660910401709105016E5F7F4F89ED44
:1010D00093E00E945402609104017091050185ED36
:1010E00093E00E94540268E170E080E090E00E948A
:1010F0000B076091C2037091C3036E5F7F4F89ED50
:1011000093E00E9454026091C2037091C30385ED85
:1011100093E00E94540208954A30510551F48091A1
:10112000BE039091BF03029721F41092BF03109267
:10113000BE0308952091D3033091D4032A303105A2
:101140003CF468E170E080E090E00E944E071DC032
:10115000C9010A970A9738F468E170E080E090E0EE
:101160000E940B0712C0C90144970A9738F468E13E
:1011700070E080E090E00E94C80607C02E31310583
:1011800024F01092D4031092D3038091D303909152
:10119000D40301969093D4038093D30366E070E068
:1011A00089ED93E00E94540264E070E085ED93E0E5
:1011B0000E94540208952091D3033091D403243621
:1011C00031053CF468E170E080E090E00E944E0759
:1011D00021C0C901845690408436910538F468E1F5
:1011E00070E080E090E00E940B0714C0C901885CA9
:1011F00090408436910538F468E170E080E090E03A
:101200000E94C80607C02C52314024F01092D4032B
:101210001092D3038091D3039091D40301969093BD
:10122000D4038093D3030895CF93DF93C0E0D0E03D
:1012300020E03EEF4FEF51E06C2F89ED93E00E94EC
:10124000FA002FEF31E040E050E06C2F85ED93E0A5
:101250000E94FA002196C931D10551F7DF91CF9153
:1012600008956F927F928F929F92AF92BF92CF928A
:10127000DF92EF92FF920F931F930E94ED0C3B01C0
:101280004C017B018C0121C00E94ED0C7B018C0183
:10129000809117010E94790D209113013091140162
:1012A0002817390764F02FEFA216B104C104D10446
:1012B0007CF40894A11CB11CC11CD11C09C084E0A1
:1012C000A816B104C104D1041CF4AA24BB246501EE
:1012D000E618F708080919091E141F04100611065C
:1012E0009CF680E090E025E0A216B104C104D10490
:1012F00014F081E090E01F910F91FF90EF90DF904C
:10130000CF90BF90AF909F908F907F906F900895F7
:10131000EF92FF920F931F930E94ED0C7B018C01C3
:1013200010C00E94140966E070E089ED93E00E940D
:10133000540262E070E085ED93E00E9454020E9446
:10134000ED0C6E197F09800B910B645F714080403A
:1013500090403CF31F910F91FF90EF900895EF9212
:10136000FF920F931F930E94ED0C7B018C0114C020
:1013700068E170E080E090E00E940B0764E070E0BC
:1013800089ED93E00E94540262E070E085ED93E005
:101390000E9454020E94ED0C6E197F09800B910B84
:1013A000645F7140804090401CF31F910F91FF904B
:1013B000EF900895EF92FF920F931F938091170182
:1013C0000E94790D90931601809315010E94ED0CF7
:1013D0007B018C018091C7039091C803A091C90340
:1013E000B091CA03A8019701281B390B4A0B5B0B6C
:1013F00080910B0190910C01A0910D01B0910E0113
:1014000082179307A407B507C4F41092C50310927E
:10141000C4030E94ED0C6093C7037093C8038093CC
:10142000C9039093CA030E94ED0C60932C01709342
:101430002D0180932E0190932F010E943109882362
:1014400009F45AC08091CF039091D003A091D103A9
:10145000B091D203E81AF90A0A0B1B0B80910F0115
:1014600090911001A0911101B09112018E159F056C
:10147000A007B1070CF040C08091C603882369F42F
:101480000E94ED0C6093C7037093C8038093C90357
:101490009093CA0381E08093C6030E9488098091DB
:1014A000C4039091C50301969093C5038093C40330
:1014B000059734F081E090E09093C5038093C403D6
:1014C0000E94ED0C6093CF037093D0038093D103FF
:1014D0009093D2030E94ED0C60932C0170932D0128
:1014E00080932E0190932F016093CB037093CC03D4
:1014F0008093CD039093CE0326B183B12F719927AA
:1015000081709070E5E0880F991FEA95E1F7282B2C
:101510002093350180913401822780933401882300
:1015200009F456C082238093340180FF51C00E9489
:10153000ED0C7B018C018091300190913101A091E3
:101540003201B0913301A8019701281B390B4A0BD6
:101550005B0B2333310541055105D0F18091C60362
:10156000882369F40E94ED0C6093C7037093C8034D
:101570008093C9039093CA0381E08093C6030E94BD
:10158000AF098091C4039091C50301969093C50360
:101590008093C403059724F01092C5031092C403EE
:1015A000E0923001F0923101009332011093330147
:1015B000E0922C01F0922D0100932E0110932F0147
:1015C000E092CF03F092D0030093D1031093D203A3
:1015D00080913501809334011F910F91FF90EF901E
:1015E00008959F92AF92BF92CF92DF92EF92FF92B7
:1015F0000F931F93CF93DF93982E0E94ED0C5B0106
:101600006C01C0E0D0E00E9472107B018C010E944E
:1016100072109B01AC019920E1F0E62AF72A082B11
:10162000192B8091280190912901A0912A01B09154
:101630002B01A6019501281B390B4A0B5B0BDA0124
:10164000C901895E9340A040B04098F0A80197017D
:1016500004C0E622F722082319236C2F89ED93E0BA
:101660000E94FA00A80197016C2F85ED93E00E947B
:10167000FA002196C931D10531F69920D1F400E064
:1016800010E00EC061E070E089ED93E00E9454022A
:1016900063E070E085ED93E00E9454020F5F1F4FFE
:1016A0000E940610807290700A960817190750F36E
:1016B0000CC06AE070E089ED93E00E9454026AE099
:1016C00070E085ED93E00E94540280912801909192
:1016D0002901A0912A01B0912B01A81AB90ACA0ABE
:1016E000DB0A49EEA41643E0B40640E0C40640E03D
:1016F000D40650F00E94ED0C6093280170932901EC
:1017000080932A0190932B01DF91CF911F910F912C
:10171000FF90EF90DF90CF90BF90AF909F90089593
:10172000EF92FF920F931F930E94ED0C6093CB03F7
:101730007093CC038093CD039093CE0380911701D7
:101740000E94090E90931601809315018091060165
:10175000882319F40E94DA0923C08091CB03909169
:10176000CC03A091CD03B091CE03209130013091F4
:1017700031014091320150913301821B930BA40B34
:10178000B50B20910701309108014091090150915A
:101790000A01281739074A075B0710F4109206015F
:1017A0008091C4039091C503009779F40E94DB08EF
:1017B00062E070E089ED93E00E94540262E070E024
:1017C00085ED93E00E945402BEC08130910549F539
:1017D0000E949A08E090CB03F090CC030091CD03D7
:1017E0001091CE0380912C0190912D01A0912E019A
:1017F000B0912F01A8019701281B390B4A0B5B0BF5
:101800008091000190910101A0910201B09103012A
:1018100082179307A407B50708F095C082E090E00F
:1018200086C08230910551F580E00E94F10AE09077
:10183000CB03F090CC030091CD031091CE038091A7
:101840002C0190912D01A0912E01B0912F01A801A2
:101850009701281B390B4A0B5B0B8091000190917B
:101860000101A0910201B091030182179307A4071F
:10187000B50708F068C083E090E059C08330910557
:1018800041F50E949107E090CB03F090CC030091CA
:10189000CD031091CE0380912C0190912D01A09148
:1018A0002E01B0912F01A8019701281B390B4A0B7B
:1018B0005B0B8091000190910101A0910201B09118
:1018C000030182179307A407B507E8F584E090E0C9
:1018D0002EC00497C1F581E00E94F10AE090CB038D
:1018E000F090CC030091CD031091CE0380912C0198
:1018F00090912D01A0912E01B0912F01A801970187
:10190000281B390B4A0B5B0B809100019091010160
:10191000A0910201B091030188579C4EAF4FBF4F79
:1019200082179307A407B50770F481E090E09093C5
:10193000C5038093C403E0922C01F0922D01009323
:101940002E0110932F011F910F91FF90EF9008959A
:10195000CFEFD4E0DEBFCDBF0E94340D0E94EE0277
:101960000E94900BFDCF6F5F7F4F51F4019741F4C0
:1019700089ED93E00E94920085ED93E00E94920031
:1019800008956FEF7FEF81E090E00E94B30C08951F
:101990001F920F920FB60F9211248F939F93AF93C4
:1019A000BF938091DD039091DE03A091DF03B0919E
:1019B000E0030196A11DB11D8093DD039093DE032A
:1019C000A093DF03B093E003BF91AF919F918F91FC
:1019D0000F900FBE0F901F9018956091DD037091CE
:1019E000DE038091DF039091E00327E0660F771F0D
:1019F000881F991F2A95D1F72DE730E040E050E08D
:101A00000E948A10CA01B9010895AF92BF92CF9285
:101A1000DF92EF92FF920F931F935B016C010E9484
:101A2000ED0C7B018C010E94ED0C6E197F09800B7F
:101A3000910B6A157B058C059D05A8F31F910F91ED
:101A4000FF90EF90DF90CF90BF90AF9008950197F7
:101A500051F0880F991F880F991F02972FB7F8949C
:101A60000197F1F72FBF089578941092DD0310923B
:101A7000DE031092DF031092E00384B5826084BD20
:101A800084B5816084BD85B5826085BD85B5816082
:101A900085BDEEE6F0E0808181608083E1E8F0E0E2
:101AA000808182608083808181608083E0E8F0E0D3
:101AB000808181608083E1EBF0E0808184608083BD
:101AC000E0EBF0E0808181608083EAE7F0E08081F4
:101AD0008460808380818260808380818160808354
:101AE0008081806880831092C100089580931901DD
:101AF0000895909119019295990F990F907C8F708C
:101B0000982B90937C0080917A00806480937A0077
:101B100080917A0086FDFCCF209178008091790039
:101B20009927982F88273327822B932B08951F936B
:101B3000CF93DF93182FEB0161E00E94EB0DE12FB3
:101B4000FF27E659FF4F8491833051F48091800044
:101B5000806880938000D0938900C093880037C04C
:101B6000843051F480918000806280938000D09313
:101B70008B00C0938A002BC0813029F484B5806823
:101B800084BDC7BD24C0823029F484B5806284BD81
:101B9000C8BD1DC0863041F48091B000806880933C
:101BA000B000C093B30013C0873041F48091B000FF
:101BB00080628093B000C093B40009C0C038D105E2
:101BC00014F460E001C061E0812F0E94520EDF91A9
:101BD000CF911F910895282F3327C90182589F4F15
:101BE000FC0194912E563F4FF9018491882381F096
:101BF000E82FFF27E055FF4FE491FF27662329F4E4
:101C0000808190958923808308958081892B8083AA
:101C10000895482F5527CA0186599F4FFC012491EA
:101C2000CA0182589F4FFC0194914E565F4FFA01B2
:101C300034913323A1F1222331F1233021F4809117
:101C400080008F7705C0243031F4809180008F7D33
:101C50008093800018C0213019F484B58F7704C0B8
:101C6000223021F484B58F7D84BD0DC0263021F44F
:101C70008091B0008F7705C0273029F48091B000A3
:101C80008F7D8093B000E32FFF27EA55FF4FE4914B
:101C9000FF278081892319F081E090E0089580E09A
:101CA00090E00895482F5527CA0186599F4FFC019F
:101CB0002491CA0182589F4FFC0194914E565F4F68
:101CC000FA0134913323C1F1222331F1233021F47D
:101CD000809180008F7705C0243031F4809180009E
:101CE0008F7D8093800018C0213019F484B58F77E0
:101CF00004C0223021F484B58F7D84BD0DC0263010
:101D000021F48091B0008F7705C0273029F48091AD
:101D1000B0008F7D8093B000E32FFF27E555FF4F84
:101D2000E491FF27662329F480819095892380839D
:101D300008958081892B808308950F931F93CF93FB
:101D4000DF93869F8001879F100D969F100D1124B1
:101D5000C8010E94B90EEC01009729F0A80160E0CB
:101D600070E00E948010CE01DF91CF911F910F9102
:101D70000895CF93DF93AC01029710F442E050E056
:101D8000A091E303B091E403FD0120E030E0C0E066
:101D9000D0E020C0808191818417950769F4828109
:101DA0009381209719F09B838A8304C09093E40366
:101DB0008093E303CF0132C04817590738F4211547
:101DC000310519F08217930708F49C01EF01028096
:101DD000F381E02D3097F1F62115310589F1C90124
:101DE000841B950B049708F4A901E0E0F0E026C0FD
:101DF0008D919C91119782179307E9F44817590721
:101E000079F4ED018A819B81309719F09383828365
:101E100004C09093E4038093E303CD01029649C08C
:101E2000841B950BFD01E80FF91F41935193029715
:101E30008D939C933AC0FD01A281B3811097C1F6A6
:101E40008091E1039091E203892B41F480911C0180
:101E500090911D019093E2038093E10320911A0178
:101E600030911B012115310541F42DB73EB780910A
:101E70001E0190911F01281B390BE091E103F091A5
:101E8000E2032E1B3F0B2417350788F0CA01029688
:101E90002817390760F0CF01840F951F02969093A1
:101EA000E2038093E10341935193CF0102C080E0AC
:101EB00090E0DF91CF910895CF93DF93009709F4DD
:101EC0004EC0EC0122971B821A82A091E303B091CD
:101ED000E403109711F140E050E001C0DC01AC17C1
:101EE000BD0700F1BB83AA83FE0121913191E20F6E
:101EF000F31FEA17FB0771F48D919C911197280F3E
:101F0000391F2E5F3F4F39832883FD0182819381E2
:101F10009B838A834115510559F4D093E403C09300
:101F2000E3031DC0FD0182819381AD010097B1F6ED
:101F3000FA01D383C28321913191E20FF31FEC1791
:101F4000FD0769F488819981280F391F2E5F3F4F63
:101F5000FA01318320838A819B8193838283DF917D
:101F6000CF910895AF92BF92CF92DF92EF92FF92FE
:101F70000F931F93CF93DF93EC01E880F9800A81E0
:101F80001B81C801B7012DE133EF41E050E00E9411
:101F90008A1027EA31E440E050E00E94B2105B0171
:101FA0006C01C801B7012DE133EF41E050E00E9420
:101FB0008A10CA01B90124E13BE040E050E00E94F0
:101FC000B210A61AB70AC80AD90A1A141B041C04AC
:101FD0001D0444F08FEF9FEFAFEFBFE7A80EB91ECF
:101FE000CA1EDB1EA882B982CA82DB82C5019F7726
:101FF000DF91CF911F910F91FF90EF90DF90CF90E5
:10200000BF90AF9008950E94B20F089580E291E0D2
:102010000E94B20F0895AA27BB27809320019093B6
:102020002101A0932201B09323010895AF92BF92A2
:10203000CF92DF92EF92FF920F931F93CF93DF9394
:10204000EC01E880F9800A811B81C801B7012DE10C
:1020500033EF41E050E00E948A1027EA31E440E08B
:1020600050E00E94B2105B016C01C801B7012DE184
:1020700033EF41E050E00E948A10CA01B90124E127
:102080003BE040E050E00E94B210A61AB70AC80A2E
:10209000D90A1A141B041C041D0444F08FEF9FEF8F
:1020A000AFEFBFE7A80EB91ECA1EDB1EA882B98219
:1020B000CA82DB828FEF9FEFAFEFBFE7A822B92282
:1020C000CA22DB22C601B501DF91CF911F910F918A
:1020D000FF90EF90DF90CF90BF90AF9008950E9457
:1020E0001610089584E291E00E94161008956093FE
:1020F0002401709325018093260190932701089570
:10210000DC0140FF03C001C06D936D93425050400D
:10211000D8F70895A1E21A2EAA1BBB1BFD010DC022
:10212000AA1FBB1FEE1FFF1FA217B307E407F50787
:1021300020F0A21BB30BE40BF50B661F771F881F63
:10214000991F1A9469F760957095809590959B01F9
:10215000AC01BD01CF010895EE0FFF1F0590F49172
:10216000E02D0994629FD001739FF001829FE00DE2
:10217000F11D649FE00DF11D929FF00D839FF00D06
:10218000749FF00D659FF00D9927729FB00DE11DB2
:10219000F91F639FB00DE11DF91FBD01CF0111248F
:0221A0000895A0
:1021A200102700000A0001D007000060EA0000B812
:1021B2000B00001400E8030500010000E503200005
:0821C200010000000100000013
:00000001FF
