:100000000C9435000C945B000C945B000C945B002A
:100010000C945B000C945B000C945B000C945B00F4
:100020000C945B000C945B000C945B000C945B00E4
:100030000C945B000C945B000C945B000C945B00D4
:100040000C94A0080C945B000C945B000C945B0077
:100050000C945B000C945B000C945B000C945B00B4
:100060000C945B000C945B00A10511241FBECFEF24
:10007000D4E0DEBFCDBF11E0A0E0B1E0E0E4F7E105
:1000800002C005900D92AA31B107D9F712E0AAE19A
:10009000B1E001C01D92A038B107E1F710E0CAE657
:1000A000D0E004C02297FE010E945F0BC836D10742
:1000B000C9F70C9495080C9400000F931F938C01C2
:1000C00064E070E089E190E00E944E09F8019183BC
:1000D00080831F910F9108950F931F938C0164E00B
:1000E00070E089E190E00E944E09F80191838083DD
:1000F0001F910F9108956EBD0DB407FEFDCF0895B9
:1001000081E797E100000197E9F70895FC0101906C
:10011000F081E02D84E611928A95E9F70895FC01BB
:1001200055278081918177272223D9F0FA01EE0F9C
:10013000FF1FEE0FFF1FE80FF91F21E030E040E046
:1001400050E004C0220F331F441F551F6A95D2F799
:1001500080819181A281B381822B932BA42BB52B1B
:100160001EC0FA01EE0FFF1FEE0FFF1FE80FF91F71
:1001700021E030E040E050E004C0220F331F441F74
:10018000551F6A95D2F720953095409550958081FE
:100190009181A281B38182239323A423B5238083F9
:1001A0009183A283B3830895DC01E62FFF27EE0F2E
:1001B000FF1FEE0FFF1F8D919C91E80FF91F208309
:1001C0003183428353830895FC017727660F771F9D
:1001D000660F771F0190F081E02DE60FF71F8081F9
:1001E0009181A281B381822B932BA42BB52B808389
:1001F0009183A283B3830895FC015527440F551FB3
:10020000440F551F0190F081E02DE40FF51F21E010
:1002100030E040E050E004C0220F331F441F551F60
:100220006A95D2F780819181A281B381822B932B31
:10023000A42BB52B80839183A283B3830895DC0123
:10024000E42FFF27EE0FFF1FEE0FFF1F8D919C91F4
:10025000E80FF91F80819181A281B38104C0B69516
:10026000A795979587956A95D2F7817099270895F4
:10027000FC015527440F551F440F551F0190F08175
:10028000E02DE40FF51F21E030E040E050E004C035
:10029000220F331F441F551F6A95D2F720953095C2
:1002A0004095509580819181A281B38182239323CF
:1002B000A423B52380839183A283B3830895AF924F
:1002C000BF92CF92DF92EF92FF920F931F93CF9343
:1002D000DF935C01362F542F69311CF029310CF06B
:1002E0007BC059311CF009310CF076C0E22FFF279A
:1002F000E7FDF095832F992787FD9095E81BF90B73
:10030000F7FF03C0F095E195FF4FDE2EE02FFF27AA
:10031000E7FDF095852F992787FD9095E81BF90B50
:10032000F7FF03C0F095E195FF4FEE2EED155CF55C
:1003300032171CF4232F452F02C0402F052F4017E2
:100340001CF461E0C62E02C05FEFC52E142F022FF1
:10035000FF24C0E0D0E014C0FE0CDF1414F4FD183C
:100360001C0D193148F407FD07C009312CF4412F49
:10037000602FC5010E94FC000F5F2196093164F5D2
:10038000DC1654F729C050171CF4632F052F02C048
:10039000622F232F62171CF431E0C32E02C02FEF0F
:1003A000C22E162FFF24C0E0D0E014C0FD0CEF14C5
:1003B00014F4FE181C0D093148F417FD07C019315B
:1003C0002CF4402F612FC5010E94FC000F5F219685
:1003D000093114F4EC1654F7DF91CF911F910F916E
:1003E000FF90EF90DF90CF90BF90AF900895FC0109
:1003F000628343830895DF92EF92FF920F931F93DE
:100400007C01162FD42E042F262FFC0143816281FC
:100410000E945F01F7011283D3821F910F91FF9019
:10042000EF90DF9008951BB88FEF8AB984B18E6288
:1004300084B980E58CBD1EBC0DB407FEFDCF1EBC8B
:100440000DB407FEFDCF1EBC0DB407FEFDCF1EBCD4
:100450000DB407FEFDCF299A299808950F931F9395
:10046000CF93DF938C01EB0140E050E030EA3CC0D9
:100470004F5F5F4FF8016081718102C0882319F4DA
:1004800020E03BB909C0803110F48BB904C02E5074
:100490002295207F2BB9282F82E390E0000001975E
:1004A000E9F7E22FFF27EE0FFF1FEE0FFF1FE60F0A
:1004B000F71F80819181A281B381BEBD0DB407FE7B
:1004C000FDCFAEBD0DB407FEFDCF9EBD0DB407FE42
:1004D000FDCF1BB88EBD0DB407FEFDCF299A29981C
:1004E000822F8F5F893150F24C175D0709F0C0CF22
:1004F000DF91CF911F910F910895FF920F931F935A
:10050000CF93DF938C01EB0140E050E080EAF82EBE
:1005100036C04F5F5F4FF8016081718130E002C0EB
:10052000332311F4FBB808C0303110F43BB904C0D8
:100530002E502295207F2BB9232FE32FFF27EE0F7C
:10054000FF1FEE0FFF1FE60FF71F80819181A28131
:10055000B381BEBD0DB407FEFDCFAEBD0DB407FE29
:10056000FDCF9EBD0DB407FEFDCF1BB88EBD0DB4F3
:1005700007FEFDCF299A29983F5F393188F24C1741
:100580005D0739F6DF91CF911F910F91FF9008958C
:100590008EBD0DB407FEFDCF0895DF92EF92FF925E
:1005A0000F931F93CF93DF93EC01DD240E94B70AD2
:1005B0007C010027F7FC0095102F8FE0EE0CFF1C4C
:1005C000001F111F8A95D1F7E882F9820A831B83E5
:1005D0000E94B70AAA2797FDA095BA2FE82AF92A00
:1005E0000A2B1B2BE992F99209931993D39489E171
:1005F000D816E1F6DF91CF911F910F91FF90EF9008
:10060000DF9008952F923F924F925F926F927F9268
:100610008F929F92AF92BF92CF92DF92EF92FF9212
:100620000F931F93CF93DF93C0E0D0E010922D0182
:1006300010922E0110922F01109230011092290178
:1006400010922A0110922B0110922C011092250178
:100650001092260110922701109228011092210178
:1006600010922201109223011092240181E090E067
:10067000A0E0B0E080931D0190931E01A0931F01A4
:10068000B093200180911B0190911C0160E070E00B
:1006900021E030E040E050E02224332421016624B0
:1006A00077244301AA24BB246501EE24FF2487019B
:1006B00080FF04C0E20EF31E041F151F81FF04C05B
:1006C000A20EB31EC41ED51E82FF04C0620E731E8E
:1006D000841E951E83FF04C0220E331E441E551E29
:1006E000220F331F441F551F01968031910510F0D2
:1006F00080E090E06F5F7F4F69317105C9F690939C
:100700001C0180931B0120931D0130931E01409317
:100710001F0150932001209221013092220140922A
:10072000230150922401609225017092260180924B
:10073000270190922801A0922901B0922A01C0922B
:100740002B01D0922C01E0922D01F0922E0100930A
:100750002F0110933001A80197016C2F81E491E0E3
:100760000E94D4002091290130912A0140912B014F
:1007700050912C016C2F8DE391E00E94D4002091C8
:1007800025013091260140912701509128016C2FBD
:1007900089E391E00E94D40020912101309122014F
:1007A00040912301509124016C2F85E391E00E9438
:1007B000D4002196C931D10509F038CF00E010E00E
:1007C0001AC061E070E081E491E00E942E0262E0D4
:1007D00070E08DE391E00E942E0264E070E089E316
:1007E00091E00E942E0268E070E085E391E00E94B3
:1007F0002E020F5F1F4F809106019091070108178D
:100800001907F8F2DF91CF911F910F91FF90EF90B0
:10081000DF90CF90BF90AF909F908F907F906F9020
:100820005F904F903F902F900895CF93DF93C0E05B
:10083000D0E00E94230B60932D0170932E018093D2
:100840002F01909330010E94230B9B01AC01609318
:10085000290170932A0180932B0190932C018091A0
:100860002D0190912E01A0912F01B0913001822392
:100870009323A423B5238093250190932601A0936D
:100880002701B09328016C2F81E491E00E94D400ED
:100890002091250130912601409127015091280196
:1008A0006C2F8DE391E00E94D4002196C931D105CF
:1008B00009F0BFCFC0E0D0E00DC062E070E081E49D
:1008C00091E00E942E0261E070E08DE391E00E94D1
:1008D0002E0221960E94B70A807290700A96C8175D
:1008E000D90758F3DF91CF91089567FF02C068E1FF
:1008F00003C069310CF060E047FF02C048E103C06B
:1009000049310CF040E0E62FFF27E7FDF095EE0FB0
:10091000FF1FEE0FFF1FE80FF91F80819181A28159
:10092000B38104C0B695A795979587954A95D2F758
:10093000817099270895CF92DF92EF92FF920F93E3
:100940001F93CF93DF936C01EE24FF2400E010E0AF
:10095000C0E0D0E04C2F602FC6010E9475048823B0
:1009600019F00894E11CF11C2196C931D10591F7C9
:100970000F5F1F4F0931110559F7C701DF91CF9163
:100980001F910F91FF90EF90DF90CF9008950F93FC
:100990001F93E62FFF27E7FDF095EE0FFF1FEE0FE9
:1009A000FF1FE80FF91F01E010E020E030E004C075
:1009B000000F111F221F331F4A95D2F70095109583
:1009C0002095309580819181A281B38180239123EC
:1009D000A223B32380839183A283B3831F910F91BA
:1009E0000895CF92DF92EF92FF920F931F93CF93D0
:1009F000DF93EC01F62ED42EC42ECA94062F01509C
:100A00004C2D602F0E947504182F811111E04D2D7F
:100A1000602FCE010E94750481111F5FED2CE394BD
:100A20004E2D602FCE010E94750481111F5F4C2D49
:100A30006F2DCE010E94750481111F5F4E2D6F2D09
:100A4000CE010E94750481111F5F0F2D0F5F4C2D89
:100A5000602FCE010E94750481111F5F4D2D602F04
:100A6000CE010E94750481111F5F4E2D602FCE01B3
:100A70000E94750481111F5F812F9927DF91CF910B
:100A80001F910F91FF90EF90DF90CF900895AF925C
:100A9000BF92DF92EF92FF920F931F93CF93DF935A
:100AA0005C017B01DD2400E010E0C0E0D0E04C2FD1
:100AB000602FC5010E947504882341F04C2F602FE0
:100AC000C7010E947504882339F007C04C2F602F9E
:100AD000C7010E9475048111D3942196C931D105B3
:100AE00031F70F5F1F4F09311105F9F68D2D992749
:100AF000DF91CF911F910F91FF90EF90DF90BF900A
:100B0000AF90089520E030E000002F5F3F4F821744
:100B10009307D0F708956F5F7F4F91F4019781F4A9
:100B200081E491E00E946C008DE391E00E946C00F2
:100B300089E391E00E946C0085E391E00E946C00E3
:100B400008956FEF7FEF81E090E00E948B0508959C
:100B50001F9381E491E00E941302A2E0B0E00E94A2
:100B6000630BCF010E94BC0A1FEF0E94B70A86BD2B
:100B70001150D9F70E94B70AA2E0B0E00C010E9420
:100B8000680B1BB89FEF9AB981E085B998B98EEFD1
:100B900084B917B88EE284B980E58CBD1EBC0DB453
:100BA00007FEFDCF1EBC0DB407FEFDCF1EBC0DB46D
:100BB00007FEFDCF299A299880EB91E00E94CD0293
:100BC00026B183B12F7199278170907015E0880F3D
:100BD000991F1A95E1F7282B20934A011F91089538
:100BE0001F93A2E0B0E00E94630BCF010E94BC0AF9
:100BF0001FEF0E94B70A86BD1150D9F70E94B70AAD
:100C0000A2E0B0E00C010E94680B1BB89FEF9AB9FC
:100C100081E085B998B98EEF84B917B88EE284B9AE
:100C200080E58CBD1EBC0DB407FEFDCF1EBC0DB40F
:100C300007FEFDCF1EBC0DB407FEFDCF299A2998F3
:100C400080EB91E00E94CD0226B183B12F719927EC
:100C50008170907035E0880F991F3A95E1F7282B45
:100C600020934A011F91089526B183B12F719927CE
:100C70008170907045E0880F991F4A95E1F7282B05
:100C800020934B0180914A01822780934A01882357
:100C900009F444C0982F922390934A0190FF0AC010
:100CA00080911A01882321F481E080931A0102C007
:100CB00010921A01292F332721FF0EC01092310103
:100CC00010923201109233011092340182E090E0D0
:100CD000909301018093000122FF0EC01092310118
:100CE00010923201109233011092340183E090E0AF
:100CF000909301018093000124FF10C00E94F00531
:100D000085E090E090930101809300011092310101
:100D100010923201109233011092340180914B01F4
:100D200080934A010895FF920F931F93CF93DF930F
:100D300000910A0110910B01C0E0D0E050EAF52EBD
:100D400043C0219660E070E003C06115710511F4A5
:100D5000FBB80AC06031710510F46BB905C0862F6D
:100D60008F508295807F8BB96F5F7F4FFB01EE0FB5
:100D7000FF1FEE0FFF1FE85BFE4F80819181A28174
:100D8000B381F82F292F3A2F4B2F5527E22F9D01A2
:100D9000442755278B2F9927AA27BB278EBD0DB433
:100DA00007FEFDCF2EBD0DB407FEFDCFEEBD0DB489
:100DB00007FEFDCF1BB8FEBD0DB407FEFDCF299A7F
:100DC00029986931710508F2C017D10708F4B9CF25
:100DD000DF91CF911F910F91FF900895AF92BF9235
:100DE000CF92DF92EF92FF920F931F93CF93DF93F7
:100DF000CC24DD246CE4A62E61E0B62EEE24FF2484
:100E00008701C0E0D0E04C2F6C2D80EB91E00E9478
:100E10007504882381F081E090E0A0E0B0E00C2E22
:100E200004C0880F991FAA1FBB1F0A94D2F7E82A93
:100E3000F92A0A2B1B2B2196C931D10521F7F5017F
:100E4000E192F192019311935F010894C11CD11CAE
:100E5000F9E1CF16D10491F60E949306CC24DD244B
:100E600004E112E0FC2CC0E0D0E04C2F6F2D80EBB1
:100E700091E00E94F1048230F0F08330D1F421E05F
:100E800030E040E050E00C2E04C0220F331F441F1E
:100E9000551F0A94D2F7F80180819181A281B38114
:100EA000822B932BA42BB52B80839183A283B383B6
:100EB00008C0843030F04C2F6F2D84E192E00E9406
:100EC000C7042196C931D10581F60E949306089482
:100ED000C11CD11C0C5F1F4FF9E1CF16D10411F6D4
:100EE0000E949306809149018F5F80934901893C5C
:100EF000A9F50E94B70AAA2797FDA095BA2F90706E
:100F0000A070B0708093400290934102A09342027F
:100F1000B09343020E94B70AAA2797FDA095BA2F63
:100F20009070A070B0708093440290934502A0939B
:100F30004602B09347020E94B70AAA2797FDA095E0
:100F4000BA2F9070A070B0708093480290934902BD
:100F5000A0934A02B0934B0210924901E4E1F2E0FF
:100F6000C0EBD1E081919191A191B1918993999335
:100F7000A993B99382E0E837F807A1F70E94930696
:100F8000DF91CF911F910F91FF90EF90DF90CF9065
:100F9000BF90AF9008950E94340680910001909117
:100FA00001010297E1F50E94150480911A0188233E
:100FB00099F48091310190913201A0913301B09167
:100FC00034010196A11DB11D80933101909332012E
:100FD000A0933301B093340120913101309132015B
:100FE00040913301509134018091020190910301AD
:100FF000A0910401B0910501281739074A075B0742
:1010000070F010923101109232011092330110925F
:10101000340183E090E0909301018093000180917E
:101020000001909101010397F1F50E940203809164
:101030001A01882399F48091310190913201A09195
:101040003301B09134010196A11DB11D809331018E
:1010500090933201A0933301B09334012091310178
:10106000309132014091330150913401809102015D
:1010700090910301A0910401B0910501281739074F
:101080004A075B0780F010923101109232011092F2
:1010900033011092340185E090E090930101809338
:1010A00000010E94F00580910001909101010597D7
:1010B000D9F50E94EE062091310130913201409124
:1010C0003301509134012F5F3F4F4F4F5F4F2093BB
:1010D00031013093320140933301509334018091B8
:1010E000020190910301A0910401B0910501839741
:1010F000A109B109281739074A075B07A8F0109220
:10110000310110923201109233011092340180911A
:101110001A01882339F482E090E0909301018093D2
:10112000000108950E94F0050895CFEFD4E0DEBFDE
:10113000CDBF0E940C090E94A8050E94CB07FDCFDD
:101140001F920F920FB60F9211248F939F93AF931C
:10115000BF938091780290917902A0917A02B09128
:101160007B020196A11DB11D8093780290937902B4
:10117000A0937A02B0937B02BF91AF919F918F9120
:101180000F900FBE0F901F9018956091780270918C
:10119000790280917A0290917B0227E0660F771F97
:1011A000881F991F2A95D1F72DE730E040E050E0E5
:1011B0000E943B0BCA01B9010895AF92BF92CF9232
:1011C000DF92EF92FF920F931F935B016C010E94DD
:1011D000C5087B018C010E94C5086E197F09800B30
:1011E000910B6A157B058C059D05A8F31F910F9146
:1011F000FF90EF90DF90CF90BF90AF900895019750
:1012000051F0880F991F880F991F02972FB7F894F4
:101210000197F1F72FBF08957894109278021092F9
:10122000790210927A0210927B0284B5826084BDAA
:1012300084B5816084BD85B5826085BD85B58160DA
:1012400085BDEEE6F0E0808181608083E1E8F0E03A
:10125000808182608083808181608083E0E8F0E02B
:10126000808181608083E1EBF0E080818460808315
:10127000E0EBF0E0808181608083EAE7F0E080814C
:1012800084608083808182608083808181608083AC
:101290008081806880831092C10008950F931F930E
:1012A000CF93DF93869F8001879F100D969F100D2F
:1012B0001124C8010E946A09EC01009729F0A801D5
:1012C00060E070E00E94310BCE01DF91CF911F9161
:1012D0000F910895CF93DF93AC01029710F442E091
:1012E00050E0A0917E02B0917F02FD0120E030E04D
:1012F000C0E0D0E020C0808191818417950769F417
:1013000082819381209719F09B838A8304C09093F4
:101310007F0280937E02CF0132C04817590738F40C
:101320002115310519F08217930708F49C01EF018C
:101330000280F381E02D3097F1F62115310589F116
:10134000C901841B950B049708F4A901E0E0F0E0C3
:1013500026C08D919C91119782179307E9F4481745
:10136000590779F4ED018A819B81309719F09383B5
:10137000828304C090937F0280937E02CD01029607
:1013800049C0841B950BFD01E80FF91F4193519350
:1013900002978D939C933AC0FD01A281B38110976F
:1013A000C1F680917C0290917D02892B41F480915D
:1013B0000E0190910F0190937D0280937C02209109
:1013C0000C0130910D012115310541F42DB73EB7C7
:1013D0008091100190911101281B390BE0917C0242
:1013E000F0917D022E1B3F0B2417350788F0CA01B0
:1013F00002962817390760F0CF01840F951F0296D7
:1014000090937D0280937C0241935193CF0102C05F
:1014100080E090E0DF91CF910895CF93DF93009724
:1014200009F44EC0EC0122971B821A82A0917E0221
:10143000B0917F02109711F140E050E001C0DC0153
:10144000AC17BD0700F1BB83AA83FE012191319146
:10145000E20FF31FEA17FB0771F48D919C9111972E
:10146000280F391F2E5F3F4F39832883FD0182816A
:1014700093819B838A834115510559F4D0937F0250
:10148000C0937E021DC0FD0182819381AD01009752
:10149000B1F6FA01D383C28321913191E20FF31F98
:1014A000EC17FD0769F488819981280F391F2E5F99
:1014B0003F4FFA01318320838A819B81938382830A
:1014C000DF91CF910895AF92BF92CF92DF92EF92CA
:1014D000FF920F931F93CF93DF93EC01E880F98085
:1014E0000A811B81C801B7012DE133EF41E050E0D3
:1014F0000E943B0B27EA31E440E050E00E94810B60
:101500005B016C01C801B7012DE133EF41E050E010
:101510000E943B0BCA01B90124E13BE040E050E0EE
:101520000E94810BA61AB70AC80AD90A1A141B040A
:101530001C041D0444F08FEF9FEFAFEFBFE7A80E30
:10154000B91ECA1EDB1EA882B982CA82DB82C5010F
:101550009F77DF91CF911F910F91FF90EF90DF90D8
:10156000CF90BF90AF9008950E94630A089582E1E2
:1015700091E00E94630A0895AA27BB278093120175
:1015800090931301A0931401B09315010895AF92A5
:10159000BF92CF92DF92EF92FF920F931F93CF9360
:1015A000DF93EC01E880F9800A811B81C801B70153
:1015B0002DE133EF41E050E00E943B0B27EA31E49C
:1015C00040E050E00E94810B5B016C01C801B70153
:1015D0002DE133EF41E050E00E943B0BCA01B9011D
:1015E00024E13BE040E050E00E94810BA61AB70ADC
:1015F000C80AD90A1A141B041C041D0444F08FEFF6
:101600009FEFAFEFBFE7A80EB91ECA1EDB1EA88270
:10161000B982CA82DB828FEF9FEFAFEFBFE7A822CC
:10162000B922CA22DB22C601B501DF91CF911F91F9
:101630000F91FF90EF90DF90CF90BF90AF90089503
:101640000E94C70A089586E191E00E94C70A0895A2
:1016500060931601709317018093180190931901FC
:101660000895DC0140FF03C001C06D936D934250AB
:101670005040D8F70895A1E21A2EAA1BBB1BFD010A
:101680000DC0AA1FBB1FEE1FFF1FA217B307E40761
:10169000F50720F0A21BB30BE40BF50B661F771FB9
:1016A000881F991F1A9469F7609570958095909599
:1016B0009B01AC01BD01CF010895EE0FFF1F059006
:1016C000F491E02D099409D0E02D07D0F02D089574
:1016D0000CD0012C0AD011240895F999FECFB2BD87
:1016E000A1BDF89A119600B40895F999FECFB2BD44
:1016F000A1BD00BC11960FB6F894FA9AF99A0FBEE4
:101700000895629FD001739FF001829FE00DF11D4B
:10171000649FE00DF11D929FF00D839FF00D749F6B
:10172000F00D659FF00D9927729FB00DE11DF91F17
:10173000639FB00DE11DF91FBD01CF011124089574
:1017400002006400000005000C0C0800000080028C
:0A175000200001000000010000006D
:00000001FF
