:100000000C945A000C9475000C9475000C947500B7
:100010000C9475000C9475000C9475000C9475008C
:100020000C9475000C9475000C9475000C9475007C
:100030000C9475000C9475000C9475000C9475006C
:100040000C9451010C9475000C9475000C9475007F
:100050000C9475000C9475000C9475000C9475004C
:100060000C9475000C94750000000007000201005C
:100070000003040600000000000000000102040864
:100080001020408001020408102001020408102002
:10009000040404040404040402020202020203032E
:1000A000030303030000232629000025282B00005A
:1000B00024272A0011241FBECFEFD4E0DEBFCDBF1E
:1000C00011E0A0E0B1E0E6EBF5E002C005900D9292
:1000D000A230B107D9F711E0A2E0B1E001C01D9252
:1000E000AC30B107E1F70C9446010C940000EF929C
:1000F000FF920F931F93CF93DF938C01EB0161E08D
:10010000809100010E946E028AE090E00E94B0019E
:10011000F89460E0809100010E946E0281E090E01E
:100120000E94B00181E090E00E94B00181E090E087
:100130000E94B00181E090E00E94B00198E0E92EB9
:10014000F12CC0FF02C061E001C060E0802F0E947E
:100150006E0281E090E00E94B00181E090E00E9498
:10016000B00181E090E00E94B00182E090E0019750
:10017000F1F7D595C7950894E108F108E114F10469
:1001800001F761E0802F0E946E027894DF91CF9199
:100190001F910F91FF90EF90089561E08091000111
:1001A0000E94070261E08DE00E946E02089560E007
:1001B000809100010E946E026AE070E080E090E0B1
:1001C0000E948E0160E070E0809100019091010139
:1001D0000E9477006FEF70E0809100019091010123
:1001E0000E94770060E070E0809100019091010131
:1001F0000E94770060E070E0809100019091010121
:100200000E94770060E070E0809100019091010110
:100210000E94770060E070E0809100019091010100
:100220000E94770060E070E08091000190910101F0
:100230000E94770060E070E08091000190910101E0
:100240000E94770060E070E08091000190910101D0
:100250000E94770081E090E00DC060E070E0809146
:100260000001909101010E94770080910601909118
:100270000701019690930701809306018091060182
:1002800090910701895F914044F30895CFEFD4E046
:10029000DEBFCDBF0E94BD010E94CD000E94D700ED
:1002A000FDCF1F920F920FB60F9211248F939F9341
:1002B000AF93BF938091080190910901A0910A0129
:1002C000B0910B010196A11DB11D8093080190937F
:1002D0000901A0930A01B0930B01BF91AF919F91C7
:1002E0008F910F900FBE0F901F901895609108018D
:1002F0007091090180910A0190910B0127E0660F2E
:10030000771F881F991F2A95D1F72DE730E040E02D
:1003100050E00E94B902CA01B9010895AF92BF929C
:10032000CF92DF92EF92FF920F931F935B016C01CC
:100330000E9476017B018C010E9476016E197F0973
:10034000800B910B6A157B058C059D05A8F31F9109
:100350000F91FF90EF90DF90CF90BF90AF900895F6
:10036000019751F0880F991F880F991F02972FB797
:10037000F8940197F1F72FBF08957894109208012F
:100380001092090110920A0110920B0184B582604B
:1003900084BD84B5816084BD85B5826085BD85B529
:1003A000816085BDEEE6F0E0808181608083E1E8D8
:1003B000F0E0808182608083808181608083E0E8DA
:1003C000F0E0808181608083E1EBF0E080818460F7
:1003D0008083E0EBF0E0808181608083ECE7F0E0F7
:1003E00080818F778083808180648083EAE7F0E07A
:1003F000808184608083808182608083808181604D
:1004000080838081806880831092C1000895282FA6
:100410003327C90184589F4FFC01949120573F4FC7
:10042000F9018491882381F0E82FFF27E255FF4FDF
:10043000E491FF27662329F48081909589238083A6
:1004400008958081892B80830895482F5527CA01FC
:1004500088599F4FFC012491CA0184589F4FFC0189
:10046000949140575F4FFA0134913323A1F1222335
:1004700031F1233021F4809180008F7705C0243042
:1004800031F4809180008F7D8093800018C02130EE
:1004900019F484B58F7704C0223021F484B58F7DA0
:1004A00084BD0DC0263021F48091B0008F7705C047
:1004B000273029F48091B0008F7D8093B000E32F26
:1004C000FF27EC55FF4FE491FF278081892319F026
:1004D00081E090E0089580E090E00895482F55274E
:1004E000CA0188599F4FFC012491CA0184589F4F2B
:1004F000FC01949140575F4FFA0134913323C1F1CD
:10050000222331F1233021F4809180008F7705C0C0
:10051000243031F4809180008F7D8093800018C05A
:10052000213019F484B58F7704C0223021F484B5CA
:100530008F7D84BD0DC0263021F48091B0008F776F
:1005400005C0273029F48091B0008F7D8093B000E2
:10055000E32FFF27E755FF4FE491FF27662329F498
:10056000808190958923808308958081892B808361
:100570000895A1E21A2EAA1BBB1BFD010DC0AA1FE4
:10058000BB1FEE1FFF1FA217B307E407F50720F0FC
:10059000A21BB30BE40BF50B661F771F881F991F77
:1005A0001A9469F760957095809590959B01AC01C0
:0605B000BD01CF0108951A
:0205B60007003C
:00000001FF
