:100000000C9435000C945B000C945B000C945B002A
:100010000C945B000C945B000C945B000C945B00F4
:100020000C945B000C9493000C945B000C945B00AC
:100030000C945B000C945B000C945B000C945B00D4
:100040000C9448050C945B000C945B000C945B00D2
:100050000C945B000C945B000C945B000C945B00B4
:100060000C945B000C945B00410511241FBECFEF84
:10007000D4E0DEBFCDBF11E0A0E0B1E0EEE6FEE0EF
:1000800002C005900D92AA37B107D9F712E0AAE78E
:10009000B1E001C01D92A530B107E1F710E0CAE65A
:1000A000D0E004C02297FE010E943307C836D10772
:1000B000C9F70C942C050C9400009A01AB0160E088
:1000C00070E48CE194EC0E94390620E030E040E8D6
:1000D00053E40E94F70520E030E040E05FE30E9437
:1000E000F7050E947F066093E1010895611571058F
:1000F00011F46AE771E07093DF016093DE01089507
:100100007093E7016093E60108951092B00087E0D4
:100110008093B10081E0809370008BEE8093B200F9
:100120008BEE90E0089578941F920F920FB60F9285
:1001300011242F933F934F935F936F937F938F93EC
:100140009F93AF93BF93EF93FF932091E001A22F72
:10015000BB27A7FDB095FD013196EE0FFF1FEE0FF7
:10016000FF1F8091DE019091DF01E80FF91F3197A9
:1001700080818EBD0DB407FEFDCF319780818EBD8D
:100180000DB407FEFDCF319780818EBD0DB407FE03
:10019000FDCF319780818EBD0DB407FEFDCF1BB81A
:1001A000299A2998A050BF4F8C918BB9822F8F5FCD
:1001B0008093E0018931ACF01092E0018091E2017E
:1001C0009091E301A091E401B091E5010196A11D98
:1001D000B11D8093E2019093E301A093E401B093F9
:1001E000E501E091E601F091E701309709F009950A
:1001F0008091B2009091E101890F8093B200FF914C
:10020000EF91BF91AF919F918F917F916F915F918E
:100210004F913F912F910F900FBE0F901F90189507
:100220001BB88FEF8AB984B18E6284B980E78CBD28
:100230001EBC0DB407FEFDCF1EBC0DB407FEFDCFE6
:100240001EBC0DB407FEFDCF1EBC0DB407FEFDCFD6
:10025000299A29988AE791E09093DF018093DE0143
:100260001092E0011092E2011092E3011092E40179
:100270001092E5011092E7011092E6011092B00091
:1002800087E08093B10081E0809370008BEE8093D3
:10029000B2008093E10108951BB88FEF8AB984B151
:1002A0008E6284B980E78CBD1EBC0DB407FEFDCF05
:1002B0001EBC0DB407FEFDCF1EBC0DB407FEFDCF66
:1002C0001EBC0DB407FEFDCF299A29988AE791E05C
:1002D0009093DF018093DE011092E0011092E20121
:1002E0001092E3011092E4011092E5011092E701EF
:1002F0001092E6011092B00087E08093B10081E097
:10030000809370008BEE8093B2008093E10108959A
:10031000CF93DF93C22FDD27962F977028E030E030
:10032000291B310902C0CC0FDD1F2A95E2F75527A2
:100330006695669566952D2F3327882391F0FA01EF
:10034000EE0FFF1FEE0FFF1FE60FF11DDF01A65896
:10035000BE4F8C91822B8C93E558FE4F80818C2B65
:1003600015C0FA01EE0FFF1FEE0FFF1FE60FF11D84
:10037000DF01A658BE4F922F90958C9189238C93C4
:10038000E558FE4F9E012095808182238083DF9176
:10039000CF9108951F93CF93DF93809172016AE00C
:1003A0000E94E806192FC0E0D0E06C2F660F1C17E2
:1003B00021F420EC4DE081E003C020EC4DE080E032
:1003C0000E9488012196CA30D10579F78091720187
:1003D0006AE00E94E806182FC0E0D0E08C2F6C2F56
:1003E000660F660F8F5F181721F420E74BE081E05E
:1003F00003C020E74BE080E00E9488012196C430D2
:10040000D10561F7DF91CF911F910895CF93DF93CD
:1004100095E0899FD0011124A75EBE4FC0E0D0E0D7
:10042000E42FFF27262F332721703070422FEE0F45
:10043000FF1FEE0FFF1F6695E60FF11DE658FE4FFA
:100440009081222311F080EF01C08FE089239C91DD
:10045000442321F092959695977001C09695892B2B
:100460008083219634961196C530D10549F7DF91E6
:10047000CF9108954FE00E940602089545E00E9442
:1004800006020895F8940E946D05789408950E94DC
:1004900042029B01AC018091FC019091FD01A09171
:1004A000FE01B091FF014496A11DB11D8217930773
:1004B000A407B50728F52093FC013093FD01409374
:1004C000FE015093FF0126B183B12F7199278170EE
:1004D000907045E0880F991F4A95E1F7282B2093EB
:1004E000FB018091FA018227982F92239093F801C3
:1004F000922F909589238093F9012093FA01089512
:100500001092F8011092F90108951F9380917001E3
:100510008C3010F0883119F465E08DE002C065E0A0
:100520008EE00E943E028091EA019091EB01892BBE
:1005300051F00E9442026093F4017093F5018093A0
:10054000F6019093F701109170011D3008F01C50D6
:100550008091EA019091EB010197D1F46091F4014F
:100560007091F5018091F6019091F70128EE33E04A
:1005700040E050E00E941607645F71408040904068
:100580003CF060E08CE00E943E0261E08CE00FC035
:100590001A3018F060E081E002C060E08CE00E9458
:1005A0003E02812F6AE00E94E80661E0892F0E94E6
:1005B0003E028091EA019091EB010297D1F46091A3
:1005C000F4017091F5018091F6019091F70128EE08
:1005D00033E040E050E00E941607645F71408040C5
:1005E00090403CF063E08CE00E943E0264E08CE0CE
:1005F0000FC0809171016AE00E94E80663E00E94EA
:100600003E02809171016AE00E94E80664E0892F51
:100610000E943E028091EA019091EB01892BB1F496
:100620006091F4017091F5018091F6019091F701CC
:1006300028EE33E040E050E00E941607645F71400E
:10064000804090401CF062E08CE002C062E08AE0F2
:100650000E943E020E94CA018091EA019091EB0142
:100660000397D1F46091F4017091F5018091F60146
:100670009091F70128EE33E040E050E00E94160729
:10068000645F7140804090403CF060E08CE00E94EC
:100690003A0261E08CE012C0809173018A3018F058
:1006A00060E081E002C060E08CE00E943A0280914C
:1006B00073016AE00E94E80661E0892F0E943A0215
:1006C0008091EA019091EB010497D1F46091F401DB
:1006D0007091F5018091F6019091F70128EE33E0D9
:1006E00040E050E00E941607645F714080409040F7
:1006F0003CF063E08CE00E943A0264E08CE014C0BD
:10070000809174018A3028F06AE00E94E80663E074
:1007100002C063E08CE00E943A02809174016AE0BA
:100720000E94E80664E0892F0E943A0262E08BE0B2
:100730000E943A021F9108958091F80180FF27C01E
:100740008091EA019091EB018130910519F482E0EA
:1007500090E005C08230910539F483E090E09093F9
:10076000EB018093EA0113C0039719F484E090E051
:10077000F6CF1092EB011092EA010E9442026093C0
:10078000EC017093ED018093EE019093EF01809165
:10079000F80185FF4AC08091EA019091EB01813018
:1007A000910559F4809170018F5F809370018931B8
:1007B000E0F181E08093700108958230910551F459
:1007C000809171018F5F809371018C3370F1109271
:1007D000710108958330910559F4809173018F5F01
:1007E000809373018D3008F181E080937301089547
:1007F0000497D9F4809174018F5F80937401282F3E
:100800003327E0917301E23019F48DE190E007C0E5
:10081000FF27EC59FE4F8081992787FD909582171D
:1008200093071CF481E0809374010895EF92FF9286
:100830000F931F938091F4019091F501A091F6011F
:10084000B091F7018093F0019093F101A093F20130
:10085000B093F3010E9442027B018C016093F4018A
:100860007093F5018093F6019093F7012091EC01CC
:100870003091ED014091EE015091EF016217730745
:1008800084079507A4F48091F0019091F101A09163
:10089000F201B091F301281B390B4A0B5B0B20933B
:1008A000EC013093ED014093EE015093EF01809104
:1008B000EC019091ED01A091EE01B091EF01885112
:1008C0009C4FAF4FBF4FE816F9060A071B070CF401
:1008D00045C08093EC019093ED01A093EE01B0939D
:1008E000EF01809172018F5F809372018C33B0F1C0
:1008F00010927201809171018F5F809371018C332E
:1009000068F110927101809170018F5F8093700186
:10091000893120F081E08093700120C08831F1F4AA
:10092000809174018F5F80937401992740917301C6
:10093000E42FFF27ED59FE4F2081332727FD309507
:10094000281739075CF491E090937401842F8F5F2E
:10095000809373018D3010F0909373018091F801B2
:1009600080FF08C081E090E09093EB018093EA0162
:10097000109272011F910F91FF90EF9008950E94C5
:1009800047028091EA019091EB01892B19F40E94B2
:10099000160402C00E949C030E9485020895CF9312
:1009A000DF93CDB7DEB721970FB6F894DEBF0FBE49
:1009B000CDBF81E085B98FE188B98EEF84B980EE33
:1009C00087B926B183B12F7199278170907055E056
:1009D000880F991F5A95E1F7282B2093FA010E945E
:1009E00042026093FC017093FD018093FE0190939D
:1009F000FF01CE0101960E944C014091750150917A
:100A00007601609177017091780180E092E00E9418
:100A10005D000E9442026093EC017093ED018093AF
:100A2000EE019093EF016093F0017093F1018093D8
:100A3000F2019093F3016093F4017093F5018093B8
:100A4000F6019093F70121960FB6F894DEBF0FBE22
:100A5000CDBFDF91CF910895CFEFD4E0DEBFCDBF02
:100A60000E94B4050E94CF040E94BF04FDCF6F5FB7
:100A70007F4F31F4019721F480E092E00E944C0115
:100A800008956FEF7FEF81E090E00E9437050895B1
:100A90001F920F920FB60F9211248F939F93AF93D3
:100AA000BF938091010290910202A0910302B09144
:100AB00004020196A11DB11D8093010290930202D0
:100AC000A0930302B0930402BF91AF919F918F91C5
:100AD0000F900FBE0F901F901895609101027091BA
:100AE0000202809103029091040227E0660F771FB3
:100AF000881F991F2A95D1F72DE730E040E050E09C
:100B00000E94F406CA01B9010895AF92BF92CF9234
:100B1000DF92EF92FF920F931F935B016C010E9493
:100B20006D057B018C010E946D056E197F09800B9C
:100B3000910B6A157B058C059D05A8F31F910F91FC
:100B4000FF90EF90DF90CF90BF90AF900895019706
:100B500051F0880F991F880F991F02972FB7F894AB
:100B60000197F1F72FBF0895789410920102109227
:100B70000202109203021092040284B5826084BDC6
:100B800084B5816084BD85B5826085BD85B5816091
:100B900085BDEEE6F0E0808181608083E1E8F0E0F1
:100BA000808182608083808181608083E0E8F0E0E2
:100BB000808181608083E1EBF0E0808184608083CC
:100BC000E0EBF0E0808181608083EAE7F0E0808103
:100BD0008460808380818260808380818160808363
:100BE0008081806880831092C10008955058192E2A
:100BF000C1D001D0A4C0BA17620773078407950754
:100C0000B1F188F40EF410940B2EBA2FA02D062EFD
:100C1000622F202D072E732F302D082E842F402D6C
:100C2000092E952F502DFF275523B9F0591B49F058
:100C3000573E98F0469537952795A795F0405395E0
:100C4000C9F776F0BA0F621F731F841F30F48795BF
:100C500077956795B795F040939517FA0F2E0895FD
:100C6000BF1BBB27BA0B620B730B840BF6CFDEF6F0
:100C7000ADC080D001D063C0552359F0992369F0ED
:100C80009F575F57951B33F442F4903811F49158F5
:100C900005C06DC091589F3F09F498C0BB2711242F
:100CA00062177307840730F4660F771F881FBB1F16
:100CB000915098F311D00F920FD00F920DD0A0E861
:100CC0002617370748071B0609F0A048BA2F602DE2
:100CD0007F918F9100240895A0E800246217730784
:100CE0008407B10528F0621B730B840BB1090A2A33
:100CF000660F771F881FBB1FA69581F7089597FB86
:100D000045D09F3738F0FEE9F91B982F872F762FB3
:100D10006B2F05C058C09695879577956795F150CC
:100D2000D0F73EF490958095709561957F4F8F4FE9
:100D30009F4F08959A95BB0F661F771F881F112438
:100D40009923A1F08823B2F79F3F59F0BB0F48F4D5
:100D500021F4002011F460FF04C06F5F7F4F8F4FBC
:100D60009F4F881F9795879597F908952CC09FEFFF
:100D700080EC0895052E092607FA440F551F5F3FA2
:100D800079F0AA27A51708F051E04795880F991F19
:100D90009F3F31F0BB27B91708F091E08795089580
:100DA0009F919F911124E3CF97FB880F991F9F3F3D
:100DB00031F0BB27B91708F091E0879508959F910E
:100DC0009F911124D4CF66277727882799270895E4
:100DD000991B79E004C0991F961708F0961B881F8D
:100DE0007A95C9F780950895A1E21A2EAA1BBB1B1C
:100DF000FD010DC0AA1FBB1FEE1FFF1FA217B307E7
:100E0000E407F50720F0A21BB30BE40BF50B661FFC
:100E1000771F881F991F1A9469F7609570958095C0
:100E200090959B01AC01BD01CF01089597FB092E60
:100E300005260ED057FD04D0D7DF0AD0001C38F4A9
:100E400050954095309521953F4F4F4F5F4F0895F6
:100E5000F6F790958095709561957F4F8F4F9F4FD6
:0E0E60000895EE0FFF1F0590F491E02D099408
:100E6E000102030405060708090A0B0C0D0E0F10EC
:100E7E002030405060708090A0E0A0A0A0E040C064
:100E8E004040E0E020E080E0E0206020E0A0A0E034
:100E9E002020E080E020E0E080E0A0E0E0202040A4
:100EAE0040E0A0E0A0E0E0A0E020E0004000400034
:100EBE000020408000000000000060600000000084
:100ECE00000060601F1C1F1E1F1E1F1F1E1F1E1FE7
:0A0EDE000C0000010100007042004A
:00000001FF
