:100000000C945C000C9484000C9484000C94840088
:100010000C9484000C9484000C9484000C94840050
:100020000C9484000C9484000C9484000C94840040
:100030000C9484000C9484000C9484000C94840030
:100040000C9428030C9484000C94A9050C9484004F
:100050000C9484000C9484000C9484000C94840010
:100060000C9484000C948400000024272A000025AE
:10007000282B000023262904040404040404040299
:100080000202020202030303030303010204081035
:100090002040800102040810200102040810200002
:1000A0000000070002010000030406000000000039
:1000B00000000000BE00800111241FBECFEFD4E07D
:1000C000DEBFCDBF11E0A0E0B1E0E4EAFCE002C099
:1000D00005900D92AA35B107D9F711E0AAE5B1E074
:1000E00001C01D92AF3EB107E1F710E0C8EBD0E0D0
:1000F00004C02297FE010E944C06C43BD107C9F7F9
:100100000E9479010C9450060C9400000F931F93E9
:10011000CF93DF93FC01EB018A01C90162E070E03B
:100120000E94E605CB0160914A0170914B01680F76
:10013000791F20914C0130914D01821B930B20E0DF
:100140006E177F070CF421E0E817F9070CF4226022
:100150006C177D070CF42460C817D9070CF42860CD
:10016000601771070CF42061081719070CF420625E
:10017000822FDF91CF911F910F9108950E948503E7
:1001800060935D0170935E0180935F0190936001C5
:100190000895CF92DF92EF92FF920F931F93082F53
:1001A0000E9485036B017C0180914E0190914F016B
:1001B000A0915001B091510120915D0130915E01FB
:1001C00040915F0150916001820F931FA41FB51FE2
:1001D0008C159D05AE05BF0508F03FC080915C0100
:1001E0008023182F10FF06C060E071E081E691E0E7
:1001F0000E94E80111FF06C06AE071E081E691E02B
:100200000E94E80112FF06C064E171E081E691E01E
:100210000E94E80113FF06C06EE171E081E691E003
:100220000E94E80114FF06C068E271E081E691E0F7
:100230000E94E80115FF06C062E371E081E691E0EB
:100240000E94E801009500935C01C0925D01D0928C
:100250005E01E0925F01F09260011F910F91FF90AB
:10026000EF90DF90CF900895CF92DF92EF92FF92C0
:100270000F931F9380915A010E9408046C01809192
:100280003E010E9408047C01809142010E94080402
:100290008C01809146010E9408049C01A801B701CD
:1002A000C6010E9486000E94C9001F910F91FF9015
:1002B000EF90DF90CF90089540E855E260E070E065
:1002C00081E691E00E94940160E080913C010E94EF
:1002D0007A0460E0809140010E947A0460E080919D
:1002E00044010E947A0460E0809148010E947A04EF
:1002F00008950E94CB030E945C010E943401FDCF4F
:1003000086E591E090936201809361010895862FC4
:100310000E94680508950E94A00508950E94810525
:1003200008950E9470050895CB01BA010E942F051F
:100330000895DC01ED91FC910190F081E02D09958B
:100340000895DC01ED91FC910190F081E02D09957B
:1003500008950F931F93CF93DF938C01EB0109C096
:100360002196D801ED91FC910190F081E02DC8011A
:10037000099568816623A1F7DF91CF911F910F91B5
:1003800008950F931F938C01DC01ED91FC91019076
:10039000F081E02D6DE00995D801ED91FC9101907F
:1003A000F081E02D6AE0C80109951F910F91089531
:1003B0000F931F938C01DC01ED91FC910190F08172
:1003C000E02D0995C8010E94C1011F910F91089568
:1003D0000F931F938C010E94A901C8010E94C101C3
:1003E0001F910F9108950F931F938C01DC01ED91E4
:1003F000FC910190F081E02D0995C8010E94C10196
:100400001F910F9108952F923F924F925F926F929A
:100410007F928F929F92AF92BF92CF92DF92EF9294
:10042000FF920F931F93DF93CF93CDB7DEB7A097C3
:100430000FB6F894DEBF0FBECDBF1C016A017B0171
:10044000411551056105710549F4DC01ED91FC91FF
:100450000190F081E02D60E3099554C0882499242F
:100460005401422E55246624772401E010E00C0F3D
:100470001D1F080D191DC701B601A30192010E949D
:10048000F905F80160830894811C911CA11CB11C22
:10049000C701B601A30192010E94F905C901DA0161
:1004A0006C017D01C114D104E104F104F1F681E095
:1004B000E82EF12CEC0EFD1EE80CF91C3E01089410
:1004C000611C711CD501C4010197A109B1096C011E
:1004D000C818D90814C0F601EE0DFF1D60816A30FE
:1004E00010F4605D01C0695CD101ED91FC91019057
:1004F000F081E02DC10109950894E108F1086E141E
:100500007F0449F7A0960FB6F894DEBF0FBECDBFAB
:10051000CF91DF911F910F91FF90EF90DF90CF90DF
:10052000BF90AF909F908F907F906F905F904F9013
:100530003F902F9008952AE00E94030208950F93A0
:100540001F938C010E949B02C8010E94C1011F9150
:100550000F910895AB0160E070E00E949B02089546
:100560000F931F938C01AB0160E070E00E949B022F
:10057000C8010E94C1011F910F910895EF92FF924F
:100580000F931F93CF93DF93EC017A018B0177FFD9
:100590000FC0E881F9810190F081E02D6DE20995AD
:1005A00010950095F094E094E11CF11C011D111DC3
:1005B0002AE0B801A701CE010E940302DF91CF918A
:1005C0001F910F91FF90EF9008950F931F938C014F
:1005D0000E94BE02C8010E94C1011F910F9108959F
:1005E000AB01662757FD6095762F0E94BE020895E5
:1005F0000F931F938C01AB01662757FD6095762FF3
:100600000E94BE02C8010E94C1011F910F9108956E
:10061000DC012115310541F4ED91FC910190F0814F
:10062000E02D642F099508952A30310519F40E94B0
:10063000BE0208950E94030208950F931F938C0138
:100640000E940803C8010E94C1011F910F910895E3
:100650001F920F920FB60F9211242F938F939F9397
:10066000AF93BF938091630190916401A091650164
:10067000B09166018050904CAF4FBF4F80936301A3
:1006800090936401A0936501B093660127C08091A7
:10069000630190916401A0916501B0916601805859
:1006A0009E43A040B0408093630190936401A09367
:1006B0006501B09366018091670190916801A091F6
:1006C0006901B0916A010196A11DB11D8093670176
:1006D00090936801A0936901B0936A0180916301CE
:1006E00090916401A0916501B091660181589E438B
:1006F000A040B04060F6BF91AF919F918F912F9134
:100700000F900FBE0F901F9018958FB7F8942091FF
:100710006701309168014091690150916A018FBF72
:10072000B901CA010895EF92FF920F931F937B01C5
:100730008C018FB7F89440916701509168016091E6
:10074000690170916A018FBF2FB7F894809167019A
:1007500090916801A0916901B0916A012FBF841B3B
:10076000950BA60BB70B8E159F05A007B10760F37D
:100770001F910F91FF90EF900895019759F0FC01A0
:10078000EE0FFF1FEE0FFF1F32978FB7F8943197D0
:10079000F1F78FBF0895789484B5826084BD84B5E5
:1007A000816084BD85B5826085BD85B5816085BD6C
:1007B000EEE6F0E0808181608083E1E8F0E0808116
:1007C00082608083808181608083E0E8F0E08081C6
:1007D00081608083E1EBF0E0808184608083E0EBE6
:1007E000F0E0808181608083EAE7F0E080818460CE
:1007F000808380818260808380818160808380812A
:10080000806880831092C1000895809358010895F4
:100810008F70909158019295990F990F907C982B19
:1008200090937C0080917A00806480937A0080911C
:100830007A0086FDFCCF2091780040917900942FBA
:1008400080E030E0282B392BC90108951F93CF9306
:10085000DF93182FEB0161E00E947A04E12FF0E0B2
:10086000E156FF4F8491833051F48091800080687D
:1008700080938000D0938900C093880037C0843073
:1008800051F480918000806280938000D0938B002F
:10089000C0938A002BC0813029F484B5806884BD60
:1008A000C7BD24C0823029F484B5806284BDC8BD30
:1008B0001DC0863041F48091B00080688093B00004
:1008C000C093B30013C0873041F48091B0008062C0
:1008D0008093B000C093B40009C0C038D10514F4AF
:1008E00060E001C061E0812F0E949804DF91CF9108
:1008F0001F910895282F30E0C90185579F4FFC01B3
:10090000949129583F4FF9018491882381F0E82F71
:10091000F0E0E859FF4FE491F0E0662329F480818C
:1009200090958923808308958081892B8083089501
:10093000482F50E0CA0181569F4FFC012491CA0103
:1009400085579F4FFC01949149585F4FFA013491AC
:100950003323C1F1222331F1233021F4809180002F
:100960008F7705C0243031F4809180008F7D809393
:10097000800018C0213019F484B58F7704C022306C
:1009800021F484B58F7D84BD0DC0263021F4809183
:10099000B0008F7705C0273029F48091B0008F7D9B
:1009A0008093B000E32FF0E0E359FF4FE491F0E0D3
:1009B000662329F48081909589238083089580811E
:1009C000892B80830895482F50E0CA0181569F4F9C
:1009D000FC012491CA0185579F4FFC01949149580D
:1009E0005F4FFA013491332319F420E030E035C031
:1009F000222331F1233021F4809180008F7705C0CC
:100A0000243031F4809180008F7D8093800018C065
:100A1000213019F484B58F7704C0223021F484B5D5
:100A20008F7D84BD0DC0263021F48091B0008F777A
:100A300005C0273029F48091B0008F7D8093B000ED
:100A4000E32FF0E0EE58FF4FE491F0E0808120E0EA
:100A500030E0892311F021E030E0C9010895EF92E0
:100A6000FF920F931F937B018C0122E030E040E066
:100A700050E00E941B06205C3D4B404F5F4FCA0177
:100A8000B901A80197010E941B06C901DA0101976B
:100A9000A109B109292F3A2F4B2F552747FD5A9508
:100AA0000196A11DB11D2093C50081508093C40003
:100AB000E1ECF0E0808180618083808188608083C8
:100AC0008081806880831F910F91FF90EF9008953F
:100AD000982F8091C00085FFFCCF9093C6000895A9
:100AE00080916B0190916C0180589F4F20916D0116
:100AF00030916E01821B930B60E870E00E94E60566
:100B0000089540916D0150916E0180916B0190911B
:100B10006C018417950719F42FEF3FEF0FC0FA010E
:100B2000E159FE4F2081CA01019660E870E00E9401
:100B3000E60590936E0180936D0130E0C901089540
:100B400080916D0190916E0190936C0180936B0187
:100B500008951F920F920FB60F9211242F933F9377
:100B60004F935F936F937F938F939F93AF93BF93B5
:100B7000EF93FF934091C600E0916B01F0916C01FF
:100B8000CF01019660E870E00E94E6059C0180912B
:100B90006D0190916E012817390739F0E159FE4F28
:100BA000408330936C0120936B01FF91EF91BF91D3
:100BB000AF919F918F917F916F915F914F913F91F5
:100BC0002F910F900FBE0F901F90189597FB092E35
:100BD00007260AD077FD04D049D006D000201AF4A9
:100BE000709561957F4F0895F6F7909581959F4F89
:100BF0000895A1E21A2EAA1BBB1BFD010DC0AA1F5E
:100C0000BB1FEE1FFF1FA217B307E407F50720F075
:100C1000A21BB30BE40BF50B661F771F881F991FF0
:100C20001A9469F760957095809590959B01AC0139
:100C3000BD01CF01089597FB092E05260ED057FD63
:100C400004D0D7DF0AD0001C38F450954095309579
:100C500021953F4F4F4F5F4F0895F6F79095809540
:100C6000709561957F4F8F4F9F4F0895AA1BBB1BB7
:100C700051E107C0AA1FBB1FA617B70710F0A61B9C
:100C8000B70B881F991F5A95A9F780959095BC01BD
:100C9000CD010895EE0FFF1F0590F491E02D09940A
:040CA000F894FFCFF6
:100CA400706F73697469766558006E6567617469FD
:100CB40076655800706F73697469766559006E655E
:100CC4006761746976655900706F736974697665D4
:100CD4005A006E656761746976655A000E000100FA
:100CE4000F000200100005001300640064003200CD
:0A0CF400000000000000870101006D
:00000001FF
