:100000000C94100C0C94360C0C94360C0C94DA0EE8
:100010000C94360C0C94B20E0C94360C0C94360CDA
:100020000C94360C0C94360C0C94360C0C94360C48
:100030000C94360C0C94360C0C94360C0C94360C38
:100040000C949B140C94360C0C94EC160C94360CFB
:100050000C94360C0C94360C0C94360C0C94360C18
:100060000C94360C0C94360C170ECE139A14223EB8
:10007000266E6273703B3C696E7075742074797083
:10008000653D2274657874222049443D2273616D78
:10009000706C655F31222073697A653D22312220C0
:1000A00076616C75653D22223E203C696E707574E8
:1000B00020747970653D227375626D6974222076B3
:1000C000616C75653D225375626D6974223E203CFA
:1000D0002F666F726D3E3C2F63656E7465723E3C99
:1000E0002F626F64793E3C2F68746D6C3E003C70EB
:1000F0003E3C68313E41726475696E6F205765629F
:100100007365727665723A204C454420636F6C6F5C
:1001100072207069636B6572213C2F68313E3C70C0
:100120003E3C703E3C63656E7465723E3C6469762D
:100130002069643D22636F6C6F727069636B6572D6
:100140003230312220636C6173733D22636F6C6FB8
:10015000727069636B6572323031223E3C2F646984
:10016000763E203C666F726D206E616D653D226942
:100170006E7075742220616374696F6E3D22222057
:100180006D6574686F643D22676574223E20506916
:10019000636B204C454420436F6C6F723A203C697E
:1001A0006E70757420747970653D22627574746F19
:1001B0006E22206F6E636C69636B3D2273686F778C
:1001C000436F6C6F7247726964322827696E70756D
:1001D000745F6669656C645F31272C2773616D708D
:1001E0006C655F3127293B222076616C75653D2265
:1001F0002E2E2E223E266E6273703B3C696E707509
:100200007420747970653D227465787422204944A5
:100210003D22696E7075745F6669656C645F31223A
:100220002073697A653D223922206E616D653D2219
:10023000636F6C6F72222076616C75653D22003CA5
:1002400073637269707420747970653D2274657887
:10025000742F6A617661736372697074223E667589
:100260006E6374696F6E206765745363726F6C6C34
:100270005928297B766172207363724F6658203D3E
:1002800020302C7363724F66593D303B6966287489
:100290007970656F662877696E646F772E70616715
:1002A00065594F6666736574293D3D276E756D62AD
:1002B000657227297B7363724F66593D77696E6457
:1002C0006F772E70616765594F66667365743B730F
:1002D00063724F66583D77696E646F772E70616701
:1002E00065584F66667365743B7D656C7365206900
:1002F0006628646F63756D656E742E626F6479260F
:100300002628646F63756D656E742E626F64792E36
:100310007363726F6C6C4C6566747C7C646F637520
:100320006D656E742E626F64792E7363726F6C6C80
:10033000546F7029297B7363724F66593D646F63F4
:10034000756D656E742E626F64792E7363726F6C57
:100350006C546F703B7363724F66583D646F637586
:100360006D656E742E626F64792E7363726F6C6C40
:100370004C6566743B7D656C736520696628646FA7
:1003800063756D656E742E646F63756D656E74450F
:100390006C656D656E74262628646F63756D656E79
:1003A000742E646F63756D656E74456C656D656EF6
:1003B000742E7363726F6C6C4C6566747C7C646FB6
:1003C00063756D656E742E646F63756D656E7445CF
:1003D0006C656D656E742E7363726F6C6C546F70A8
:1003E00029297B7363724F66593D646F63756D6530
:1003F0006E742E646F63756D656E74456C656D65A6
:100400006E742E7363726F6C6C546F703B73637297
:100410004F66583D646F63756D656E742E646F63CF
:10042000756D656E74456C656D656E742E73637263
:100430006F6C6C4C6566743B7D72657475726E2072
:100440007363724F66593B7D646F63756D656E743F
:100450002E777269746528223C7374796C652074F8
:100460007970653D27746578742F637373273E2E0A
:10047000636F6C6F727069636B65723230317B765B
:1004800069736962696C6974793A68696464656EF4
:100490003B646973706C61793A6E6F6E653B706F27
:1004A000736974696F6E3A6162736F6C7574653BE2
:1004B0006261636B67726F756E643A234646463BB2
:1004C000626F726465723A736F6C69642031707820
:1004D00020234343433B70616464696E673A347020
:1004E000783B7A2D696E6465783A3939393B6669AB
:1004F0006C7465723A70726F6769643A4458496DFA
:100500006167655472616E73666F726D2E4D6963BB
:10051000726F736F66742E536861646F7728636FB0
:100520006C6F723D234430443044302C64697265F2
:100530006374696F6E3D313335293B7D2E6F3535E0
:1005400038326272647B70616464696E673A303B12
:1005500077696474683A313270783B6865696768B6
:10056000743A313470783B626F726465722D626FD9
:1005700074746F6D3A736F6C6964203170782023E6
:100580004446444644463B626F726465722D72690C
:100590006768743A736F6C69642031707820234403
:1005A00046444644463B7D612E6F353538326E36C3
:1005B000362C2E6F353538326E36362C2E6F35355B
:1005C00038326E3636617B666F6E742D66616D698A
:1005D0006C793A617269616C2C7461686F6D612C21
:1005E00073616E732D73657269663B746578742DE3
:1005F0006465636F726174696F6E3A756E6465727B
:100600006C696E653B666F6E742D73697A653A39F5
:1006100070783B636F6C6F723A233636363B626F8D
:10062000726465723A6E6F6E653B7D2E6F3535383C
:10063000326E36362C2E6F353538326E3636617B5B
:10064000746578742D616C69676E3A63656E746564
:10065000723B746578742D6465636F726174696F41
:100660006E3A6E6F6E653B7D613A686F7665722E8D
:100670006F353538326E36367B746578742D646527
:10068000636F726174696F6E3A6E6F6E653B636F14
:100690006C6F723A234646413530303B6375727356
:1006A0006F723A706F696E7465723B7D2E61303186
:1006B00070337B70616464696E673A31707820349E
:1006C000707820317078203270783B6261636B679C
:1006D000726F756E643A7768697465736D6F6B6578
:1006E0003B626F726465723A736F6C69642031703B
:1006F0007820234446444644463B7D3C2F7374791E
:100700006C653E22293B66756E6374696F6E206767
:100710006574546F703228297B6373427248743D4C
:10072000303B696628747970656F662877696E64F6
:100730006F772E696E6E65725769647468293D3DE6
:10074000276E756D62657227297B637342724874E8
:100750003D77696E646F772E696E6E657248656964
:100760006768743B7D656C736520696628646F6398
:10077000756D656E742E646F63756D656E74456C12
:10078000656D656E74262628646F63756D656E747D
:100790002E646F63756D656E74456C656D656E7402
:1007A0002E636C69656E7457696474687C7C646FD1
:1007B00063756D656E742E646F63756D656E7445DB
:1007C0006C656D656E742E636C69656E74486569E1
:1007D00067687429297B6373427248743D646F6350
:1007E000756D656E742E646F63756D656E74456CA2
:1007F000656D656E742E636C69656E7448656967B6
:1008000068743B7D656C736520696628646F6375E9
:100810006D656E742E626F6479262628646F637529
:100820006D656E742E626F64792E636C69656E748B
:1008300057696474687C7C646F63756D656E742E33
:10084000626F64792E636C69656E74486569676868
:100850007429297B6373427248743D646F63756DBC
:10086000656E742E626F64792E636C69656E744870
:1008700065696768743B7D63746F703D2828637396
:10088000427248742F32292D313135292B67657416
:100890005363726F6C6C5928293B72657475726E64
:1008A0002063746F703B7D766172206E6F636F6C36
:1008B000313D22262337383B262337393B26233345
:1008C000323B262336373B262337393B2623373620
:1008D0003B262337393B262338323B222C636C6F6F
:1008E00073313D22262336373B262337363B2623DA
:1008F00037393B262338333B262336393B222C74A9
:1009000074323D22262337303B262338323B2623C0
:1009100036393B262336393B262334353B262336CE
:10092000373B262337393B262337363B26233739B7
:100930003B262338323B262334353B262338303BB5
:10094000262337333B262336373B262337353B26B2
:100950002336393B262338323B262334363B2623A5
:1009600036373B262337393B262337373B222C6843
:100970006D323D2226233130343B26233131363B44
:1009800026233131363B26233131323B262335387D
:100990003B262334373B262334373B26233131395A
:1009A0003B26233131393B26233131393B26233451
:1009B000363B223B686D322B3D7474323B7474328B
:1009C0003D22262338303B262337393B2623383730
:1009D0003B262336393B262338323B262336393B08
:1009E000262336383B262333323B262339383B2611
:1009F000233132313B262333323B262337303B260B
:100A00002336373B262338303B223B66756E6374B2
:100A1000696F6E206765744C6566743228297B7631
:100A20006172206373427257743D303B696628746B
:100A30007970656F662877696E646F772E696E6E60
:100A400065725769647468293D3D276E756D6265EE
:100A50007227297B6373427257743D77696E646FA6
:100A6000772E696E6E657257696474683B7D656C3C
:100A7000736520696628646F63756D656E742E6496
:100A80006F63756D656E74456C656D656E74262655
:100A900028646F63756D656E742E646F63756D6524
:100AA0006E74456C656D656E742E636C69656E74ED
:100AB00057696474687C7C646F63756D656E742EB1
:100AC000646F63756D656E74456C656D656E742ECF
:100AD000636C69656E7448656967687429297B630E
:100AE00073427257743D646F63756D656E742E64E6
:100AF0006F63756D656E74456C656D656E742E63A0
:100B00006C69656E7457696474683B7D656C736568
:100B100020696628646F63756D656E742E626F64FC
:100B200079262628646F63756D656E742E626F6416
:100B3000792E636C69656E7457696474687C7C6433
:100B40006F63756D656E742E626F64792E636C6968
:100B5000656E7448656967687429297B637342729E
:100B600057743D646F63756D656E742E626F647942
:100B70002E636C69656E7457696474683B7D636C41
:100B80006566743D286373427257742F32292D3184
:100B900032353B72657475726E20636C6566743BAA
:100BA0007D66756E6374696F6E207365744343620E
:100BB0006C64494432286F626A49442C76616C291E
:100BC0007B646F63756D656E742E676574456C65C7
:100BD0006D656E7442794964286F626A4944292EB2
:100BE00076616C75653D76616C3B7D66756E637490
:100BF000696F6E207365744343626C645374793219
:100C0000286F626A49442C70726F702C76616C296F
:100C10007B7377697463682870726F70297B636176
:100C2000736520226263223A6966286F626A4944CA
:100C3000213D276E6F6E6527297B646F63756D6537
:100C40006E742E676574456C656D656E7442794986
:100C500064286F626A4944292E7374796C652E6228
:100C600061636B67726F756E64436F6C6F723D7614
:100C7000616C3B7D3B627265616B3B6361736520B8
:100C8000227673223A646F63756D656E742E6765A4
:100C900074456C656D656E7442794964286F626A4B
:100CA0004944292E7374796C652E7669736962697B
:100CB0006C6974793D76616C3B627265616B3B6314
:100CC00061736520226473223A646F63756D656E8B
:100CD000742E676574456C656D656E744279496400
:100CE000286F626A4944292E7374796C652E646991
:100CF00073706C61793D76616C3B627265616B3BD0
:100D00006361736520227470223A646F63756D6548
:100D10006E742E676574456C656D656E74427949B5
:100D200064286F626A4944292E7374796C652E7445
:100D30006F703D76616C3B627265616B3B636173A2
:100D40006520226C66223A646F63756D656E742E41
:100D5000676574456C656D656E7442794964286F8A
:100D6000626A4944292E7374796C652E6C656674C9
:100D70003D76616C3B627265616B3B7D7D66756E35
:100D80006374696F6E207075744F424A78436F6C5C
:100D90006F7232284F426A456C656D2C53616D70DD
:100DA0002C7069674D656E74297B69662870696768
:100DB0004D656E74213D277827297B736574434305
:100DC000626C64494432284F426A456C656D2C70F0
:100DD00069674D656E74293B7365744343626C6447
:100DE000537479322853616D702C276263272C70FD
:100DF00069674D656E74293B7D7365744343626C0E
:100E000064537479322827636F6C6F727069636BF7
:100E10006572323031272C277673272C2768696456
:100E200064656E27293B7365744343626C64537435
:100E300079322827636F6C6F727069636B657232E9
:100E40003031272C276473272C276E6F6E65272976
:100E50003B7D66756E6374696F6E2073686F774350
:100E60006F6C6F724772696432284F426A456C65D5
:100E70006D2C53616D297B766172206F626A583DDB
:100E80006E657720417272617928273030272C27D0
:100E90003333272C273636272C273939272C27435D
:100EA00043272C27464627293B76617220633D3035
:100EB0003B766172207A3D2722272B4F426A456C90
:100EC000656D2B27222C22272B53616D2B27222C7B
:100ED0002222273B76617220786C3D2722272B4FF8
:100EE000426A456C656D2B27222C22272B53616D9E
:100EF0002B27222C227822273B766172206D696491
:100F00003D27273B6D69642B3D273C7461626C650E
:100F1000206267636F6C6F723D22234646464646E9
:100F2000462220626F726465723D22302220636522
:100F30006C6C70616464696E673D22302220636569
:100F40006C6C73706163696E673D2230222073742C
:100F5000796C653D22626F726465723A736F6C6979
:100F6000642030707820234630463046303B706134
:100F70006464696E673A3270783B223E3C74723E1C
:100F8000273B6D69642B3D223C746420636F6C7356
:100F900070616E3D2731382720616C69676E3D278F
:100FA0006C65667427207374796C653D27666F6E77
:100FB000742D73697A653A313070783B6261636B86
:100FC00067726F756E643A233636363643433B6339
:100FD0006F6C6F723A234646463B666F6E742D66A1
:100FE000616D696C793A617269616C3B273E266E6E
:100FF0006273703B4368726F6D61746963205365FF
:101000006C656374696F6E2050616C657474653CC7
:101010002F74643E3C2F74723E3C74723E3C746488
:1010200020636F6C7370616E3D2731382720616CCF
:1010300069676E3D2763656E7465722720737479E6
:101040006C653D276D617267696E3A303B70616413
:1010500064696E673A3270783B6865696768743AAC
:10106000313270783B27203E3C696E707574206386
:101070006C6173733D276F353538326E36362720F5
:10108000747970653D2774657874272073697A6573
:101090003D273132272069643D276F353538326E60
:1010A0003636272076616C75653D272346464646D1
:1010B0004646273E3C696E70757420636C6173739D
:1010C0003D276F353538326E36366127207479709A
:1010D000653D2774657874272073697A653D2732EA
:1010E00027207374796C653D2777696474683A3199
:1010F0003470783B272069643D276F353538326E70
:1011000036366127206F6E636C69636B3D276A61B9
:1011100076617363726970743A616C657274285C8D
:1011200022636C69636B206F6E2073656C656374FA
:101130006564207377617463682062656C6F772ED5
:101140002E2E5C22293B272076616C75653D272772
:10115000207374796C653D27626F726465723A73AF
:101160006F6C69642031707820233636363B273E19
:10117000266E6273703B7C266E6273703B3C61200E
:10118000636C6173733D276F353538326E363627A1
:1011900020687265663D276A617661736372697063
:1011A000743A6F6E636C69636B3D7075744F424A3D
:1011B00078436F6C6F723228222B7A2B2229273EBC
:1011C0003C7370616E20636C6173733D27613031D5
:1011D0007033273E222B6E6F636F6C312B223C2FB6
:1011E0007370616E3E3C2F613E266E6273703B26CB
:1011F0006E6273703B266E6273703B266E62737014
:101200003B3C6120636C6173733D276F3535383229
:101210006E36362720687265663D276A617661738F
:1012200063726970743A6F6E636C69636B3D70755D
:10123000744F424A78436F6C6F723228222B786C5D
:101240002B2229273E3C7370616E20636C6173739F
:101250003D276130317033273E222B636C6F733131
:101260002B223C2F7370616E3E3C2F613E3C2F74ED
:10127000643E3C2F74723E3C74723E223B76617237
:101280002062723D313B666F72286F3D303B6F3C90
:10129000363B6F2B2B297B6D69642B3D273C2F74CC
:1012A000723E3C74723E273B666F7228793D303B3C
:1012B000793C363B792B2B297B696628793D3D3378
:1012C000297B6D69642B3D273C2F74723E3C747200
:1012D0003E273B7D666F7228783D303B783C363B3D
:1012E000782B2B297B76617220677269643D2727F2
:1012F0003B677269643D6F626A585B6F5D2B6F621A
:101300006A585B795D2B6F626A585B785D3B7661EA
:101310007220623D2227222B4F426A456C656D2B5D
:1013200022272C2027222B53616D2B22272C2723A9
:10133000222B677269642B2227223B6D69642B3D47
:10134000273C746420636C6173733D226F353538BC
:101350003262726422207374796C653D226261632B
:101360006B67726F756E642D636F6C6F723A2327B3
:101370002B677269642B27223E3C6120636C61738A
:10138000733D226F353538326E3636222020687232
:1013900065663D226A6176617363726970743A6F43
:1013A0006E636C69636B3D7075744F424A78436F2E
:1013B0006C6F723228272B622B27293B22206F6EFD
:1013C0006D6F7573656F7665723D6A617661736383
:1013D000726970743A646F63756D656E742E6765BB
:1013E00074456C656D656E744279496428226F3569
:1013F0003538326E363622292E76616C75653D227F
:1014000023272B677269642B27223B6A61766173FD
:1014100063726970743A646F63756D656E742E677C
:101420006574456C656D656E744279496428226FF8
:10143000353538326E36366122292E7374796C65F3
:101440002E6261636B67726F756E64436F6C6F724F
:101450003D2223272B677269642B27223B202074AF
:1014600069746C653D2223272B677269642B2722E0
:101470003E3C646976207374796C653D22776964BB
:1014800074683A313270783B6865696768743A31DC
:101490003470783B223E3C2F6469763E3C2F613E9F
:1014A0003C2F74643E273B632B2B3B7D7D7D6D6918
:1014B000642B3D223C2F74723E3C74723E3C74643B
:1014C00020636F6C7370616E3D2731382720616C2B
:1014D00069676E3D27726967687427207374796C39
:1014E000653D2770616464696E673A3270783B626B
:1014F0006F726465723A736F6C6964203170782022
:10150000234646463B6261636B67726F756E643A51
:10151000234646463B273E3C6120687265663D2770
:10152000222B686D322B2227207374796C653D273E
:10153000636F6C6F723A233636363B666F6E742D6E
:1015400073697A653A3870783B666F6E742D6661A0
:101550006D696C793A617269616C3B746578742D60
:101560006465636F726174696F6E3A6E6F6E653B2E
:101570006C65747465722D73706163696E673A315E
:1015800070783B273E222B7474322B223C2F613E15
:101590003C2F74643E3C2F74723E3C2F7461626C2D
:1015A000653E223B7661722074746F703D6765748E
:1015B000546F703228293B7365744343626C6453E3
:1015C0007479322827636F6C6F727069636B657210
:1015D000323031272C277470272C74746F70293B9C
:1015E000646F63756D656E742E676574456C656DAB
:1015F000656E74427949642827636F6C6F727069F5
:10160000636B657232303127292E7374796C652EC5
:101610006C6566743D6765744C6566743228293B59
:101620007365744343626C64537479322827636F23
:101630006C6F727069636B6572323031272C27765C
:1016400073272C2776697369626C6527293B73655C
:10165000744343626C64537479322827636F6C6FF0
:10166000727069636B6572323031272C276473277F
:101670002C27626C6F636B27293B646F63756D6504
:101680006E742E676574456C656D656E744279493C
:10169000642827636F6C6F727069636B6572323098
:1016A0003127292E696E6E657248544D4C3D6D6927
:1016B000643B7D3C2F7363726970743E003C6874B8
:1016C0006D6C3E3C686561643E3C7469746C653E5B
:1016D00058506F727420436F6C6F72207069636B27
:1016E00065723C2F7469746C653E3C2F686561645B
:1016F0003E203C626F64793E00485454502F312E96
:101700003020323030204F4B0A5365727665723A82
:101710002061726475696E6F0A436F6E74656E74D2
:101720002D547970653A20746578742F68746D6CE7
:101730000A0A00485454502F312E312034303420BE
:101740004E6F7420466F756E640A536572766572CB
:101750003A2061726475696E6F0A436F6E74656ECC
:10176000742D547970653A20746578742F68746D9F
:101770006C0A0A3C68746D6C3E3C686561643E3C72
:101780007469746C653E3430343C2F7469746C65D4
:101790003E3C2F686561643E3C626F64793E3C6804
:1017A000313E3430343A20536F7272792C20746891
:1017B000617420706167652063616E6E6F74206272
:1017C0006520666F756E64213C2F68313E3C2F6248
:1017D0006F64793E0000000007000201000003046E
:1017E0000600000000000000000102040810204074
:1017F00080010204081020010204081020040404DF
:1018000004040404040202020202020303030303A9
:10181000030000232629000025282B000024272A66
:1018200011241FBECFEFD4E0DEBFCDBF11E0A0E09A
:10183000B1E0E2E3F1E302C005900D92A43CB107F0
:10184000D9F713E0A4ECB1E001C01D92AF31B107AC
:10185000E1F710E0CEE6D0E004C02297FE010E943E
:101860008118C836D107C9F70C94AC130C9400004A
:10187000CF92EF920F93CF93DF93EC01688349836C
:101880002A83222341F061E0822F0E94C01561E08B
:101890008A810E9427160B83EC82CD82CC2041F0F6
:1018A00061E08C2D0E94271661E08D810E94C01599
:1018B000DF91CF910F91EF90CF900895CF92EF925B
:1018C0000F93CF93DF93EC01688349832A8322230C
:1018D00041F061E0822F0E94C01561E08A810E9480
:1018E00027160B83EC82CD82CC2041F061E08C2D59
:1018F0000E94271661E08D810E94C015DF91CF9173
:101900000F91EF90CF900895AF92BF92CF92DF9258
:10191000EF92FF920F931F938C016B0184ECA82E22
:1019200081E0B82EF8016081C5010E94390EF801EE
:101930006181C5010E943C0EEE24FF24B701A6017F
:10194000C5010E94030F1F910F91FF90EF90DF9050
:10195000CF90BF90AF900895FC018381882319F444
:1019600020E030E004C00E94DE15282F3327C90193
:101970000895EF92FF920F931F93CF93DF938C0103
:101980007B01C0E0D0E01CC084EC91E00E94580EC6
:10199000F8019581882339F09923D1F061E0892FEE
:1019A0000E94271615C0992321F060E0892F0E941C
:1019B000271661E070E080E090E00E94D814219644
:1019C000CE15DF0509F7F8018581882321F406C0CB
:1019D00081E090E005C061E00E94271680E090E081
:1019E000DF91CF911F910F91FF90EF900895AF92EB
:1019F000BF92CF92DF92EF92FF920F931F938C01D1
:101A00007B0159016A0163E484EC91E00E943E107D
:101A1000B70184EC91E00E9466116FE284EC91E0E2
:101A20000E943E10B601A50184EC91E00E942D11A8
:101A300068EB7BE0C8010E94B90C882319F482E0AE
:101A400090E00BC084EC91E00E943F0E833419F0CB
:101A500083E090E002C080E090E01F910F91FF9042
:101A6000EF90DF90CF90BF90AF900895CF93DF932A
:101A7000EC018A81882369F060E00E94271662E306
:101A800070E080E090E00E94D81461E08A810E94BA
:101A9000271668E873E1CE010E94B90C882319F477
:101AA00082E090E00BC084EC91E00E943F0E843411
:101AB00019F083E090E002C080E090E0DF91CF91E8
:101AC00008956F927F928F929F92AF92BF92CF9222
:101AD000DF92EF92FF920F931F93CF93DF933C011E
:101AE0004B01042F5901CC24DD2418C0E12EFF2422
:101AF000E401CE0DDF1D1882B501C3010E94B90CAF
:101B0000882379F084EC91E00E943F0E0894C11C78
:101B1000D11C8A3011F4C70106C088831C2DC01661
:101B200028F3812F9927DF91CF911F910F91FF907B
:101B3000EF90DF90CF90BF90AF909F908F907F906D
:101B40006F9008950F931F93CF93DF938C01EB0158
:101B500004C084EC91E00E943F0EBE01C8010E94C7
:101B6000B90C8823B1F7DF91CF911F910F910895A0
:101B70000895CF93DF93FB0105C084EC91E00E94B0
:101B8000E50FFE016491EF0121966623B1F7DF9125
:101B9000CF91089584EC91E00E94E50F089584ECC4
:101BA00091E00E946611089584EC91E00E943E103D
:101BB000089584EC91E00E94D610089584EC91E0A1
:101BC0000E940A11089584EC91E00E943811089552
:101BD00084EC91E00E94DC10089584EC91E00E9476
:101BE0007911089584EC91E00E94F410089584EC3A
:101BF00091E00E945B11089584EC91E00E942D1108
:101C0000089584EC91E00E94E910089584EC91E03D
:101C10000E94481108956F5F7F4F41F4019731F49E
:101C200040E060E084EC91E00E942F0E08956FEF99
:101C30007FEF81E090E00E940B0E089520E0019775
:101C40002FEF8F3F9207D9F70895FC0160930C02A4
:101C50004093CA0110821182128213820895FC01FE
:101C600060930C024093CA01108211821282138287
:101C700008956093CA01089560930C02089520911D
:101C8000CB01222319F48FEF9FEF08959091CC019F
:101C900030E0E32FFF27E453FE4F818180833F5FD5
:101CA0003217B9F721502093CB01892F9927089536
:101CB0008091CB01992708950F931F93CF93DF93C2
:101CC00080910C020E94DE15892B09F046C080919C
:101CD000C8019091C901089720E001972FEF8F3F2D
:101CE0009207D9F700E0C0E0D0E08091C801909160
:101CF000C901880F991F069710E0212F01972FEF38
:101D00008F3F9207D9F780910C020E94DE15892B34
:101D100049F081E090E00C2E02C0880F991F0A94D0
:101D2000E2F7082B2196C830D105F9F68091C80159
:101D30009091C901880F991F01971FEF8F3F91075D
:101D4000D9F78091CB01803440F4E82FFF27E4538A
:101D5000FE4F00838F5F8093CB01DF91CF911F9166
:101D60000F9108951F920F920FB60F9211242F9387
:101D70003F934F935F936F937F938F939F93AF9313
:101D8000BF93EF93FF9380910C02883010F40E9470
:101D90005C0EFF91EF91BF91AF919F918F917F91D9
:101DA0006F915F914F913F912F910F900FBE0F90C8
:101DB0001F9018951F920F920FB60F9211242F9318
:101DC0003F934F935F936F937F938F939F93AF93C3
:101DD000BF93EF93FF9380910C028850863010F4EC
:101DE0000E945C0EFF91EF91BF91AF919F918F91F7
:101DF0007F916F915F914F913F912F910F900FBE07
:101E00000F901F901895CF92DF92EF92FF920F9351
:101E10001F938C016A017B0161E08091CA010E94DD
:101E2000C01561E08091CA010E94271660E0809190
:101E30000C020E94C01561E080910C020E942716DE
:101E4000F801C082D182E282F382F0E0CF16FBE497
:101E5000DF06F0E0EF06F0E0FF0609F466C081E07F
:101E6000C8168BE4D80680E0E80680E0F806FCF4AB
:101E7000E0ECCE16E2E1DE06E0E0EE06E0E0FE0693
:101E800009F459C0F0E8CF16F5E2DF06F0E0EF06FE
:101E9000F0E0FF0609F44CC080E6C81689E0D806D9
:101EA00080E0E80680E0F80609F04BC047C0E0E0BB
:101EB000CE16E6E9DE06E0E0EE06E0E0FE0679F1A9
:101EC000F1E0CF16F6E9DF06F0E0EF06F0E0FF06FE
:101ED00054F482E1C8168AE7D80680E0E80680E07C
:101EE000F80679F51FC0E0E0CE16E1EEDE06E0E090
:101EF000EE06E0E0FE0661F0F0E0CF16F2ECDF0661
:101F0000F1E0EF06F0E0FF06E1F484E090E002C0CB
:101F10008EE090E09093C9018093C80116C088E1DB
:101F200090E0F8CF8FE190E0F5CF86E390E0F2CF3C
:101F300081E790E0EFCF88EE90E0ECCF86ED91E086
:101F4000E9CF1092C9011092C80190910C0298300B
:101F500090F480916D0021E030E002C0220F331F29
:101F60009A95E2F7822B80936D00809168008460DF
:101F70008093680017C09E30A8F48091680081604B
:101F80008093680040916B00292F33272850304000
:101F900081E090E002C0880F991F2A95E2F7482B54
:101FA00040936B008091C8019091C901880F991FDF
:101FB00020E001972FEF8F3F9207D9F71F910F91E4
:101FC000FF90EF90DF90CF9008950F931F93CF93E2
:101FD000DF93FC01062F80819181A281B38100975C
:101FE000A105B10509F445C0F89460E08091CA01EB
:101FF0000E9427168091C8019091C901880F991FEE
:1020000020E001972FEF8F3F9207D9F711E0C8E04A
:10201000D0E0802F9927212F332782239323892BE8
:1020200011F061E001C060E08091CA010E942716B2
:102030008091C8019091C901880F991F20E00197F4
:102040002FEF8F3F9207D9F7110F219711F761E01A
:102050008091CA010E94271678948091C8019091BE
:10206000C901880F991F20E001972FEF8F3F92073A
:10207000D9F7DF91CF911F910F9108950E94E50F3D
:1020800008952F923F924F925F926F927F928F921C
:102090009F92AF92BF92CF92DF92EF92FF920F93F7
:1020A0001F93CF93DF93CDB7DEB7A2970FB6F89407
:1020B000DEBF0FBECDBF9AA389A36A017B01411584
:1020C00051056105710521F460E30E943E1051C085
:1020D000442455243201822E9924AA24BB241E01B3
:1020E0000894211C311C8101040D151DC701B60186
:1020F000A50194010E942E18F80160830894411CE8
:10210000511C611C711CC701B601A50194010E94FC
:102110002E1869017A01211531054105510519F77C
:1021200072010894E108F108E20CF31CAA24BB2414
:10213000650113C0F70160816A3010F4605D01C071
:10214000695C89A19AA10E943E100894A108B10877
:10215000C108D1080894E108F10888279927DC0113
:1021600084199509A609B709A816B906CA06DB0697
:1021700009F7A2960FB6F894DEBF0FBECDBFDF9170
:10218000CF911F910F91FF90EF90DF90CF90BF9074
:10219000AF909F908F907F906F905F904F903F9007
:1021A0002F9008952AE00E9441100895AB01662700
:1021B00077270E94D21008950F931F938C016DE032
:1021C0000E943E106AE0C8010E943E101F910F91CC
:1021D00008950F931F938C010E94D210C8010E9492
:1021E000DC101F910F9108950F931F938C010E9493
:1021F000E50FC8010E94DC101F910F9108950F9305
:102200001F938C010E943E10C8010E94DC101F9198
:102210000F910895EF92FF920F931F93CF93DF9347
:10222000EC017A018B0177FF0BC06DE20E943E103A
:1022300010950095F094E094E11CF11C011D111D16
:102240002AE0B801A701CE010E944110DF91CF9191
:102250001F910F91FF90EF9008950F931F938C01A2
:102260000E940A11C8010E94DC101F910F9108956D
:102270002115310521F4642F0E943E1008952A3063
:10228000310519F40E940A1108950E944110089521
:102290000F931F938C010E943811C8010E94DC101B
:1022A0001F910F910895AB01662757FD6095762F1A
:1022B0000E940A1108950F931F938C010E945311DD
:1022C000C8010E94DC101F910F9108950F931F9376
:1022D000CF93DF938C01EB0104C02196C8010E94CB
:1022E0003E1068816623C9F7DF91CF911F910F914E
:1022F00008950F931F938C010E946611C8010E94DC
:10230000DC101F910F910895DB010E948518802D2C
:1023100099270895DB01042E0E948D180895EF92ED
:10232000FF920F931F9361E08BE00E94C01561E064
:102330008AE00E94C01561E089E00E94C0150DE0AE
:1023400012E061E070E0C8010E9484119927BC018D
:102350008BE00E946C1562E070E0C8010E9484115D
:102360009927BC018AE00E946C1563E070E0C80107
:102370000E9484119927BC0189E00E946C1586E9AE
:10238000E82E82E0F82E40E051EE60E070E0C701F8
:102390000E94D71360E071E0C7010E940A140EE0AA
:1023A00012E060E071EEC8010E94840CC8010E9436
:1023B000360D62E171E0C7010E940A141F910F916E
:1023C000FF90EF90089528EC30E040E866E172E07D
:1023D0008EE092E00E94610D882309F166E172E0CF
:1023E00086E992E00E940A146EE171E086E192E0D3
:1023F0000E94FE17892BB1F465E271E086E192E05C
:102400000E94FE17892B71F46CE271E086E192E084
:102410000E94FE17892BB9F284E991E0089580E0CB
:1024200090E0089588EC90E008951F9363E28EE0B9
:1024300092E00E94D40D61E070E08DE092E00E9495
:102440008411182F1095113128F460E38EE092E08A
:102450000E94D40D412F55276627772720E130E0D1
:102460008EE092E00E94E30D62E070E08DE092E089
:102470000E948411182F1095113128F460E38EE02A
:1024800092E00E94D40D412F55276627772720E13F
:1024900030E08EE092E00E94E30D63E070E08DE0BA
:1024A00092E00E948411182F1095113128F460E3F6
:1024B0008EE092E00E94D40D412F552766277727A2
:1024C00020E130E08EE092E00E94E30D1F9108953C
:1024D000803364F08A3314F4805305C0813434F0BF
:1024E00087341CF4875399270895089580E090E07D
:1024F0000895DF92EF92FF920F931F93CF93DF9394
:1025000061E371E086E192E00E94FE17EC01892B05
:1025100009F495C06CE371E086E992E00E940A1428
:102520008A850E946812082F112734E0000F111FBE
:102530003A95E1F78B850E946812D82ED00E8C85D3
:102540000E946812082F112724E0000F111F2A95FE
:10255000E1F78D850E946812E82EE00E8E850E94BC
:102560006812082F112794E0000F111F9A95E1F7C8
:102570008F850E946812F82EF00E6BE471E086E9F8
:1025800092E00E94EA134D2D55276627772720E118
:1025900030E086E992E00E946B1462E571E086E922
:1025A00092E00E94EA134E2D55276627772720E1F7
:1025B00030E086E992E00E946B146CE571E086E9F8
:1025C00092E00E94EA134F2D55276627772720E1D6
:1025D00030E086E992E00E946B1465E671E086E9DE
:1025E00092E00E940A144D2D409561E070E08DE06C
:1025F00092E00E948A114E2D409562E070E08DE0DD
:1026000092E00E948A114F2D409563E070E08DE0CA
:1026100092E00E948A110FEF10E0B8016D19710964
:102620008BE00E946C15B8016E1971098AE00E9456
:102630006C150F191109B80189E00E946C15DF9122
:10264000CF911F910F91FF90EF90DF9008950F931E
:102650001F930EE012E062E370E0C8010E94A20D39
:1026600069EF76E1C8010E94B90D6DEB76E1C80112
:102670000E94B90D66E671E0C8010E94CF0D0E946C
:10268000151262EA71E0C8010E94CF0D6FE372E09B
:10269000C8010E94B90D6EEE70E0C8010E94B90D2C
:1026A0000E9415126EE670E0C8010E94B90D6FEF2E
:1026B00070E0C8010E94A20DC8010E94B80D1F91D0
:1026C0000F9108950E94E31121E08439920789F463
:1026D0006AEF70E08EE092E00E94A20D63E377E182
:1026E0008EE092E00E94B90D8EE092E00E94B80D5B
:1026F0000895883C910579F50E9479120E9427136C
:1027000063EB71E086E992E00E94EA1360911402A3
:102710007091150286E992E00E948E1460EA7FE0D3
:1027200080E090E00E94D81461E084E00E94C0152F
:1027300062E370E080E090E00E94D81460E084E002
:102740000E94C015809114029091150201969093F9
:102750001502809314020895CFEFD4E0DEBFCDBF01
:102760000E9407150E948F110E946213FDCFCF9225
:10277000EF920F936F5F7F4F69F4019759F446E032
:10278000C42EEE2400E024E043E062E08EE092E01C
:102790000E945E0C0F91EF90CF9008956FEF7FEF46
:1027A00081E090E00E94B713089508950895CB0149
:1027B000BA010E94721608950E94B31699270895CF
:1027C0000E94C41608950E94E3160895862F0E9461
:1027D0002A170895CB010E9431170895862F0E9471
:1027E0002A1708950F931F938C016DE00E94E61342
:1027F0006AE0C8010E94E6131F910F9108950F939C
:102800001F938C010E94E613C8010E94F2131F91CE
:102810000F9108950F931F938C010E94EA13C80132
:102820000E94F2131F910F9108950F931F938C0133
:102830000E94EE13C8010E94F2131F910F91089598
:10284000CB01BA013327442755270E943E1708952C
:102850002AE00E94201408950F931F938C010E9478
:102860002814C8010E94F2131F910F910895AB0123
:10287000662777270E9428140895EF92FF920F93FE
:102880001F93CF93DF93EC017A018B0177FF0BC08D
:102890006DE20E94E61310950095F094E094E11C1F
:1028A000F11C011D111D2AE0B801A701CE010E94F3
:1028B0002014DF91CF911F910F91FF90EF90089519
:1028C0000F931F938C010E943D14C8010E94F213C4
:1028D0001F910F9108952115310521F4642F0E9455
:1028E000E61308952A30310519F40E943D14089525
:1028F0000E94201408950F931F938C010E946B1463
:10290000C8010E94F2131F910F910895AB01662731
:1029100057FD6095762F0E943D1408950F931F93E5
:102920008C010E948614C8010E94F2131F910F911E
:102930000895089508951F920F920FB60F921124D3
:102940008F939F93AF93BF9380919B0290919C0232
:10295000A0919D02B0919E020196A11DB11D809390
:102960009B0290939C02A0939D02B0939E02BF9104
:10297000AF919F918F910F900FBE0F901F90189560
:1029800060919B0270919C0280919D0290919E02A9
:1029900027E0660F771F881F991F2A95D1F72DE72B
:1029A00030E040E050E00E942E18CA01B9010895BD
:1029B000AF92BF92CF92DF92EF92FF920F931F934D
:1029C0005B016C010E94C0147B018C010E94C01449
:1029D0006E197F09800B910B6A157B058C059D058F
:1029E000A8F31F910F91FF90EF90DF90CF90BF90D1
:1029F000AF900895019751F0880F991F880F991F84
:102A000002972FB7F8940197F1F72FBF08957894A4
:102A100010929B0210929C0210929D0210929E02B4
:102A200084B5826084BD84B5816084BD85B58260D3
:102A300085BD85B5816085BDEEE6F0E08081816071
:102A40008083E1E8F0E08081826080838081816022
:102A50008083E0E8F0E0808181608083E1EBF0E05A
:102A6000808184608083E0EBF0E0808181608083FE
:102A7000ECE7F0E080818F778083808180648083C1
:102A8000EAE7F0E0808184608083808182608083D7
:102A90008081816080838081806880831092C10002
:102AA000089590917C00907F8F70982B90937C007C
:102AB00080917A00806480937A0080917A0086FD0C
:102AC000FCCF20917800809179009927982F882752
:102AD0003327822B932B08951F93CF93DF93182FC7
:102AE000EB0161E00E94C015E12FFF27EB52F84E89
:102AF0008491833051F480918000806880938000BD
:102B0000D0938900C093880037C0843051F48091FD
:102B10008000806280938000D0938B00C0938A00F5
:102B20002BC0813029F484B5806884BDC7BD24C022
:102B3000823029F484B5806284BDC8BD1DC0863052
:102B400041F48091B00080688093B000C093B300DE
:102B500013C0873041F48091B00080628093B00050
:102B6000C093B40009C0C038D10514F460E001C0BE
:102B700061E0812F0E942716DF91CF911F91089568
:102B8000282F3327C9018751984EFC019491235077
:102B9000384EF9018491882381F0E82FFF27E55E04
:102BA000F74EE491FF27662329F4808190958923CD
:102BB000808308958081892B80830895482F55272D
:102BC000CA018B52984EFC012491CA018751984E3C
:102BD000FC0194914350584EFA0134913323A1F1F2
:102BE000222331F1233021F4809180008F7705C0BA
:102BF000243031F4809180008F7D8093800018C054
:102C0000213019F484B58F7704C0223021F484B5C3
:102C10008F7D84BD0DC0263021F48091B0008F7768
:102C200005C0273029F48091B0008F7D8093B000DB
:102C3000E32FFF27EF5EF74EE491FF278081892382
:102C400019F081E090E0089580E090E00895482F29
:102C50005527CA018B52984EFC012491CA01875115
:102C6000984EFC0194914350584EFA01349133230D
:102C7000C1F1222331F1233021F4809180008F773C
:102C800005C0243031F4809180008F7D80938000D6
:102C900018C0213019F484B58F7704C0223021F494
:102CA00084B58F7D84BD0DC0263021F48091B000A5
:102CB0008F7705C0273029F48091B0008F7D8093F5
:102CC000B000E32FFF27EA5EF74EE491FF2766236B
:102CD00029F4808190958923808308958081892BB0
:102CE00080830895EF92FF920F931F937B018C01D5
:102CF00022E030E040E050E00E945018205C3D4B64
:102D0000404F5F4FCA01B901A80197010E945018B6
:102D10002150304040405040BB2757FDBA95A52F69
:102D2000942F832F2F5F3F4F4F4F5F4F8093C500EE
:102D300021502093C400E1ECF0E080818061808329
:102D40008081886080838081806880831F910F915B
:102D5000FF90EF900895982F8091C00085FFFCCFE1
:102D60009093C60008958091990290919A022091C3
:102D7000970230919802821B930B80589F4F60E816
:102D800070E00E941B18089540919702509198029C
:102D90008091990290919A028417950719F48FEF08
:102DA0009FEF0895FA01E156FD4F2081CA01019677
:102DB00060E870E00E941B1890939802809397023D
:102DC000822F99270895809197029091980290936D
:102DD0009A028093990208951F920F920FB60F9254
:102DE00011242F933F934F935F936F937F938F9310
:102DF0009F93AF93BF93EF93FF934091C600E091F1
:102E00009902F0919A02CF01019660E870E00E9469
:102E10001B189C01809197029091980228173907FE
:102E200039F0E156FD4F408330939A022093990286
:102E3000FF91EF91BF91AF919F918F917F916F9192
:102E40005F914F913F912F910F900FBE0F901F9068
:102E5000189508950E94AB1608958AE00E942A17DB
:102E60000895CF93DF93EC0103C021960E942A17A7
:102E700088818823D1F7DF91CF9108952F923F92D7
:102E80004F925F926F927F928F929F92AF92BF927A
:102E9000CF92DF92EF92FF920F931F93CF93DF9326
:102EA000CDB7DEB7A0970FB6F894DEBF0FBECDBF8B
:102EB0006B017C0119012A016115710581059105DC
:102EC00021F480E30E942A174BC066247724430133
:102ED0005E010894A11CB11C8501060D171DC701D8
:102EE000B601A20191010E942E18F8016083089496
:102EF000611C711C811C911CC701B601A2019101CA
:102F00000E942E1869017A012115310541055105EC
:102F100019F773010894E108F108EA0CFB1CAA24D4
:102F2000BB24650111C0F70180818A3010F4805DF7
:102F300001C0895C0E942A170894A108B108C10841
:102F4000D1080894E108F10888279927DC0186193F
:102F50009709A809B909A816B906CA06DB0619F720
:102F6000A0960FB6F894DEBF0FBECDBFDF91CF9114
:102F70001F910F91FF90EF90DF90CF90BF90AF9097
:102F80009F908F907F906F905F904F903F902F9089
:102F90000895EF92FF920F931F937B018C0197FF8F
:102FA0000BC08DE20E942A1710950095F094E094D2
:102FB000E11CF11C011D111D2AE030E040E050E051
:102FC000C801B7010E943E171F910F91FF90EF902B
:102FD000089520E130E040E050E00E943E1708955F
:102FE00028E030E040E050E00E943E17089522E0E3
:102FF00030E040E050E00E943E170895DC01FB0104
:103000004191442309F40895FB0141912D9122231C
:1030100069F02417CD01D1F74191442351F02C914F
:10302000222321F0241781F71196F6CF88279927BC
:1030300008950197089597FB092E07260AD077FD7A
:1030400004D049D006D000201AF4709561957F4FC6
:103050000895F6F7909581959F4F0895A1E21A2E55
:10306000AA1BBB1BFD010DC0AA1FBB1FEE1FFF1F2C
:10307000A217B307E407F50720F0A21BB30BE40B7C
:10308000F50B661F771F881F991F1A9469F76095C3
:103090007095809590959B01AC01BD01CF0108957D
:1030A00097FB092E05260ED057FD04D0D7DF0AD096
:1030B000001C38F450954095309521953F4F4F4F67
:1030C0005F4F0895F6F790958095709561957F4FC5
:1030D0008F4F9F4F0895AA1BBB1B51E107C0AA1F2A
:1030E000BB1FA617B70710F0A61BB70B881F991FA9
:1030F0005A95A9F780959095BC01CD010895EE0FE2
:10310000FF1F0590F491E02D0994F999FECFB2BD0F
:10311000A1BDF89A119600B40895F999FECFB2BDF9
:10312000A1BD00BC11960FB6F894FA9AF99A0FBE99
:02313000089500
:1031320073657269616C20706F727420726561646C
:10314200790058506F727420726561647900474546
:1031520054202F2000474554202F3F00474554203C
:10316200003F636F6C6F723D253233006368616E9E
:1031720067696E6720636F6C6F7200726564203DD1
:10318200200020677265656E203D200020626C750C
:1031920065203D2000003C7374796C652074797061
:1031A200653D22746578742F637373223E203C213F
:1031B2002D2D202373616D706C655F31207B206241
:1031C20061636B67726F756E642D636F6C6F723AB9
:1031D20020003B207D202D2D3E203C2F7374796CE6
:1031E200653E0052657175657374656421204E6F8A
:0431F2002E2000008B
:00000001FF
