:100000000C945B000C9481000C9481000C94810092
:100010000C9481000C9481000C9481000C9481005C
:100020000C9481000C9481000C9481000C9481004C
:100030000C9481000C9481000C9481000C9481003C
:100040000C9472020C9481000C944C040C9481006A
:100050000C9481000C9481000C9481000C9481001C
:100060000C9481000C9481007102000000070002D2
:10007000010000030406000000000000000001026F
:100080000408102040800102040810200102040826
:100090001020040404040404040402020202020204
:1000A0000303030303030000232629000025282B54
:1000B000000024272A0011241FBECFEFD4E0DEBFAA
:1000C000CDBF11E0A0E0B1E0E0E9FBE002C00590A7
:1000D0000D92AA30B107D9F711E0AAE0B1E001C052
:1000E0001D92A23AB107E1F710E0CAE6D0E004C0E1
:1000F0002297FE010E94C405C836D107C9F70C94A7
:1001000096010C94000061E0809103010E9420039D
:1001100040E855E260E070E089E191E00E94A301CF
:1001200008950F931F93CF93DF9389E191E00E948D
:10013000A801882371F089E191E00E94AC019093BD
:100140001801809317018134910519F481E080939F
:100150000A010E9497028B019C01809113019091EA
:100160001401A0911501B0911601081B190B2A0B5F
:100170003B0B809101019091020162E070E00E94CE
:100180005E05882777FD8095982F061717072807A3
:10019000390728F061E0809103010E9487030E94E3
:1001A0009702209113013091140140911501509153
:1001B0001601621B730B840B950B2091010130918A
:1001C0000201442737FD4095542F621773078407B7
:1001D000950708F4A6C060E0809103010E948703A0
:1001E0000E9497026093130170931401809315018C
:1001F000909316010E949702C0910F01D0911001B7
:100200002091010130910201442737FD4095542F80
:100210000E9471058CE390E0BC01C69FC001C79F9E
:10022000900DD69F900D1124281B390B309312018D
:10023000209311012C3331050CF12196D09310013C
:10024000C0930F01109212011092110180910D01C3
:1002500090910E01019690930E0180930D01CC9721
:100260006CF010920E0110920D0180910B01909193
:100270000C01019690930C0180930B0160910B018E
:1002800070910C016A30710554F465E071E089E108
:1002900091E00E94B60160910B0170910C0189E11F
:1002A00091E00E945D0267E071E089E191E00E94C7
:1002B000B60160910D0170910E016A30710554F420
:1002C00065E071E089E191E00E94B60160910D0165
:1002D00070910E0189E191E00E945D0267E071E09A
:1002E00089E191E00E94B6016091110170911201C3
:1002F0006A30710554F465E071E089E191E00E9493
:10030000B601609111017091120189E191E00E94A2
:100310005D026091000189E191E00E94B2011092BA
:100320000A01DF91CF911F910F910895CFEFD4E093
:10033000DEBFCDBF0E94DE020E9483000E949100BA
:10034000FDCF08950895CB01BA010E94D20308950C
:100350000E941304992708950E94240408950E947E
:1003600043040895862F0E948A040895CB010E94B9
:1003700091040895862F0E948A0408950F931F9375
:100380008C016DE00E94B2016AE0C8010E94B201D6
:100390001F910F9108950F931F938C010E94B2013A
:1003A000C8010E94BE011F910F9108950F931F93E2
:1003B0008C010E94B601C8010E94BE011F910F91DD
:1003C00008950F931F938C010E94BA01C8010E94E7
:1003D000BE011F910F910895CB01BA013327442725
:1003E00055270E949E0408952AE00E94EC0108957A
:1003F0000F931F938C010E94F401C8010E94BE015B
:100400001F910F910895AB01662777270E94F40191
:1004100008950F931F938C010E940302C8010E944C
:10042000BE011F910F910895EF92FF920F931F93BA
:10043000CF93DF93EC017A018B0177FF0BC06DE264
:100440000E94B20110950095F094E094E11CF11C1B
:10045000011D111D2AE0B801A701CE010E94EC0187
:10046000DF91CF911F910F91FF90EF9008950F931F
:100470001F938C010E941402C8010E94BE011F91AB
:100480000F9108952115310521F4642F0E94B201C6
:1004900008952A30310519F40E94140208950E942B
:1004A000EC0108950F931F938C010E944202C80132
:1004B0000E94BE011F910F910895AB01662757FD61
:1004C0006095762F0E94140208950F931F938C015C
:1004D0000E945D02C8010E94BE011F910F91089504
:1004E000089508951F920F920FB60F9211248F93C3
:1004F0009F93AF93BF9380911E0190911F01A09194
:100500002001B09121010196A11DB11D80931E0112
:1005100090931F01A0932001B0932101BF91AF914F
:100520009F918F910F900FBE0F901F901895609123
:100530001E0170911F01809120019091210127E0FF
:10054000660F771F881F991F2A95D1F72DE730E096
:1005500040E050E00E947105CA01B9010895AF92D0
:10056000BF92CF92DF92EF92FF920F931F935B01A6
:100570006C010E9497027B018C010E9497026E1908
:100580007F09800B910B6A157B058C059D05A8F3EF
:100590001F910F91FF90EF90DF90CF90BF90AF90A1
:1005A0000895019751F0880F991F880F991F02979E
:1005B0002FB7F8940197F1F72FBF08957894109210
:1005C0001E0110921F01109220011092210184B58A
:1005D000826084BD84B5816084BD85B5826085BD3F
:1005E00085B5816085BDEEE6F0E080818160808325
:1005F000E1E8F0E080818260808380818160808397
:10060000E0E8F0E0808181608083E1EBF0E08081D0
:1006100084608083E0EBF0E0808181608083EAE7A2
:10062000F0E080818460808380818260808380812B
:10063000816080838081806880831092C1000895EA
:10064000282F3327C90182589F4FFC0194912E56C1
:100650003F4FF9018491882381F0E82FFF27E0556F
:10066000FF4FE491FF27662329F480819095892329
:10067000808308958081892B80830895482F552792
:10068000CA0186599F4FFC012491CA0182589F4F8D
:10069000FC0194914E565F4FFA0134913323A1F13E
:1006A000222331F1233021F4809180008F7705C01F
:1006B000243031F4809180008F7D8093800018C0B9
:1006C000213019F484B58F7704C0223021F484B529
:1006D0008F7D84BD0DC0263021F48091B0008F77CE
:1006E00005C0273029F48091B0008F7D8093B00041
:1006F000E32FFF27EA55FF4FE491FF2780818923ED
:1007000019F081E090E0089580E090E00895482F8E
:100710005527CA0186599F4FFC012491CA0182586E
:100720009F4FFC0194914E565F4FFA013491332351
:10073000C1F1222331F1233021F4809180008F77A1
:1007400005C0243031F4809180008F7D809380003B
:1007500018C0213019F484B58F7704C0223021F4F9
:1007600084B58F7D84BD0DC0263021F48091B0000A
:100770008F7705C0273029F48091B0008F7D80935A
:10078000B000E32FFF27E555FF4FE491FF276623D5
:1007900029F4808190958923808308958081892B15
:1007A00080830895EF92FF920F931F937B018C013A
:1007B00022E030E040E050E00E949305205C3D4B99
:1007C000404F5F4FCA01B901A80197010E949305EC
:1007D0002150304040405040BB2757FDBA95A52FCF
:1007E000942F832F2F5F3F4F4F4F5F4F8093C50054
:1007F00021502093C400E1ECF0E08081806180838F
:100800008081886080838081806880831F910F91C0
:10081000FF90EF900895982F8091C00085FFFCCF46
:100820009093C600089580911C0190911D01209124
:100830001A0130911B01821B930B80589F4F60E877
:1008400070E00E945E05089540911A0150911B01CD
:1008500080911C0190911D018417950719F48FEF69
:100860009FEF0895FA01EE5DFE4F2081CA010196C7
:1008700060E870E00E945E0590931B0180931A016E
:10088000822F9927089580911A0190911B019093CE
:100890001D0180931C0108951F920F920FB60F92B5
:1008A00011242F933F934F935F936F937F938F9375
:1008B0009F93AF93BF93EF93FF934091C600E09156
:1008C0001C01F0911D01CF01019660E870E00E94CB
:1008D0005E059C0180911A0190911B012817390730
:1008E00039F0EE5DFE4F408330931D0120931C01D3
:1008F000FF91EF91BF91AF919F918F917F916F91F8
:100900005F914F913F912F910F900FBE0F901F90CD
:10091000189508950E940B0408958AE00E948A04A5
:100920000895CF93DF93EC0103C021960E948A04BF
:1009300088818823D1F7DF91CF9108952F923F923C
:100940004F925F926F927F928F929F92AF92BF92DF
:10095000CF92DF92EF92FF920F931F93CF93DF938B
:10096000CDB7DEB7A0970FB6F894DEBF0FBECDBFF0
:100970006B017C0119012A01611571058105910541
:1009800021F480E30E948A044BC06624772443014B
:100990005E010894A11CB11C8501060D171DC7013D
:1009A000B601A20191010E947105F80160830894CB
:1009B000611C711C811C911CC701B601A20191012F
:1009C0000E94710569017A01211531054105510522
:1009D00019F773010894E108F108EA0CFB1CAA243A
:1009E000BB24650111C0F70180818A3010F4805D5D
:1009F00001C0895C0E948A040894A108B108C1085A
:100A0000D1080894E108F10888279927DC018619A4
:100A10009709A809B909A816B906CA06DB0619F785
:100A2000A0960FB6F894DEBF0FBECDBFDF91CF9179
:100A30001F910F91FF90EF90DF90CF90BF90AF90FC
:100A40009F908F907F906F905F904F903F902F90EE
:100A50000895EF92FF920F931F937B018C0197FFF4
:100A60000BC08DE20E948A0410950095F094E094EA
:100A7000E11CF11C011D111D2AE030E040E050E0B6
:100A8000C801B7010E949E041F910F91FF90EF9043
:100A9000089520E130E040E050E00E949E04089577
:100AA00028E030E040E050E00E949E04089522E0FB
:100AB00030E040E050E00E949E04089597FB092E2C
:100AC00007260AD077FD04D049D006D000201AF4BA
:100AD000709561957F4F0895F6F7909581959F4F9A
:100AE0000895A1E21A2EAA1BBB1BFD010DC0AA1F6F
:100AF000BB1FEE1FFF1FA217B307E407F50720F087
:100B0000A21BB30BE40BF50B661F771F881F991F01
:100B10001A9469F760957095809590959B01AC014A
:100B2000BD01CF01089597FB092E05260ED057FD74
:100B300004D0D7DF0AD0001C38F45095409530958A
:100B400021953F4F4F4F5F4F0895F6F79095809551
:100B5000709561957F4F8F4F9F4F0895AA1BBB1BC8
:100B600051E107C0AA1FBB1FA617B70710F0A61BAD
:100B7000B70B881F991F5A95A9F780959095BC01CE
:100B8000CD010895EE0FFF1F0590F491E02D09941B
:0A0B90000AE8030D0030003A0000EF
:00000001FF
