:100000000C945A000C9475000C9475000C947500B7
:100010000C9475000C9475000C9475000C9475008C
:100020000C9475000C9475000C9475000C9475007C
:100030000C9475000C9475000C9475000C9475006C
:100040000C9448030C9475000C9475000C94750086
:100050000C9475000C9475000C9475000C9475004C
:100060000C9475000C94750000000007000201005C
:100070000003040600000000000000000102040864
:100080001020408001020408102001020408102002
:10009000040404040404040402020202020203032E
:1000A000030303030000232629000025282B00005A
:1000B00024272A0011241FBECFEFD4E0DEBFCDBF1E
:1000C00011E0A0E0B1E0ECECFAE002C005900D9286
:1000D000AE31B107D9F711E0AEE1B1E001C01D9238
:1000E000A933B107E1F70C943D030C940000DF92B3
:1000F000EF92FF920F931F93CF93DF93CDB7DEB7AD
:100100002A970FB6F894DEBF0FBECDBF7B01DE018C
:100110001196E2E1F1E02AE001900D922150E1F721
:10012000FC01E057FF4F249184589F4FFC019491AC
:10013000E22FFF27EE0FFF1FEC0FFD1F0180F28162
:10014000E02D8F01005E1F4F80A1D92E892B80A347
:100150008AE090E00E94A703F894F80180819D2D29
:1001600090958923808300000000000000000000BB
:10017000000000000000000000000000000000007F
:10018000000000000000000000000000000000006F
:10019000000000000000000000000000000000005F
:1001A000000000000000000000000000000000004F
:1001B000000000000000000000000000000000003F
:1001C00000000000000020E030E0E0FE04C0F80184
:1001D00080818D2903C0F8018081892380830000FC
:1001E000000000000000000000000000000000000F
:1001F00000000000000000000000000000000000FF
:1002000000000000000000000000000000000000EE
:1002100000000000000000000000000000000000DE
:1002200000000000000000000000000000000000CE
:100230000000000000000000000000000000F59435
:10024000E7942F5F3F4F2830310509F0BECFF8010A
:1002500080818D29808378942A960FB6F894DEBF2A
:100260000FBECDBFDF91CF911F910F91FF90EF9007
:10027000DF900895809133019091340160913101B4
:1002800070913201861797072CF4019690933401F0
:100290008093330180912F019091300140912D0185
:1002A00050912E01841795072CF4019690933001FC
:1002B00080932F018091290190912A01209127019B
:1002C00030912801821793072CF4019690932A010C
:1002D000809329018091290190912A018217930727
:1002E00089F480913301909134018617970751F476
:1002F00080912F01909130018417950719F481E0C6
:1003000080931E01089561E0809110010E946B04AA
:1003100060E080910C010E946B0460E080910A0112
:100320000E946B0460E0809108010E946B040E94AF
:100330006D0360931F0170932001809321019093BE
:10034000220180910C010E94F903019764E070E0A2
:100350000E941D0570933201609331018091080164
:100360000E94F903019764E070E00E941D057093FC
:1003700028016093270180910A010E94F9030197E7
:1003800064E070E00E941D0570932E0160932D01C2
:1003900008950E946D0320911F013091200140912A
:1003A000210150912201621B730B840B950B20914C
:1003B0000001309101014091020150910301621747
:1003C00073078407950708F480C00E946D0360934B
:1003D0001F017093200180932101909322012091AD
:1003E0002501309126012F3F310509F0ACF48091B1
:1003F000230190912401892B79F42F5F3F4F309393
:1004000026012093250180910E0190910F01019703
:1004100090930F0180930E01409125015091260188
:100420004F3F510531F481E090E090932401809397
:10043000230120912B0130912C012F3F310509F030
:1004400094F48091230190912401019761F42F5F2E
:100450003F4F30932C0120932B014150504050933B
:1004600026014093250140912B0150912C014F3FD3
:10047000510531F482E090E09093240180932301B0
:1004800020910E0130910F012F3F310509F094F4B6
:100490008091230190912401029761F441505040D2
:1004A00050932C0140932B012F5F3F4F30930F014E
:1004B00020930E0180910E0190910F018F3F9105C5
:1004C00021F410922401109223010895EF92FF92DB
:1004D0000F931F93CF93DF9360E0809110010E94F0
:1004E000D2046AE070E080E090E00E94850360E062
:1004F00070E080911001909111010E94770031E02D
:10050000E32EF12C08C0882799278E199F09081718
:10051000190779F47E016091330170913401809163
:100520001001909111010E947700E70100E010E0B6
:100530001DC0C230D10529F460912F0170913001A6
:100540000DC0C330D10529F46091290170912A01B1
:1005500005C0C430D10541F460E070E08091100125
:10056000909111010E9477000F5F1F4F2196C530B7
:10057000D1054CF280911E01882349F50E946D033C
:1005800020911F01309120014091210150912201C1
:10059000621B730B840B950B2091040130910501B4
:1005A0004091060150910701261737074807590760
:1005B00008F05CC00E943A010E946D0360931F0125
:1005C0007093200180932101909322014FC080916C
:1005D0000C010E94F903019764E070E00E941D0580
:1005E0007093340160933301809108010E94F903F4
:1005F000019764E070E00E941D0570932A016093EA
:10060000290180910A010E94F903019764E070E0DA
:100610000E941D057093300160932F01809133017A
:1006200090913401892B11F5672B01F580912901F7
:1006300090912A01892BD1F480910E0190910F01A4
:10064000909334018093330180912B0190912C0180
:100650009093300180932F01809125019091260184
:1006600090932A01809329010E94C901DF91CF91C3
:100670001F910F91FF90EF900895CFEFD4E0DEBF70
:10068000CDBF0E94B4030E9483010E946602FDCF89
:100690001F920F920FB60F9211248F939F93AF93D7
:1006A000BF938091350190913601A0913701B091AF
:1006B00038010196A11DB11D80933501909336013B
:1006C000A0933701B0933801BF91AF919F918F9163
:1006D0000F900FBE0F901F9018956091350170918B
:1006E0003601809137019091380127E0660F771F1E
:1006F000881F991F2A95D1F72DE730E040E050E0A0
:100700000E943005CA01B9010895AF92BF92CF92FD
:10071000DF92EF92FF920F931F935B016C010E9497
:100720006D037B018C010E946D036E197F09800BA4
:10073000910B6A157B058C059D05A8F31F910F9100
:10074000FF90EF90DF90CF90BF90AF90089501970A
:1007500051F0880F991F880F991F02972FB7F894AF
:100760000197F1F72FBF08957894109235011092F8
:100770003601109237011092380184B5826084BD31
:1007800084B5816084BD85B5826085BD85B5816095
:1007900085BDEEE6F0E0808181608083E1E8F0E0F5
:1007A000808182608083808181608083E0E8F0E0E6
:1007B000808181608083E1EBF0E0808184608083D0
:1007C000E0EBF0E0808181608083EAE7F0E0808107
:1007D0008460808380818260808380818160808367
:1007E0008081806880831092C100089580931C01ED
:1007F000089590911C019295990F990F907C8F709C
:10080000982B90937C0080917A00806480937A008A
:1008100080917A0086FDFCCF20917800809179004C
:100820009927982F88273327822B932B08951F937E
:10083000CF93DF93182FEB0161E00E946B04E12F4F
:10084000FF27E859FF4F8491833051F48091800055
:10085000806880938000D0938900C093880037C05F
:10086000843051F480918000806280938000D09326
:100870008B00C0938A002BC0813029F484B5806836
:1008800084BDC7BD24C0823029F484B5806284BD94
:10089000C8BD1DC0863041F48091B000806880934F
:1008A000B000C093B30013C0873041F48091B00012
:1008B00080628093B000C093B40009C0C038D105F5
:1008C00014F460E001C061E0812F0E94D204DF9146
:1008D000CF911F910895282F3327C90184589F4F26
:1008E000FC01949120573F4FF9018491882381F0B6
:1008F000E82FFF27E255FF4FE491FF27662329F4F5
:10090000808190958923808308958081892B8083BD
:100910000895482F5527CA0188599F4FFC012491FB
:10092000CA0184589F4FFC01949140575F4FFA01D0
:1009300034913323A1F1222331F1233021F480912A
:1009400080008F7705C0243031F4809180008F7D46
:100950008093800018C0213019F484B58F7704C0CB
:10096000223021F484B58F7D84BD0DC0263021F462
:100970008091B0008F7705C0273029F48091B000B6
:100980008F7D8093B000E32FFF27EC55FF4FE4915C
:10099000FF278081892319F081E090E0089580E0AD
:1009A00090E00895482F5527CA0188599F4FFC01B0
:1009B0002491CA0184589F4FFC01949140575F4F86
:1009C000FA0134913323C1F1222331F1233021F490
:1009D000809180008F7705C0243031F480918000B1
:1009E0008F7D8093800018C0213019F484B58F77F3
:1009F00004C0223021F484B58F7D84BD0DC0263023
:100A000021F48091B0008F7705C0273029F48091C0
:100A1000B0008F7D8093B000E32FFF27E755FF4F95
:100A2000E491FF27662329F48081909589238083B0
:100A300008958081892B8083089597FB092E0726CE
:100A40000AD077FD04D02ED006D000201AF470957D
:100A500061957F4F0895F6F7909581959F4F089582
:100A6000A1E21A2EAA1BBB1BFD010DC0AA1FBB1FB2
:100A7000EE1FFF1FA217B307E407F50720F0A21B24
:100A8000B30BE40BF50B661F771F881F991F1A9491
:100A900069F760957095809590959B01AC01BD01BB
:100AA000CF010895AA1BBB1B51E107C0AA1FBB1FA2
:100AB000A617B70710F0A61BB70B881F991F5A95EA
:0C0AC000A9F780959095BC01CD01089528
:100ACC00F401000008000000030004000500FF0012
:0E0ADC000D0000000000050008000B000100E6
:00000001FF
