:100000000C94E6000C940C010C940C010C940C0163
:100010000C940C010C940C010C940C010C940C012C
:100020000C940C010C940C010C940C010C94500CCD
:100030000C94DD0E0C940C010C940C010C940C012E
:100040000C94D4120C940C010C94B5140C940C0167
:100050000C940C010C940C010C940C010C940C01EC
:100060000C940C010C940C010712D312746F6F20C6
:100070006D616E79206F70656E2066696C657300C6
:1000800062616420696E70757400594545454B0086
:100090005941414B006661696C656420746F20674B
:1000A0006574206E657720636C75737465720020CB
:1000B0002121212000203F3F3F200053616D706CC3
:1000C00065207261746520746F6F206869676821AC
:1000D0000000436F6D7072657373696F6E206E6F91
:1000E0007420737570706F727465640046696C6516
:1000F0007320666F756E643A0046696C657320669E
:100100006F756E643A00436F756C646E2774206F70
:1001100070656E2064697200436F756C646E27743D
:10012000206F70656E2066696C65737973004E6F21
:1001300020706172746974696F6E2100436172642A
:1001400020696E69742E206661696C6564210020E7
:100150004E6F7420612076616C69642057415600AF
:1001600020436F756C646E2774206F70656E206617
:10017000696C65002E000A0D506C6179696E67200C
:100180000000000007000201000003040600000058
:100190000000000000010204081020408001020459
:1001A00008102001020408102004040404040404BC
:1001B00004020202020202030303030303000023FA
:1001C0002629000025282B000024272A11241FBEE1
:1001D000CFEFD4E0DEBFCDBF11E0A0E0B1E0EEEEA6
:1001E000FCE202C005900D92AC31B107D9F713E0E3
:1001F000ACE1B1E001C01D92A73FB107E1F710E00B
:10020000CCE6D0E004C02297FE010E947316C836E7
:10021000D107C9F70C94EE110C94000008950895CD
:100220000E94D90B992708950F93CF93DF93EC0188
:1002300000E020E030E040E050E061E07BE085ED70
:1002400099E00E94A30899838883892B69F40FEFB2
:1002500020E030E040E050E061E07BE085ED99E0B7
:100260000E94A3089983888320E088819981892B43
:1002700009F421E081E02827822F9927DF91CF918F
:100280000F9108950F931F938C01FC018081918140
:100290000E942202F8019383828320E0892B09F4D3
:1002A00021E081E02827822F99271F910F9108953F
:1002B0000F931F93CF93DF93CDB7DEB768970FB639
:1002C000F894DEBF0FBECDBF8C01BE016F5F7F4FC4
:1002D000FC01828193810E94B904BE016F5F7F4F50
:1002E000F801828193810E94C707F8019583848376
:1002F00020E0892B09F421E081E02827822F99272B
:1003000068960FB6F894DEBF0FBECDBFDF91CF91D8
:100310001F910F910895FC01848195810E94F4073B
:1003200008950F931F93CF93DF93CDB7DEB76897F0
:100330000FB6F894DEBF0FBECDBF8B01BE016F5F5D
:100340007F4FFC01848195810E94FA07882319F46C
:1003500080E090E00CC04CE050E0BE016F5F7F4F4A
:10036000C8010E94DF15F801148681E090E06896CC
:100370000FB6F894DEBF0FBECDBFDF91CF911F91B6
:100380000F910895FC01848195810E949808089539
:10039000EF92FF920F931F93CF93DF938B017A011C
:1003A000E9010CC0B701CE010E94C715892B31F4B9
:1003B000C8010E94980881E090E008C0BE01C80111
:1003C0000E94FA07882371F780E090E0DF91CF91D7
:1003D0001F910F91FF90EF9008950F931F93CF936C
:1003E000DF93CDB7DEB768970FB6F894DEBF0FBEC8
:1003F000CDBF8C019E012F5F3F4F0E94C801882313
:1004000019F480E090E006C0BE016F5F7F4FC80125
:100410000E941F0568960FB6F894DEBF0FBECDBFD1
:10042000DF91CF911F910F910895FC01AB01648181
:100430007581828193810E94ED010895CB010E9414
:100440005C0508952F923F924F925F926F927F9238
:100450008F929F92AF92BF92CF92DF92EF92FF92D4
:100460000F931F93CF93DF93CDB7DEB7AC970FB643
:10047000F894DEBF0FBECDBF6C01892B09F486C195
:1004800024E731E03CA72BA780917401909175017E
:10049000892B09F07BC18AE1D9011D928A95E9F780
:1004A000D0927501C0927401F60121853285438591
:1004B0005485A9E0220F331F441F551FAA95D1F779
:1004C0002F8F38A349A35AA3CA01B901655F7F4F93
:1004D0008F4F9F4F0190F081E02D29E130E0AE0178
:1004E0004F5F5F4F0995882309F44CC18981282FFC
:1004F00033278A819927982F8827282B392B3E8FDD
:100500002D8F3B813C8F8C81482E55248D819927DE
:10051000982F8827482A592A2E818F81482F5527BE
:1005200088859927982F8827482B592B5B8F4A8FCE
:100530008985E82FFF278A859927982F8827E82B18
:10054000F92B8C85682F77278D859927982F8827F9
:10055000682B792B8E89682E7724882499248F899B
:100560009927AA27BB27BA2FA92F982F8827682A4F
:10057000792A8A2A9B2A888D9927AA27BB27DC01FA
:1005800099278827682A792A8A2A9B2A898D992778
:10059000AA27BB27B82FAA2799278827682A792A4C
:1005A0008A2A9B2A6115710509F4ECC06114710453
:1005B0008104910431F4309709F4E4C03F018824A8
:1005C0009924C201AA27BB278FA398A7A9A7BAA7D6
:1005D000882799273327442755270E94EE156BA3B8
:1005E0007CA38DA39EA3840173012FA138A549A5E7
:1005F0005AA5E21AF30A040B150BE61AF70A080BC0
:10060000190B8A8D9B8DA5E0880F991FAA95E1F79C
:100610004D8D5E8D840F951F0197BA010E940D16B6
:1006200088279927E61AF70A080B190B8C8D282FB3
:10063000332744275527C801B7010E9434161901F2
:100640002A01DA01C901855F9F40A040B040805077
:10065000904FA040B04008F095C086E0F60180873A
:100660002BA53CA52E5F3F4F88E1D9011D928A95AD
:10067000E9F7225030403CA72BA7ED8DFE8D5F019E
:10068000CC24DD24C401B301A60195010E94EE151E
:10069000609376017093770180937801909379014C
:1006A0006FA178A589A59AA50E94EE157B018C0102
:1006B0002F8D38A149A15AA1E20EF31E041F151F68
:1006C000E0927A01F0927B0100937C0110937D010E
:1006D000220C331C441C551C84E090E0A0E0B0E0E8
:1006E000280E391E4A1E5B1E20927E0130927F0129
:1006F0004092800150928101AD8DBE8DB0938301F7
:10070000A0938201BC8D8B2F9927ED8DFE8D9C01CE
:10071000E29FC001E39F900DF29F900D11249093F2
:100720008501809384016BA17CA18DA19EA1A6016E
:1007300095010E94EE156E0D7F1D801F911F609325
:100740008601709387018093880190938901AA8D17
:10075000BB8D9D0144275527E5E0220F331F441F21
:10076000551FEA95D1F7620F731F841F951F609381
:100770008A0170938B0180938C0190938D018BA5DE
:100780009CA506C0109275011092740180E090E063
:10079000AC960FB6F894DEBF0FBECDBFDF91CF9100
:1007A0001F910F91FF90EF90DF90CF90BF90AF908F
:1007B0009F908F907F906F905F904F903F902F9081
:1007C0000895FC01892B11F0118210820895CF93B6
:1007D000DF93FC01D9018081853E29F1882319F13D
:1007E0002D913C911197ED018A819B812817390742
:1007F00099F44C835D836E837F8383858F3011F002
:1008000080E205C080818295880F807E805EFD0138
:10081000808780E090E009C083858F3021F02F5FD2
:100820003F4F2D933C9381E090E0DF91CF9108956D
:10083000EF92FF920F931F93CF93DF93EC017A0116
:100840008B01B9018881853E09F48AC0882309F4A7
:1008500087C0F90184899589A689B7890097A10580
:10086000B10521F4E48AF58A068B178B209709F4E9
:1008700077C08881882309F473C0AE01455F5F4F5C
:100880008B858F3019F481E090E06CC020E030E07F
:10089000DB01FE01922F8191803239F08D939F5FB1
:1008A0002F5F3F4F28303105A9F7FB01808185304C
:1008B00011F485EE808388858032A9F0FB01E90F71
:1008C000F11D8EE280839F5FDE0123E0FD018085C4
:1008D000803249F0FB01E90FF11D80839F5F2150B9
:1008E0001196222399F7FB01E90FF11D1082FA01FD
:1008F0008081FB0185872A8D33278B8D9927982F3F
:100900008827282B392B378726872C8D3327442798
:1009100055278D8D9927AA27BB27BA2FA92F982F46
:100920008827282B392B4A2B5B2B8E8D9927AA27BA
:10093000BB27DC0199278827282B392B4A2B5B2BD7
:100940008F8D9927AA27BB27B82FAA2799278827F1
:10095000282B392B4A2B5B2B208B318B428B538BD3
:1009600080E090E0DF91CF911F910F91FF90EF9089
:100970000895FB01892B69F06115710551F088E13B
:10098000DB011D928A95E9F780E1858781E090E09F
:10099000089580E090E008950F931F93CF93DF9325
:1009A000CDB7DEB722970FB6F894DEBF0FBECDBF2E
:1009B000DC010097B1F16230710598F10D911C9145
:1009C000660F771F9B0144275527FC0166817781BD
:1009D00080859185620F731F841F951FD801ED914B
:1009E000FC9122E030E0AE014F5F5F4F0995882314
:1009F000C1F08981282F33278A819927982F88274A
:100A0000282B392B2115310561F0BFEF273F3B071C
:100A100041F0C9014096079720F0EFEF283F3E07CD
:100A200010F020E030E0C90122960FB6F894DEBF46
:100A30000FBECDBFDF91CF911F910F910895CF933E
:100A4000DF939C01FB01892B31F06115710519F0D1
:100A5000858584FF04C060E080E890E026C0809136
:100A6000540190915501892BE9F4C6E5D1E0DB01F1
:100A700088E10D9009928150E1F730935501209360
:100A8000540110926E0110926F0110927001109239
:100A9000710186859785909373018093720184E537
:100AA00091E007C060E08CE690E00E94290C80E0B5
:100AB00090E0DF91CF910895FC01892B11F0118214
:100AC000108208952F923F924F925F926F927F9281
:100AD0008F929F92AF92BF92CF92DF92EF92FF924E
:100AE0000F931F93CF93DF93CDB7DEB72A970FB63F
:100AF000F894DEBF0FBECDBF4C0178876F833A01FB
:100B0000009709F4DCC0672B09F4D9C0452B09F420
:100B1000D6C0FC01E28CF38C048D158D22893389BB
:100B200044895589C301AA27BB278E0D9F1DA01F8D
:100B3000B11F281739074A075B0728F439016E18D7
:100B40007F0809F4C6C0D4018D919C91FC01808975
:100B500091899E838D83F401C68CD78C1C0144241B
:100B60005524C801B701A20191010E9434167C836B
:100B70006B83C114D10431F5F401C088D188C1144C
:100B8000D10439F4E114F1040105110509F4A1C0FF
:100B900096C0E114F1040105110579F413C0E218BF
:100BA000F30804091509B601D4018D919C910E94A6
:100BB000CC046C01892B09F482C0E214F30404050F
:100BC000150568F75301F4010190F081E02DFA83D7
:100BD000E9832EEF3FEFC20ED31EB6018827992777
:100BE000A2E0B0E0CA0EDB1EA20191010E94EE1548
:100BF000E981FA81E688F788008D118DE60EF71EEF
:100C0000081F191F2B813C81C901AA27BB27E80EA9
:100C1000F91E0A1F1B1F8D819E81821B930B9A87D1
:100C20008987A816B90610F4BA86A986E981FA81DF
:100C3000A081B1810D90BC91A02D29853A854F816D
:100C40005885C801B701FD0109958823F1F12F816D
:100C5000388589859A85280F391F38872F83A81AE8
:100C6000B90A9C0144275527F401828D938DA48DE8
:100C7000B58D820F931FA41FB51F828F938FA48FF2
:100C8000B58F29853A858B819C81280F391FAD81CD
:100C9000BE812A173B0750F0B601808191810E94E6
:100CA000CC046C01892B71F01C821B82F401D78E5D
:100CB000C68EA114B10409F086CFA3010CC04FEF7A
:100CC0005FEF09C0F401178E168EA3014A195B0964
:100CD00002C040E050E0CA012A960FB6F894DEBF89
:100CE0000FBECDBFDF91CF911F910F91FF90EF907D
:100CF000DF90CF90BF90AF909F908F907F906F903C
:100D00005F904F903F902F9008952F923F924F9277
:100D10005F926F927F928F929F92AF92BF92CF928B
:100D2000DF92EF92FF920F931F93CF93DF93CDB794
:100D3000DEB724970FB6F894DEBF0FBECDBF3C01DF
:100D40007A8369832A01009709F4BEC0672B09F4EE
:100D5000BBC0452B09F4B8C0FC01E28CF38C048DB8
:100D6000158D80E09EEFAFEFBFEFE822F9220A2356
:100D70001B23E28EF38E048F158F228933894489D9
:100D800055892E153F054007510708F4A0C0C20140
:100D9000AA27BB278E0D9F1DA01FB11F281739073B
:100DA0004A075B0728F429014E185F0809F48FC031
:100DB000F1E04F16F2E05F0618F0412CA2E05A2E47
:100DC000D301ED91FC9120883188F301C68CD78C3A
:100DD0004101AA24BB24C801B701A50194010E94C6
:100DE00034167C836B83C114D10431F5F301C088C0
:100DF000D188C114D10439F4E114F10401051105BD
:100E000009F465C061C0E114F1040105110579F42C
:100E100013C0E818F9080A091B09B601D3018D911E
:100E20009C910E94CC046C01892B09F44DC0E814FC
:100E3000F9040A051B0568F7F301008111812EEF03
:100E40003FEFC20ED31EB60188279927A2E0B0E07B
:100E5000CA0EDB1EA50194010E94EE15F801E6887A
:100E6000F788008D118DE60EF71E081F191F2B81C4
:100E70003C81C901AA27BB27E80EF91E0A1F1B1FC8
:100E80005101A21AB30A4A145B0408F452019501F5
:100E900049815A81C801B7010E94470A892BB9F0DC
:100EA000950144275527F301828D938DA48DB58D2F
:100EB000820F931FA41FB51F828F938FA48FB58FAE
:100EC000D78EC68EA20105C04FEF5FEF02C040E093
:100ED00050E0CA0124960FB6F894DEBF0FBECDBF16
:100EE000DF91CF911F910F91FF90EF90DF90CF9006
:100EF000BF90AF909F908F907F906F905F904F903A
:100F00003F902F900895CF93DF93FC01EB01892B45
:100F1000C9F1672BB9F1828D938DA48DB58D4130C8
:100F200051F0413018F0423069F50AC0288139810A
:100F30004A815B8111C0288139814A815B8108C067
:100F4000228933894489558988819981AA81BB8105
:100F5000280F391F4A1F5B1F82899389A489B5898D
:100F600082179307A407B50768F0228F338F448F49
:100F7000558F178E168E288339834A835B8381E0D1
:100F800090E002C080E090E0DF91CF910895CF9390
:100F9000DF939C01DB01892B09F161157105F1F0EB
:100FA000FB01858584FF1AC0ECE1F1E0EF01888147
:100FB0009981892B39F07C966C9681E0E435F807AD
:100FC00069F0F5CFEF01229688E10D9009928150EA
:100FD000E1F731832083138E128E02C0E0E0F0E04F
:100FE000CF01DF91CF910895FC01892B11F011827F
:100FF000108208956F927F928F929F92AF92BF92CC
:10100000CF92DF92EF92FF920F931F93CF93DF93D4
:10101000CDB7DEB7A9970FB6F894DEBF0FBECDBF30
:101020005C014B01009709F451C0672B09F44EC0D5
:10103000FC0180899189892B09F048C0228D338D6C
:101040000190F081E02D3097F1F1DF0112960190CF
:10105000F081E02D62807380AE014F5F5F4F89E0C9
:10106000FA0111928A95E9F73C832B83FD0160898F
:1010700071898289938904891589061B170B6A0176
:1010800027EEE22E23E0F22E20E230E0AE01465FB2
:101090005F4FF30109958823B1F08D819E81AF8167
:1010A000B8850097A105B10571F013C0D4018C91EA
:1010B000882349F0F501828D938D0196938F828F5D
:1010C00081E090E020C0F501138E128E80E090E068
:1010D0001AC088E1D4011D928A95E9F70985112784
:1010E0006D817E818F8198856401B8E1EB2EB4E03B
:1010F000FB2E20E230E0AE01465F5F4FF301099521
:10110000882309F3D3CFA9960FB6F894DEBF0FBE9C
:10111000CDBFDF91CF911F910F91FF90EF90DF90A6
:10112000CF90BF90AF909F908F907F906F900895D9
:10113000FC01892B19F480E090E00895138E128E43
:1011400081E090E008958F929F92AF92BF92CF92EC
:10115000DF92EF92FF920F93CF93DF93CDB7DEB77D
:1011600060970FB6F894DEBF0FBECDBF7C016B0158
:101170005A014901892B09F4AAC0672B09F4A7C0B9
:1011800004300CF0A4C007FD1DC0602F772767FD59
:10119000709584E0660F771F8A95E1F762547E4F61
:1011A000882777FD8095982F20E130E0AE014F5FD2
:1011B0005F4FF7010995882309F489C08D81882341
:1011C00009F485C080919601882309F080C0EEE87B
:1011D000F1E081E1DF011D928A95E9F7F0928F013C
:1011E000E0928E01D0929101C0929001B092930151
:1011F000A0929201909295018092940107FD62C0A5
:101200008D818093960129853327442755278A8528
:101210009927AA27BB27BA2FA92F982F8827282BD1
:10122000392B4A2B5B2B8B859927AA27BB27DC01FF
:1012300099278827282B392B4A2B5B2B8C859927BC
:10124000AA27BB27B82FAA2799278827282B392B0D
:101250004A2B5B2B2093970130939801409399017F
:1012600050939A012D853327442755278E8599273A
:10127000AA27BB27BA2FA92F982F8827282B392BCD
:101280004A2B5B2B8F859927AA27BB27DC0199273F
:101290008827282B392B4A2B5B2B88899927AA274B
:1012A000BB27B82FAA2799278827282B392B4A2B09
:1012B0005B2B20939B0130939C0140939D015093A5
:1012C0009E0103C08FEF80939601CF0102C080E0A2
:1012D00090E060960FB6F894DEBF0FBECDBFDF91F1
:1012E000CF910F91FF90EF90DF90CF90BF90AF9094
:1012F0009F908F900895FC01892B19F480E090E075
:101300000895108681E090E0089581E090E00895CE
:101310008FEF8EBD0DB407FEFDCF8DB58F778DBDE0
:101320008EB59927089581E090E008958EBD0DB4A3
:1013300007FEFDCF8DB58F778DBD0895DF92EF92BB
:10134000FF920F931F93D82E7A018B010E94880978
:101350008D2D80640E949609812F9927AA27BB278B
:101360000E949609C801AA27BB270E949609BB279D
:10137000A12F902F8F2D0E9496098E2D0E949609E5
:10138000DD2011F485E901C08FEF0E9496091AE073
:101390000E9488098F3F11F41150D1F799271F91AE
:1013A0000F91FF90EF90DF9008954F925F926F92B0
:1013B0007F928F929F92AF92BF92CF92DF92EF92E5
:1013C000FF920F931F93CF93DF937B018C012A0130
:1013D000590146C0B801A70140705E7FEFEF8E2E25
:1013E000E1E09E2E8E209F20C12C32E0D32EC81823
:1013F000D908AC14BD0408F465012A9881E10E9463
:101400009E09882321F02A9A80E090E02FC00E9454
:1014100088098E3FE1F734016C0C7D1CC0E0D0E000
:101420000E948809C815D90530F0C615D70518F4EB
:10143000F20181932F012196F2E0C030DF0781F79E
:101440000E9488090E9488092A9A0E948809AC187B
:10145000BD08C601AA27BB27E80EF91E0A1F1B1FDD
:10146000A114B10409F0B6CF81E090E0DF91CF91F3
:101470001F910F91FF90EF90DF90CF90BF90AF90B2
:101480009F908F907F906F905F904F900895CF9234
:10149000DF92EF92FF920F931F93CF93DF937B0125
:1014A0008C016A01E90180910001909101018F5F37
:1014B0009F4F31F060E08AE890E00E94290CFFCF56
:1014C00082E0C130D80710F0C0E0D2E02A9880E076
:1014D0009EEFAFEFBFEFE822F9220A231B23B801EA
:1014E000A70181E10E949E09882321F02A9AC0E089
:1014F000D0E01EC00E9488098E3FE1F710920101E2
:10150000109200010EC00E948809D6018D936D01D2
:1015100080910001909101010196909301018093C7
:10152000000180910001909101018C179D0758F3F3
:10153000CE01DF91CF911F910F91FF90EF90DF903F
:10154000CF900895EF92FF920F931F93CF93DF9365
:101550007C01EB0120910001309101014FEF2F3F01
:10156000340731F460E080E990E00E94290CFFCF5D
:10157000CB01820F931F8150924020F0C0E0D2E057
:10158000C21BD30B00E010E010C00E948809F701D5
:1015900081937F01809100019091010101969093C8
:1015A0000101809300010F5F1F4F0C171D0768F3A7
:1015B000CE01DF91CF911F910F91FF90EF90089591
:1015C0000BC00E9488098091000190910101019651
:1015D000909301018093000180910001909101019D
:1015E0008050924070F30E9488090E9488092A9ACC
:1015F0000E9488098FEF9FEF909301018093000173
:1016000008952F923F924F925F926F927F928F92A6
:101610009F92AF92BF92CF92DF92EF92FF920F9381
:101620001F93CF93DF93CDB7DEB729970FB6F8940A
:10163000DEBF0FBECDBF3B014C011A01590128018D
:10164000FF82EE82452B09F499C02115310509F47A
:1016500095C00217130708F491C0EF2809F48EC053
:101660002A981982FFEFEF2EF1E0FF2EE620F720F7
:1016700000E012E00E191F09D401C30180709E7FA3
:101680008A839B83AC83BD83AC01BD0181E10E9451
:101690009E09882311F02A9A71C00E9488098E3F02
:1016A000E1F71986188607C00E948809A885B985C0
:1016B0001196B987A887E885F985EE15FF05A0F38F
:1016C0000A151B0518F4EE24FF2438C04A145B04E5
:1016D000D0F37101198618860E948809D7018D936D
:1016E0007D01E885F9853196F987E887EA15FB05DC
:1016F00099F740E052E0401B510B66277727460DD3
:10170000571D681D791D9601C101AE81BF81FD0184
:101710000995882319F4B1E0B983D5CF0A191B09BB
:101720004A185B080115110571F24114510459F270
:10173000C7CF0E9488090894E11CF11CE016F1064D
:10174000C1F70E9488090E9488094A145B0480F04E
:101750006A807B808C809D8080E092E0A0E0B0E099
:10176000680E791E8A1E9B1E9981992309F47ACFEF
:101770002A9A0E94880981E090E002C080E090E00F
:1017800029960FB6F894DEBF0FBECDBFDF91CF9183
:101790001F910F91FF90EF90DF90CF90BF90AF908F
:1017A0009F908F907F906F905F904F903F902F9081
:1017B0000895CF93DF93239A259A229A24982A9A00
:1017C00083E58CBD8DB58E7F8DBDC0E0D0E00E94DD
:1017D00088092196CA30D105D1F72A98C0E0D0E017
:1017E00040E050E060E070E080E00E949E098130BF
:1017F00031F081E0CF3FD807E1F02196F1CFC0E092
:10180000D0E040E050E060E070E081E00E949E099E
:1018100080FF06C08FE7CF3FD80759F02196F1CF60
:1018200040E052E060E070E080E10E949E09882381
:1018300021F02A9A80E090E009C02A9A8CB58C7F2A
:101840008CBD8DB581608DBD81E090E0DF91CF9141
:101850000895FF920F931F93CF93DF938C01F62E81
:10186000C0E0D0E004C08EEC93E00E942712F801A3
:10187000EC0FF11D649121966623A9F7FF2051F02A
:101880006AE08EEC93E00E941F126DE08EEC93E014
:101890000E941F12DF91CF911F910F91FF90089529
:1018A0001F920F920FB60F9211242F933F934F93D5
:1018B0005F936F938F939F93AF93BF93EF93FF9338
:1018C000E091AB03F091AC03309709F4A3C02091F1
:1018D000A5013091A6018091A3019091A401281740
:1018E000390709F046C08091A1018823B1F18091A8
:1018F000A9019091AA014BEA52E02BEA31E084174A
:10190000950749F43093AA012093A9015093A801A7
:101910004093A70108C05093AA014093A9013093B6
:10192000A8012093A7018091A9019091AA01909309
:10193000A6018093A50180509F4F9093A4018093AE
:10194000A3011092A1018091A201882391F48091BA
:101950006F00846080936F000CC081899289A38995
:10196000B4890196A11DB11D818B928BA38BB48B81
:1019700051C05A985C985B9A5B985C9A5B9A5B98AA
:101980005B9A5B985B9A5B988781803109F5E0915F
:10199000A501F091A6018181805890E087FF02C0E7
:1019A0005C9A01C05C985B9A880F5B989F5F983047
:1019B000A9F7808190E087FF02C05C9A01C05C9823
:1019C0005B9A880F5B989F5F9430A9F732961BC093
:1019D0008830E9F4E091A501F091A601808198E0BA
:1019E00087FF02C05C9A01C05C985B9A880F5B9885
:1019F0009150B1F75B9A5B985B9A5B985B9A5B98A6
:101A00005B9A5B983196F093A601E093A5015A9AF0
:101A10005D985D9AFF91EF91BF91AF919F918F91EA
:101A20006F915F914F913F912F910F900FBE0F904B
:101A30001F90189508950895CF93DF93EC0180913E
:101A40006F008D7F80936F008D89882319F00E942D
:101A5000E00A1D8AE091AB03F091AC03108A10926A
:101A6000AC031092AB03DF91CF910895AF92BF9278
:101A7000CF92DF92EF92FF920F931F93CF93DF935A
:101A8000CDB7DEB725970FB6F894DEBF0FBECDBF3A
:101A90007C018B016A01FC0180859185A285B3855B
:101AA0000097A105B10509F03FC044E050E0BE0138
:101AB0006F5F7F4F868997890E946205049709F0BE
:101AC000EDC01D8244E050E0BE016F5F7F4FF70123
:101AD000868997890E946205049709F0DFC0F701A3
:101AE0001086118612861386AE014C5F5F4FF70198
:101AF00080859185A285B385BA2FA92F982F882735
:101B000080879187A287B387FA012081820F911D78
:101B1000A11DB11DF70180879187A287B38741502E
:101B200050404C175D0719F7F1E0CF16F2E0DF06E1
:101B300018F0C12C82E0D82EF7012085318542852E
:101B40005385C601AA27BB27281739074A075B0711
:101B500008F46901F701A688B788F501828D938D95
:101B6000A48DB58D9170A070B070F7012589009794
:101B7000A105B105C1F42223C9F4A601B801C5012C
:101B80000E9485068C018C159D0541F060E085EB77
:101B900090E00E94290C0E94E00A82C081E0F701D7
:101BA000858B680169C0222309F45CC0B601C801B5
:101BB0000E94A20A5C018C159D0539F060E08FEA55
:101BC00090E00E94290C0E94E00AF701668977895B
:101BD000950144275527FB01828D938DA48DB58DEA
:101BE000820F931FA41FB51F828F938FA48FB58F71
:101BF0009170A070B0700097A105B105E1F50E9449
:101C0000E00AF701158A06891789F801C080D1809A
:101C1000F6012089318944275527F801628D738D9B
:101C2000848D958D0E94341661157105810591058D
:101C300011F5F801668D778DC6010E94CC04F8017C
:101C4000978F868F892BB9F4F701A689B789FD0193
:101C5000178E168E61E085E990E00E94290C0FEF47
:101C60001FEF1EC0A601B801C5010E9462058C15B8
:101C70009D05A1F401C06501960144275527F70190
:101C800080859185A285B385821B930BA40BB50B30
:101C900080879187A287B387860102C000E010E0A9
:101CA000C80125960FB6F894DEBF0FBECDBFDF91F9
:101CB000CF911F910F91FF90EF90DF90CF90BF9049
:101CC000AF900895CF92DF92EF92FF920F931F9300
:101CD000CF93DF93EC0129813A814B815C8160E0F5
:101CE00074E284EF90E00E94341669017A01D09387
:101CF000AC03C093AB030BEA12E01093A601009370
:101D0000A50142E050E0B801CE010E94360D892BBA
:101D100009F44AC08091A5019091A6010296909382
:101D2000A4018093A301EE89FF89828D938D40E009
:101D300051E0481B5109B8016E5F7F4F8091AB03A2
:101D40009091AC030E94360D9C01892B69F1809122
:101D5000A3019091A401820F931F9093A4018093FB
:101D6000A30140E051E06BEA71E08091AB039091F8
:101D7000AC030E94360D81E08093A101888B109204
:101D8000800089E080938100D0928900C092880011
:101D900081E090E090938B0080938A0080916F00A7
:101DA000826080936F007894DF91CF911F910F91A3
:101DB000FF90EF90DF90CF9008951F920F920FB693
:101DC0000F9211242F933F934F935F936F937F93C1
:101DD0008F939F93AF93BF93EF93FF9380916F0087
:101DE0008B7F80936F008091A1018823F9F481E0BB
:101DF0008093A20178946091A7017091A80140E0BE
:101E000051E08091AB039091AC030E94360D892B79
:101E100031F48091AB039091AC030E941C0DF894B7
:101E20001092A20181E08093A1017894FF91EF913B
:101E3000BF91AF919F918F917F916F915F914F91E2
:101E40003F912F910F900FBE0F901F901895CF923A
:101E5000DF92EF92FF920F931F93CF93DF93CDB753
:101E6000DEB728970FB6F894DEBF0FBECDBF8C014A
:101E70007B0144E050E0BE016F5F7F4FC7010E94CD
:101E80006205049709F0EFC06E010894C11CD11CD3
:101E900044E050E062E071E0C6010E94D115892B58
:101EA00009F0E1C0F3C044E050E067E071E0C60132
:101EB00004960E94D115892B09F0D5C0F2C044E0E8
:101EC00050E06CE071E0C6010E94D115892B09F049
:101ED000CAC0F2C0AE014C5F5F4FF80184859585A2
:101EE000A685B785BA2FA92F982F8827848795872D
:101EF000A687B787FA012081820F911DA11DB11D10
:101F0000F80184879587A687B787415050404C17C2
:101F10005D0719F74097A105B10509F0A4C048E095
:101F200050E0BE016F5F7F4FC7010E9462050897B6
:101F300009F099C08A819927AA27BB27BA2FA92F10
:101F4000982F88272981820F911DA11DB11D01970E
:101F5000A105B10521F061E082ED90E082C08C81A5
:101F60009927AA27BB272227382F492F5A2F8B8141
:101F7000280F311D411D511D2330310541055105EB
:101F800008F071C0F8012083FE013896BE016C5F35
:101F90007F4F542F432F322F22278081280F311D4E
:101FA000411D511D3197E617F70799F7F801218375
:101FB00032834383548348E050E0BE016F5F7F4F1C
:101FC000C7010E946205089709F04DC08E819927CC
:101FD000AA27BB27BA2FA92F982F88272D81820FD8
:101FE000911DA11DB11DF8019683858388859927D0
:101FF000AA27BB272227382F492F5A2F8F81280F36
:10200000311D411D511D213131054105510558F545
:10201000278381819281A381B4818332F6E59F0772
:10202000F0E0AF07F0E0BF0718F0293060F407C018
:1020300081589E43A040B04048F0293038F0F80164
:102040008081823018F031E0D32E01C0DD2461E0C0
:1020500081ED90E00E94290CDD2041F061E08BEBE6
:1020600090E00E94290C80E090E036C0F8011086D4
:10207000118612861386F78AE68A118A128A138AD3
:10208000148A108A158A81E090E026C048E050E06A
:10209000BE016F5F7F4FC7010E946205089719F765
:1020A00002CF44E050E0BE016F5F7F4FC7010E9446
:1020B00062050497C1F603CFF801148615861686CB
:1020C000178644E050E0BE016F5F7F4FC7010E945A
:1020D0006205049741F6FECE28960FB6F894DEBF4F
:1020E0000FBECDBFDF91CF911F910F91FF90EF9069
:1020F000DF90CF900895CF93DF93EC01EE89FF89B5
:102100006289738984899589DF91CF9108959A01B5
:10211000AB0160E074E284EF90E00E9434163093EB
:1021200089002093880008950F931F93CF93DF9326
:10213000CDB7DEB724970FB6F894DEBF0FBECDBF84
:102140008C01DB01CA01807089839A83AB83BC83D5
:10215000F8018089882349F0F894F801858988235B
:1021600021F00E94E00AF801158A40E0BE016F5F8D
:102170007F4FF801868997890E948307F801A68915
:10218000B789FD0182899389A489B58929813A811A
:102190004B815C81821B930BA40BB50BF8018087EC
:1021A0009187A287B387789424960FB6F894DEBF00
:1021B0000FBECDBFDF91CF911F910F910895CF93A7
:1021C000DF93CDB7DEB72D970FB6F894DEBF0FBE05
:1021D000CDBF88EC93E00E94C20161E08CEE90E0FC
:1021E0000E94290CBE016F5F7F4F88EC93E00E9434
:1021F0009101882341F0BE016F5F7F4F8EEC93E029
:102200000E944312EFCF88EC93E00E94C2012D960A
:102210000FB6F894DEBF0FBECDBFDF91CF9108950A
:1022200040E855E260E070E08EEC93E00E9410120E
:1022300061E171E08EEC93E00E94431261E082E084
:102240000E948A1361E083E00E948A1361E084E0C7
:102250000E948A1361E085E00E948A1361E089E0B0
:102260000E948A1388EC93E00E941001882321F4D5
:1022700061E08CE391E01DC088EC93E00E941401C2
:10228000882321F461E08EE291E013C088EC93E0B2
:102290000E944201882321F461E088E191E009C0B5
:1022A00088EC93E00E945801882331F461E086E0D5
:1022B00091E00E94290C089561E089EF90E00E946E
:1022C000290C0E94DF100895BC0188EC93E00E9465
:1022D0001502BC019093C7038093C603892B21F498
:1022E00061E080E691E009C08EEA93E00E94270F4A
:1022F000882331F461E08FE491E00E94290C089575
:102300008EEA93E00E94620E08950E9464110BC051
:1023100060E084E791E00E94290C64E670E080E0D0
:1023200090E00E9411138091BE03882389F7609189
:10233000C6037091C70388EC93E00E941E020895C3
:102340000F931F93CF93DF93CDB7DEB72F970FB6C1
:10235000F894DEBF0FBECDBF88EC93E00E94C201AF
:1023600000E010E00EC0BE016F5F7F4F88EC93E08D
:102370000E9491010F5F1F4F882319F41092AD0343
:1023800022C0202F33278091AD039927019628176B
:1023900039074CF360E086E791E00E94290CBE010A
:1023A0006F5F7F4F8EEC93E00E94231288EC93E0E6
:1023B0000E94C201CE0101960E9485118091AD0359
:1023C0008F5F8093AD032F960FB6F894DEBF0FBEDC
:1023D000CDBFDF91CF911F910F910895CFEFD4E042
:1023E000DEBFCDBF0E9440130E9410110E94A011B9
:1023F000FDCF6F5F7F4F51F4019741F488EC93E07C
:102400000E940F018EEA93E00E941B0D08956FEF6A
:102410007FEF81E090E00E94F911089508950895FA
:10242000CB01BA010E943C1408950E947D149927A3
:1024300008950E948D1408950E94AC140895862F6B
:102440000E94F3140895CB010E94FA140895862F78
:102450000E94F31408950F931F938C016DE00E9466
:102460001F126AE0C8010E941F121F910F91089568
:102470000F931F938C010E941F12C8010E942B1200
:102480001F910F9108950F931F938C010E942312A7
:10249000C8010E942B121F910F9108950F931F9353
:1024A0008C010E942712C8010E942B121F910F91CC
:1024B0000895CB01BA013327442755270E940715F9
:1024C00008952AE00E94591208950F931F938C01DA
:1024D0000E946112C8010E942B121F910F91089552
:1024E000AB01662777270E9461120895EF92FF9251
:1024F0000F931F93CF93DF93EC017A018B0177FF4A
:102500000BC06DE20E941F1210950095F094E094AC
:10251000E11CF11C011D111D2AE0B801A701CE012B
:102520000E945912DF91CF911F910F91FF90EF9070
:1025300008950F931F938C010E947612C8010E9488
:102540002B121F910F9108952115310521F4642F4D
:102550000E941F1208952A30310519F40E94761244
:1025600008950E94591208950F931F938C010E94A1
:10257000A412C8010E942B121F910F910895AB0164
:10258000662757FD6095762F0E94761208950F9367
:102590001F938C010E94BF12C8010E942B121F9131
:1025A0000F910895089508951F920F920FB60F92FC
:1025B00011248F939F93AF93BF938091D3039091F6
:1025C000D403A091D503B091D6030196A11DB11DEE
:1025D0008093D3039093D403A093D503B093D603F1
:1025E000BF91AF919F918F910F900FBE0F901F9051
:1025F00018956091D3037091D4038091D503909185
:10260000D60327E0660F771F881F991F2A95D1F7F9
:102610002DE730E040E050E00E943416CA01B901D5
:102620000895AF92BF92CF92DF92EF92FF920F93F5
:102630001F935B016C010E94F9127B018C010E94C7
:10264000F9126E197F09800B910B6A157B058C05B9
:102650009D05A8F31F910F91FF90EF90DF90CF9011
:10266000BF90AF900895019751F0880F991F880F80
:10267000991F02972FB7F8940197F1F72FBF08958C
:1026800078941092D3031092D4031092D503109231
:10269000D60384B5826084BD84B5816084BD85B570
:1026A000826085BD85B5816085BDEEE6F0E0808104
:1026B00081608083E1E8F0E08081826080838081B6
:1026C00081608083E0E8F0E0808181608083E1EBDD
:1026D000F0E0808184608083E0EBF0E080818160C5
:1026E0008083ECE7F0E080818F7780838081806455
:1026F0008083EAE7F0E0808184608083808182606B
:102700008083808181608083808180688083109253
:10271000C1000895282F3327C9018B569E4FFC0115
:10272000949127553E4FF9018491882381F0E82F39
:10273000FF27E953FE4FE491FF27662329F48081A8
:1027400090958923808308958081892B80830895C3
:10275000482F5527CA018F579E4FFC012491CA016B
:102760008B569E4FFC01949147555E4FFA01349170
:102770003323A1F1222331F1233021F48091800011
:102780008F7705C0243031F4809180008F7D809355
:10279000800018C0213019F484B58F7704C022302E
:1027A00021F484B58F7D84BD0DC0263021F4809145
:1027B000B0008F7705C0273029F48091B0008F7D5D
:1027C0008093B000E32FFF27E354FE4FE491FF27EF
:1027D0008081892319F081E090E0089580E090E005
:1027E0000895482F5527CA018F579E4FFC01249109
:1027F000CA018B569E4FFC01949147555E4FFA01DA
:1028000034913323C1F1222331F1233021F480911B
:1028100080008F7705C0243031F4809180008F7D57
:102820008093800018C0213019F484B58F7704C0DC
:10283000223021F484B58F7D84BD0DC0263021F473
:102840008091B0008F7705C0273029F48091B000C7
:102850008F7D8093B000E32FFF27EE53FE4FE4916E
:10286000FF27662329F4808190958923808308952A
:102870008081892B80830895EF92FF920F931F939D
:102880007B018C0122E030E040E050E00E945616CF
:10289000205C3D4B404F5F4FCA01B901A801970131
:1028A0000E9456162150304040405040BB2757FDF3
:1028B000BA95A52F942F832F2F5F3F4F4F4F5F4F18
:1028C0008093C50021502093C400E1ECF0E08081AA
:1028D000806180838081886080838081806880833C
:1028E0001F910F91FF90EF900895982F8091C00055
:1028F00085FFFCCF9093C60008958091D1039091FD
:10290000D2032091CF033091D003821B930B80968A
:1029100060E270E00E94211608954091CF0350912B
:10292000D0038091D1039091D2038417950719F4B5
:102930008FEF9FEF0895FA01E952FC4F2081CA0101
:10294000019660E270E00E9421169093D00380937C
:10295000CF03822F992708958091CF039091D003C0
:102960009093D2038093D10308951F920F920FB6D4
:102970000F9211242F933F934F935F936F937F9305
:102980008F939F93AF93BF93EF93FF934091C600B4
:10299000E091D103F091D203CF01019660E270E0A3
:1029A0000E9421169C018091CF039091D00328179B
:1029B000390739F0E952FC4F40833093D20320931A
:1029C000D103FF91EF91BF91AF919F918F917F9133
:1029D0006F915F914F913F912F910F900FBE0F908C
:1029E0001F90189508950E94751408958AE00E941A
:1029F000F3140895CF93DF93EC0103C021960E9456
:102A0000F31488818823D1F7DF91CF9108952F9215
:102A10003F924F925F926F927F928F929F92AF926E
:102A2000BF92CF92DF92EF92FF920F931F93CF93BB
:102A3000DF93CDB7DEB7A0970FB6F894DEBF0FBE19
:102A4000CDBF6B017C0119012A016115710581055A
:102A5000910521F480E30E94F3144BC0662477248F
:102A600043015E010894A11CB11C8501060D171DD0
:102A7000C701B601A20191010E943416F8016083DA
:102A80000894611C711C811C911CC701B601A20134
:102A900091010E94341669017A0121153105410521
:102AA000510519F773010894E108F108EA0CFB1CC1
:102AB000AA24BB24650111C0F70180818A3010F47B
:102AC000805D01C0895C0E94F3140894A108B108DC
:102AD000C108D1080894E108F10888279927DC018A
:102AE00086199709A809B909A816B906CA06DB0606
:102AF00019F7A0960FB6F894DEBF0FBECDBFDF91D9
:102B0000CF911F910F91FF90EF90DF90CF90BF90EA
:102B1000AF909F908F907F906F905F904F903F907D
:102B20002F900895EF92FF920F931F937B018C01DA
:102B300097FF0BC08DE20E94F31410950095F0945E
:102B4000E094E11CF11C011D111D2AE030E040E081
:102B500050E0C801B7010E9407151F910F91FF9027
:102B6000EF90089520E130E040E050E00E9407152A
:102B7000089528E030E040E050E00E9407150895F5
:102B800022E030E040E050E00E9407150895FB018C
:102B9000DC018D910190801911F40020D1F7990B7F
:102BA0000895FB01DC014150504030F08D910190BF
:102BB000801919F40020B9F7881B990B0895FB01BF
:102BC000DC014150504048F001900D920020C9F7BF
:102BD00001C01D9241505040E0F70895629FD0011E
:102BE000739FF001829FE00DF11D649FE00DF11DC8
:102BF000929FF00D839FF00D749FF00D659FF00D77
:102C00009927729FB00DE11DF91F639FB00DE11D63
:102C1000F91FBD01CF0111240895AA1BBB1B51E16F
:102C200007C0AA1FBB1FA617B70710F0A61BB70B3C
:102C3000881F991F5A95A9F780959095BC01CD01E1
:102C4000089597FB092E07260AD077FD04D0E5DF0B
:102C500006D000201AF4709561957F4F0895F6F71D
:102C6000909581959F4F0895A1E21A2EAA1BBB1B38
:102C7000FD010DC0AA1FBB1FEE1FFF1FA217B30748
:102C8000E407F50720F0A21BB30BE40BF50B661F5E
:102C9000771F881F991F1A9469F760957095809522
:102CA00090959B01AC01BD01CF01089597FB092EC2
:102CB00005260ED057FD04D0D7DF0AD0001C38F40B
:102CC00050954095309521953F4F4F4F5F4F089558
:102CD000F6F790958095709561957F4F8F4F9F4F38
:0E2CE0000895EE0FFF1F0590F491E02D09946A
:102CEE00FFFF52494646005741564500666D742017
:0C2CFE0000576176652074657374210036
:00000001FF
