:100000000C9435000C945B000C945B000C945B002A
:100010000C945B000C945B000C945B000C945B00F4
:100020000C945B000C945B000C945B000C945B00E4
:100030000C945B000C945B000C945B000C945B00D4
:100040000C9429080C945B000C945B000C945B00EE
:100050000C945B000C945B000C945B000C945B00B4
:100060000C945B000C945B00220811241FBECFEFA0
:10007000D4E0DEBFCDBF11E0A0E0B1E0ECE3F4E1FD
:1000800002C005900D92A630B107D9F713E0A6E0A3
:10009000B1E001C01D92A73AB107E1F710E0CAE64E
:1000A000D0E004C02297FE010E941A0AC836D10788
:1000B000C9F70C94FF070C9400000F931F938C0159
:1000C00064E070E089E190E00E94D708F801918334
:1000D00080831F910F9108950F931F938C0164E00B
:1000E00070E089E190E00E94D708F8019183808355
:1000F0001F910F9108956EBD0DB407FEFDCF0895B9
:1001000081E797E100000197E9F70895FC0101906C
:10011000F081E02D84E611928A95E9F70895FC01BB
:1001200055278081918177272223D9F0FA01EE0F9C
:10013000FF1FEE0FFF1FE80FF91F21E030E040E046
:1001400050E004C0220F331F441F551F6A95D2F799
:1001500080819181A281B381822B932BA42BB52B1B
:100160001EC0FA01EE0FFF1FEE0FFF1FE80FF91F71
:1001700021E030E040E050E004C0220F331F441F74
:10018000551F6A95D2F720953095409550958081FE
:100190009181A281B38182239323A423B5238083F9
:1001A0009183A283B3830895DC01E62FFF27EE0F2E
:1001B000FF1FEE0FFF1F8D919C91E80FF91F208309
:1001C0003183428353830895FC017727660F771F9D
:1001D000660F771F0190F081E02DE60FF71F8081F9
:1001E0009181A281B381822B932BA42BB52B808389
:1001F0009183A283B3830895FC015527440F551FB3
:10020000440F551F0190F081E02DE40FF51F21E010
:1002100030E040E050E004C0220F331F441F551F60
:100220006A95D2F780819181A281B381822B932B31
:10023000A42BB52B80839183A283B3830895DC0123
:10024000E42FFF27EE0FFF1FEE0FFF1F8D919C91F4
:10025000E80FF91F80819181A281B38104C0B69516
:10026000A795979587956A95D2F7817099270895F4
:10027000FC015527440F551F440F551F0190F08175
:10028000E02DE40FF51F21E030E040E050E004C035
:10029000220F331F441F551F6A95D2F720953095C2
:1002A0004095509580819181A281B38182239323CF
:1002B000A423B52380839183A283B3830895AF924F
:1002C000BF92CF92DF92EF92FF920F931F93CF9343
:1002D000DF935C01362F542F69311CF029310CF06B
:1002E0007BC059311CF009310CF076C0E22FFF279A
:1002F000E7FDF095832F992787FD9095E81BF90B73
:10030000F7FF03C0F095E195FF4FDE2EE02FFF27AA
:10031000E7FDF095852F992787FD9095E81BF90B50
:10032000F7FF03C0F095E195FF4FEE2EED155CF55C
:1003300032171CF4232F452F02C0402F052F4017E2
:100340001CF461E0C62E02C05FEFC52E142F022FF1
:10035000FF24C0E0D0E014C0FE0CDF1414F4FD183C
:100360001C0D193148F407FD07C009312CF4412F49
:10037000602FC5010E94FC000F5F2196093164F5D2
:10038000DC1654F729C050171CF4632F052F02C048
:10039000622F232F62171CF431E0C32E02C02FEF0F
:1003A000C22E162FFF24C0E0D0E014C0FD0CEF14C5
:1003B00014F4FE181C0D093148F417FD07C019315B
:1003C0002CF4402F612FC5010E94FC000F5F219685
:1003D000093114F4EC1654F7DF91CF911F910F916E
:1003E000FF90EF90DF90CF90BF90AF900895FC0109
:1003F000628343830895DF92EF92FF920F931F93DE
:100400007C01162FD42E042F262FFC0143816281FC
:100410000E945F01F7011283D3821F910F91FF9019
:10042000EF90DF9008951BB88FEF8AB984B18E6288
:1004300084B980E58CBD1EBC0DB407FEFDCF1EBC8B
:100440000DB407FEFDCF1EBC0DB407FEFDCF1EBCD4
:100450000DB407FEFDCF299A299808950F931F9395
:10046000CF93DF938C01EB0140E050E030EA3CC0D9
:100470004F5F5F4FF8016081718102C0882319F4DA
:1004800020E03BB909C0803110F48BB904C02E5074
:100490002295207F2BB9282F82E390E0000001975E
:1004A000E9F7E22FFF27EE0FFF1FEE0FFF1FE60F0A
:1004B000F71F80819181A281B381BEBD0DB407FE7B
:1004C000FDCFAEBD0DB407FEFDCF9EBD0DB407FE42
:1004D000FDCF1BB88EBD0DB407FEFDCF299A29981C
:1004E000822F8F5F893150F24C175D0709F0C0CF22
:1004F000DF91CF911F910F910895FF920F931F935A
:10050000CF93DF938C01EB0140E050E080EAF82EBE
:1005100036C04F5F5F4FF8016081718130E002C0EB
:10052000332311F4FBB808C0303110F43BB904C0D8
:100530002E502295207F2BB9232FE32FFF27EE0F7C
:10054000FF1FEE0FFF1FE60FF71F80819181A28131
:10055000B381BEBD0DB407FEFDCFAEBD0DB407FE29
:10056000FDCF9EBD0DB407FEFDCF1BB88EBD0DB4F3
:1005700007FEFDCF299A29983F5F393188F24C1741
:100580005D0739F6DF91CF911F910F91FF9008958C
:100590002F923F924F925F926F927F928F929F9293
:1005A000AF92BF92CF92DF92EF92FF920F931F9381
:1005B000CF93DF938BE993E00E9413028BE993E0E2
:1005C0000E94860087E993E00E94860014E2E12EF3
:1005D00019E4F12E012D112DE0929003F092910378
:1005E000009392031093930329E432E940E050E032
:1005F00020938C0330938D0340938E0350938F038D
:1006000082E994E2A0E0B0E08093880390938903AC
:10061000A0938A03B0938B03E0928403F092850346
:100620000093860310938703209380033093810304
:10063000409382035093830380937C0390937D03C4
:10064000A0937E03B0937F03B4E2EB2EB1E0FB2EC8
:10065000012D112DE0927803F092790300937A0333
:1006600010937B0329E430E040E050E020937403D2
:1006700030937503409376035093770382E990E0BB
:10068000A0E0B0E08093700390937103A093720395
:10069000B0937303E0926C03F0926D0300936E03CA
:1006A00010936F03209368033093690340936A03A8
:1006B00050936B038093640390936503A093660348
:1006C000B093670325E030E000E613E0A8E96A2E66
:1006D000A2E07A2EF0ED8F2EF1E09F2EECEFAE2E01
:1006E000E2E0BE2E74E3C72E72E0D72E6CE6E62E53
:1006F00061E0F62EB901660F771F660F771FFB01C9
:10070000E458FC4F80819181A281B38149E0880F38
:10071000991FAA1FBB1F4A95D1F7F80180839183C7
:10072000A283B383E9012197AE01440F551F440F03
:10073000551FFA01E458FC4F80819181A281B38159
:10074000E9E0880F991FAA1FBB1FEA95D1F7F301B3
:1007500080839183A283B38322503040220F331FC2
:10076000220F331FF901E458FC4F80819181A2814F
:10077000B381E9E0880F991FAA1FBB1FEA95D1F743
:10078000F40180839183A283B3836C597C4FFB0176
:1007900080819181A281B381F50180839183A283BD
:1007A000B3834C595C4FFA0180819181A281B3815E
:1007B000F60180839183A283B3832C593C4FF901C6
:1007C00080819181A281B381F70180839183A2838B
:1007D000B383C330D10518F425E030E001C09E0199
:1007E000045010408CEF9FEF680E791E880E991E02
:1007F000A80EB91EC80ED91EE80EF91E93E00432E9
:10080000190709F077CF212CA8E43A2EA2E94A2E45
:10081000512C2092240330922503409226035092BB
:100820002703612CF2E97F2EF4E28F2EF1E09F2E58
:1008300060922003709221038092220390922303FE
:1008400080E094E2A9E8B0E080931C0390931D033C
:10085000A0931E03B0931F0380E098E4A0E5B0E0EE
:100860008093180390931903A0931A03B0931B036A
:1008700060921403709215038092160390921703EE
:1008800080E094E2A2E9B0E080931003909311031A
:10089000A0931203B093130380E098E0A9E4B0E0C2
:1008A00080930C0390930D03A0930E03B0930F035A
:1008B000609208037092090380920A0390920B03DE
:1008C00020920403309205034092060350920703DE
:1008D00080E090E0A9E4B0E08093000390930103EE
:1008E000A0930203B0930303E4E2AE2EE1E0BE2E38
:1008F000C12CD12CA092C002B092C102C092C202FF
:10090000D092C30279E4E72EF12C012D112DE09253
:10091000BC02F092BD020093BE021093BF0222E916
:1009200030E040E050E02093B8023093B9024093A9
:10093000BA025093BB02A092B402B092B502C09228
:10094000B602D092B702E092B002F092B1020093E8
:10095000B2021093B3022093AC023093AD024093E5
:10096000AE025093AF02A092A802B092A902C09228
:10097000AA02D092AB02E092A402F092A5020093E8
:10098000A6021093A7022093A0023093A1024093E5
:10099000A2025093A302A0929C02B0929D02C09228
:1009A0009E02D0929F0260925C0270925D028092E1
:1009B0005E0290925F02612C64E2762E69E4862EDC
:1009C000912C609258027092590280925A02909231
:1009D0005B0280E090E5A4E5B0E080935402909340
:1009E0005502A0935602B093570280E092EBA2E228
:1009F000B1E08093500290935102A0935202B093C1
:100A0000530280E094E2A9E8B0E080934C02909316
:100A10004D02A0934E02B0934F0280E098E8A4E408
:100A2000B0E08093480290934902A0934A02B093A9
:100A30004B0280E092E5A2E2B1E080934402909301
:100A40004502A0934602B093470280E094E2A1E9F8
:100A5000B0E08093400290934102A0934202B09391
:100A6000430280E092E9A8E4B0E080933C029093D6
:100A70003D02A0933E02B0933F0280E09CE6A4E2D8
:100A8000B1E08093380290933902A0933A02B09378
:100A90003B0260929401709295018092960190922F
:100AA00097012092900130929101409292015092D0
:100AB000930180E09AE8A2E2B1E080938C019093E8
:100AC0008D01A0938E01B0938F0180E094E0ADE89A
:100AD000B0E08093880190938901A0938A01B0933C
:100AE0008B0180E098E4A2E5B0E0809384019093CC
:100AF0008501A0938601B093870180E092E5A9E289
:100B0000B1E08093800190938101A0938201B09322
:100B1000830180E094EAA4E9B0E080937C019093A3
:100B20007D01A0937E01B0937F0180E098E4AAE468
:100B3000B0E08093780190937901A0937A01B0930B
:100B40007B0180E094E2A5E2B1E080937401909390
:100B50007501A0937601B093770180E092E9A2E954
:100B6000B0E08093700190937101A0937201B093F3
:100B700073012093F8013093F9014093FA015093E7
:100B8000FB012093F4013093F5014093F60150935B
:100B9000F701A092F001B092F101C092F201D0925F
:100BA000F301E092EC01F092ED010093EE0110935D
:100BB000EF012093E8013093E9014093EA0150935B
:100BC000EB01A092E401B092E501C092E601D0925F
:100BD000E701E092E001F092E1010093E20110935D
:100BE000E3012093DC013093DD014093DE0150935B
:100BF000DF01A092D801B092D901C092DA01D0925F
:100C0000DB01E092D401F092D5010093D60110935C
:100C1000D701E0923001F09231010093320110933C
:100C20003301A0922C01B0922D01C0922E01D092DE
:100C30002F01E0922801F092290100932A011093DC
:100C40002B012093240130932501409326015093DA
:100C50002701A0922001B0922101C0922201D092DE
:100C60002301E0921C01F0921D0100931E011093DC
:100C70001F01209318013093190140931A015093DA
:100C80001B01A0921401B0921501C0921601D092DE
:100C90001701E0921001F0921101009312011093DC
:100CA000130120930C0130930D0140930E015093DA
:100CB0000F0126B183B12F7199278170907035E0B3
:100CC000880F991F3A95E1F7282B20930A01DF91AD
:100CD000CF911F910F91FF90EF90DF90CF90BF9039
:100CE000AF909F908F907F906F905F904F903F90CC
:100CF0002F900895EF92FF920F931F9326B183B127
:100D00002F7199278170907005E0880F991F0A95BF
:100D1000E1F7282B20930B0180910A018227809311
:100D20000A01882379F1822380930A0180FF2AC077
:100D30000E944E089B01AC01809106019091070131
:100D4000A0910801B091090179018A01E81AF90A14
:100D50000A0B1B0BD801C701C397A105B10550F0C1
:100D600080919403882321F481E08093940302C04E
:100D700010929403209306013093070140930801D9
:100D80005093090180910B0180930A011F910F91EB
:100D9000FF90EF900895CF93DF93C0E0D0E020E084
:100DA0003EEF4FEF51E06C2F8BE993E00E94D400AF
:100DB0002FEF31E040E050E06C2F87E993E00E9494
:100DC000D4002196C931D10551F7DF91CF91089513
:100DD000CF92DF92EF92FF920F931F93CF93DF9307
:100DE0008C016B018BE993E00E94860087E993E018
:100DF0000E948600C801880F991F880F991F20E75D
:100E0000E22E21E0F22EE80EF91EEC01C45FDE4F67
:100E100016C0F70121913191419151917F01602FCD
:100E20008BE993E00E94D40029913991499159911D
:100E3000602F87E993E00E94D4000F5F1F4FC01618
:100E4000D1063CF7DF91CF911F910F91FF90EF906A
:100E5000DF90CF900895CF92DF92EF92FF920F93A1
:100E60001F93CF93DF938C016B018BE993E00E947A
:100E7000860087E993E00E948600C801880F991FC9
:100E8000880F991F40E0E42E43E0F42EE80EF91E8F
:100E9000EC01C456DD4F16C0F7012191319141910B
:100EA00051917F01602F8BE993E00E94D40029913A
:100EB000399149915991602F87E993E00E94D400BC
:100EC0000F5F1F4FC016D1063CF7DF91CF911F91E6
:100ED0000F91FF90EF90DF90CF900895CF92DF9227
:100EE000EF92FF920F931F93CF93DF938C016B01CF
:100EF0008BE993E00E94860087E993E00E948600D8
:100F0000C801880F991F880F991F68E3E62E62E0D9
:100F1000F62EE80EF91EEC01CC52DE4F16C0F7019A
:100F200021913191419151917F01602F8BE993E0A3
:100F30000E94D4002991399149915991602F87E9F4
:100F400093E00E94D4000F5F1F4FC016D1063CF7FC
:100F5000DF91CF911F910F91FF90EF90DF90CF9095
:100F600008950E947A0680919403882319F00E94C4
:100F7000CB062BC020919503309196032A30310582
:100F80003CF468E170E080E090E00E946E071DC0D4
:100F9000C9010A970A9738F468E170E080E090E0B0
:100FA0000E942B0712C0C90144970A9738F468E1E0
:100FB00070E080E090E00E94E80607C02E31310525
:100FC00024F0109296031092950380919403882345
:100FD00049F480919503909196030196909396031E
:100FE0008093950366E070E08BE993E00E942E0207
:100FF00064E070E087E993E00E942E020895CFEF4D
:10100000D4E0DEBFCDBF0E9495080E94C8020E94B6
:10101000B107FDCF6F5F7F4FA1F4019791F48BE98A
:1010200093E00E946C0087E993E00E946C000E94AC
:101030004E08609306017093070180930801909316
:10104000090108956FEF7FEF81E090E00E940A08A8
:1010500008951F920F920FB60F9211248F939F93B2
:10106000AF93BF9380919F039091A003A091A103A0
:10107000B091A2030196A11DB11D80939F0390938F
:10108000A003A093A103B093A203BF91AF919F913E
:101090008F910F900FBE0F901F90189560919F0336
:1010A0007091A0038091A1039091A20327E0660FA5
:1010B000771F881F991F2A95D1F72DE730E040E070
:1010C00050E00E94F609CA01B9010895AF92BF929B
:1010D000CF92DF92EF92FF920F931F935B016C010F
:1010E0000E944E087B018C010E944E086E197F09F8
:1010F000800B910B6A157B058C059D05A8F31F914C
:101100000F91FF90EF90DF90CF90BF90AF90089538
:10111000019751F0880F991F880F991F02972FB7D9
:10112000F8940197F1F72FBF0895789410929F03D8
:101130001092A0031092A1031092A20384B58260C2
:1011400084BD84B5816084BD85B5826085BD85B56B
:10115000816085BDEEE6F0E0808181608083E1E81A
:10116000F0E0808182608083808181608083E0E81C
:10117000F0E0808181608083E1EBF0E08081846039
:101180008083E0EBF0E0808181608083EAE7F0E03B
:10119000808184608083808182608083808181609F
:1011A00080838081806880831092C10008950F93AE
:1011B0001F93CF93DF93869F8001879F100D969F8B
:1011C000100D1124C8010E94F308EC01009729F0CA
:1011D000A80160E070E00E94EC09CE01DF91CF91A0
:1011E0001F910F910895CF93DF93AC01029710F4F4
:1011F00042E050E0A091A503B091A603FD0120E0DC
:1012000030E0C0E0D0E020C0808191818417950754
:1012100069F482819381209719F09B838A8304C0AB
:101220009093A6038093A503CF0132C048175907B6
:1012300038F42115310519F08217930708F49C0141
:10124000EF010280F381E02D3097F1F62115310591
:1012500089F1C901841B950B049708F4A901E0E00A
:10126000F0E026C08D919C91119782179307E9F4C5
:101270004817590779F4ED018A819B81309719F05D
:101280009383828304C09093A6038093A503CD012A
:10129000029649C0841B950BFD01E80FF91F41938D
:1012A000519302978D939C933AC0FD01A281B38123
:1012B0001097C1F68091A3039091A403892B41F468
:1012C00080910201909103019093A4038093A30362
:1012D00020910001309101012115310541F42DB714
:1012E0003EB78091040190910501281B390BE091D4
:1012F000A303F091A4032E1B3F0B2417350788F09E
:10130000CA0102962817390760F0CF01840F951F94
:1013100002969093A4038093A30341935193CF012A
:1013200002C080E090E0DF91CF910895CF93DF93EA
:10133000009709F44EC0EC0122971B821A82A091FB
:10134000A503B091A603109711F140E050E001C051
:10135000DC01AC17BD0700F1BB83AA83FE0121911C
:101360003191E20FF31FEA17FB0771F48D919C9105
:101370001197280F391F2E5F3F4F39832883FD01B6
:10138000828193819B838A834115510559F4D093BF
:10139000A603C093A5031DC0FD0182819381AD0109
:1013A0000097B1F6FA01D383C28321913191E20F04
:1013B000F31FEC17FD0769F488819981280F391F05
:1013C0002E5F3F4FFA01318320838A819B81938373
:1013D0008283DF91CF910895DC0140FF03C001C0FB
:1013E0006D936D9342505040D8F70895A1E21A2EA4
:1013F000AA1BBB1BFD010DC0AA1FBB1FEE1FFF1FB9
:10140000A217B307E407F50720F0A21BB30BE40B08
:10141000F50B661F771F881F991F1A9469F760954F
:101420007095809590959B01AC01BD01CF01089509
:0C143000EE0FFF1F0590F491E02D0994D1
:06143C000000A7032000E0
:00000001FF
