:100000000C945A000C9475000C9475000C947500B7
:100010000C9475000C9475000C9475000C9475008C
:100020000C9475000C9475000C9475000C9475007C
:100030000C9475000C9475000C9475000C9475006C
:100040000C944E020C9475000C9475000C94750081
:100050000C9475000C9475000C9475000C9475004C
:100060000C9475000C94750000000007000201005C
:100070000003040600000000000000000102040864
:100080001020408001020408102001020408102002
:10009000040404040404040402020202020203032E
:1000A000030303030000232629000025282B00005A
:1000B00024272A0011241FBECFEFD4E0DEBFCDBF1E
:1000C00011E0A0E0B1E0E0EBF7E002C005900D9296
:1000D000A231B107D9F711E0A2E1B1E001C01D9250
:1000E000A032B107E1F70C9443020C940000DF92B8
:1000F000EF92FF920F931F93CF93DF93CDB7DEB7AD
:100100002A970FB6F894DEBF0FBECDBF7B01DE018C
:100110001196E8E0F1E02AE001900D922150E1F71C
:10012000FC01E057FF4F249184589F4FFC019491AC
:10013000E22FFF27EE0FFF1FEC0FFD1F0180F28162
:10014000E02D8F01005E1F4F80A1D92E892B80A347
:100150008AE090E00E94AD02F894F80180819D2D24
:1001600090958923808300000000000000000000BB
:10017000000000000000000000000000000000007F
:10018000000000000000000000000000000000006F
:10019000000000000000000000000000000000005F
:1001A000000000000000000000000000000000004F
:1001B000000000000000000000000000000000003F
:1001C00000000000000020E030E0E0FE04C0F80184
:1001D00080818D2903C0F8018081892380830000FC
:1001E000000000000000000000000000000000000F
:1001F00000000000000000000000000000000000FF
:1002000000000000000000000000000000000000EE
:1002100000000000000000000000000000000000DE
:1002200000000000000000000000000000000000CE
:100230000000000000000000000000000000F59435
:10024000E7942F5F3F4F2830310509F0BECFF8010A
:1002500080818D29808378942A960FB6F894DEBF2A
:100260000FBECDBFDF91CF911F910F91FF90EF9007
:10027000DF90089520911A0130911B012F3F310525
:1002800009F0ACF48091160190911701892B79F453
:100290002F5F3F4F30931B0120931A01809104017F
:1002A000909105010197909305018093040140917D
:1002B0001A0150911B014F3F510531F481E090E04C
:1002C0009093170180931601209118013091190124
:1002D0002F3F310509F094F4809116019091170198
:1002E000019761F42F5F3F4F30931901209318015C
:1002F0004150504050931B0140931A014091180106
:10030000509119014F3F510531F482E090E09093F4
:1003100017018093160120910401309105012F3FB0
:10032000310509F094F4809116019091170102971C
:1003300061F44150504050931901409318012F5FD0
:100340003F4F309305012093040180910401909167
:1003500005018F3F910521F41092170110921601AB
:10036000089561E0809106010E9404030E947302D7
:1003700060931201709313018093140190931501FF
:100380000895EF92FF920F931F93CF93DF9360E056
:10039000809106010E946B036AE070E080E090E0CB
:1003A0000E948B0260E070E080910601909107014D
:1003B0000E94770031E0E32EF12C08C088279927AE
:1003C0008E199F090817190779F47E0160911A01A7
:1003D00070911B0180910601909107010E947700A6
:1003E000E70100E010E01DC0C230D10529F46091A2
:1003F0001801709119010DC0C330D10529F4609125
:1004000004017091050105C0C430D10541F460E0DC
:1004100070E080910601909107010E9477000F5FC4
:100420001F4F2196C530D1054CF20E9473022091D6
:100430001201309113014091140150911501621B7A
:10044000730B840B950B20910001309101014091B9
:10045000020150910301261737074807590760F436
:100460000E943A010E94730260931201709313017B
:100470008093140190931501DF91CF911F910F91FB
:10048000FF90EF900895CFEFD4E0DEBFCDBF0E9484
:10049000BA020E94B1010E94C101FDCF1F920F92CA
:1004A0000FB60F9211248F939F93AF93BF938091B8
:1004B0001C0190911D01A0911E01B0911F01019698
:1004C000A11DB11D80931C0190931D01A0931E01DD
:1004D000B0931F01BF91AF919F918F910F900FBE6D
:1004E0000F901F90189560911C0170911D018091D3
:1004F0001E0190911F0127E0660F771F881F991F2B
:100500002A95D1F72DE730E040E050E00E94B60395
:10051000CA01B9010895AF92BF92CF92DF92EF92D4
:10052000FF920F931F935B016C010E9473027B018A
:100530008C010E9473026E197F09800B910B6A1562
:100540007B058C059D05A8F31F910F91FF90EF90FF
:10055000DF90CF90BF90AF900895019751F0880F32
:10056000991F880F991F02972FB7F8940197F1F7F9
:100570002FBF0895789410921C0110921D011092C3
:100580001E0110921F0184B5826084BD84B5816014
:1005900084BD85B5826085BD85B5816085BDEEE68B
:1005A000F0E0808181608083E1E8F0E0808182601A
:1005B0008083808181608083E0E8F0E080818160D9
:1005C0008083E1EBF0E0808184608083E0EBF0E009
:1005D000808181608083ECE7F0E080818F77808389
:1005E000808180648083EAE7F0E08081846080839A
:1005F0008081826080838081816080838081806847
:1006000080831092C1000895282F3327C901845890
:100610009F4FFC01949120573F4FF901849188230B
:1006200081F0E82FFF27E255FF4FE491FF27662373
:1006300029F4808190958923808308958081892B76
:1006400080830895482F5527CA0188599F4FFC0180
:100650002491CA0184589F4FFC01949140575F4FE9
:10066000FA0134913323A1F1222331F1233021F413
:10067000809180008F7705C0243031F48091800014
:100680008F7D8093800018C0213019F484B58F7756
:1006900004C0223021F484B58F7D84BD0DC0263086
:1006A00021F48091B0008F7705C0273029F4809124
:1006B000B0008F7D8093B000E32FFF27EC55FF4FF4
:1006C000E491FF278081892319F081E090E008956B
:1006D00080E090E00895482F5527CA0188599F4F20
:1006E000FC012491CA0184589F4FFC01949140570A
:1006F0005F4FFA0134913323C1F1222331F12330CA
:1007000021F4809180008F7705C0243031F48091EE
:1007100080008F7D8093800018C0213019F484B54B
:100720008F7704C0223021F484B58F7D84BD0DC045
:10073000263021F48091B0008F7705C0273029F44E
:100740008091B0008F7D8093B000E32FFF27E755A5
:10075000FF4FE491FF27662329F480819095892338
:10076000808308958081892B80830895A1E21A2EC9
:10077000AA1BBB1BFD010DC0AA1FBB1FEE1FFF1F45
:10078000A217B307E407F50720F0A21BB30BE40B95
:10079000F50B661F771F881F991F1A9469F76095DC
:1007A0007095809590959B01AC01BD01CF01089596
:1007B0000A000000FF00050000000000050008001E
:0207C0000B002C
:00000001FF
