:100000000C945A000C9475000C9475000C947500B7
:100010000C9475000C9475000C9475000C9475008C
:100020000C9475000C9475000C9475000C9475007C
:100030000C9475000C9475000C9475000C9475006C
:100040000C948C010C9475000C9475000C94750044
:100050000C9475000C9475000C9475000C9475004C
:100060000C9475000C94750000000007000201005C
:100070000003040600000000000000000102040864
:100080001020408001020408102001020408102002
:10009000040404040404040402020202020203032E
:1000A000030303030000232629000025282B00005A
:1000B00024272A0011241FBECFEFD4E0DEBFCDBF1E
:1000C00011E0A0E0B1E0ECE2F6E002C005900D9294
:1000D000AE30B107D9F711E0AEE0B1E001C01D923A
:1000E000A431B107E1F70C9481010C940000DF9278
:1000F000EF92FF920F931F93CF93DF93CDB7DEB7AD
:100100002A970FB6F894DEBF0FBECDBF7B01DE018C
:100110001196E4E0F1E02AE001900D922150E1F720
:10012000FC01E057FF4F249184589F4FFC019491AC
:10013000E22FFF27EE0FFF1FEC0FFD1F0180F28162
:10014000E02D8F01005E1F4F80A1D92E892B80A347
:100150008AE090E00E94EB01F894F80180819D2DE7
:1001600090958923808300000000000000000000BB
:10017000000000000000000000000000000000007F
:10018000000000000000000000000000000000006F
:10019000000000000000000000000000000000005F
:1001A000000000000000000000000000000000004F
:1001B000000000000000000000000000000000003F
:1001C00000000000000020E030E0E0FE04C0F80184
:1001D00080818D2903C0F8018081892380830000FC
:1001E000000000000000000000000000000000000F
:1001F00000000000000000000000000000000000FF
:1002000000000000000000000000000000000000EE
:1002100000000000000000000000000000000000DE
:1002200000000000000000000000000000000000CE
:100230000000000000000000000000000000F59435
:10024000E7942F5F3F4F2830310509F0BECFF8010A
:1002500080818D29808378942A960FB6F894DEBF2A
:100260000FBECDBFDF91CF911F910F91FF90EF9007
:10027000DF90089561E0809102010E94420208959A
:10028000CF93DF9360E0809102010E94A9026AE0AF
:1002900070E080E090E00E94C90160E070E0809131
:1002A0000201909103010E947700C0E0D2E06091CA
:1002B0000E0170910F0180910201909103010E9443
:1002C00077002197A1F78091000190910101209181
:1002D0000E0130910F01280F391F30930F01209329
:1002E0000E012115310519F02F3F310539F4909594
:1002F00081959F4F9093010180930001DF91CF91F1
:100300000895CFEFD4E0DEBFCDBF0E94F8010E9478
:100310003A010E944001FDCF1F920F920FB60F923B
:1003200011248F939F93AF93BF938091100190916D
:100330001101A0911201B09113010196A11DB11DEF
:100340008093100190931101A0931201B0931301B7
:10035000BF91AF919F918F910F900FBE0F901F9003
:100360001895609110017091110180911201909186
:10037000130127E0660F771F881F991F2A95D1F771
:100380002DE730E040E050E00E94F402CA01B901DC
:100390000895AF92BF92CF92DF92EF92FF920F93A8
:1003A0001F935B016C010E94B1017B018C010E94D3
:1003B000B1016E197F09800B910B6A157B058C05C5
:1003C0009D05A8F31F910F91FF90EF90DF90CF90C4
:1003D000BF90AF900895019751F0880F991F880F33
:1003E000991F02972FB7F8940197F1F72FBF08953F
:1003F0007894109210011092110110921201109233
:10040000130184B5826084BD84B5816084BD85B5E7
:10041000826085BD85B5816085BDEEE6F0E08081B6
:1004200081608083E1E8F0E0808182608083808168
:1004300081608083E0E8F0E0808181608083E1EB8F
:10044000F0E0808184608083E0EBF0E08081816077
:100450008083ECE7F0E080818F7780838081806407
:100460008083EAE7F0E0808184608083808182601D
:100470008083808181608083808180688083109206
:10048000C1000895282F3327C90184589F4FFC01CC
:10049000949120573F4FF9018491882381F0E82FF0
:1004A000FF27E255FF4FE491FF27662329F480815F
:1004B00090958923808308958081892B8083089576
:1004C000482F5527CA0188599F4FFC012491CA0122
:1004D00084589F4FFC01949140575F4FFA0134912B
:1004E0003323A1F1222331F1233021F480918000C4
:1004F0008F7705C0243031F4809180008F7D809308
:10050000800018C0213019F484B58F7704C02230E0
:1005100021F484B58F7D84BD0DC0263021F48091F7
:10052000B0008F7705C0273029F48091B0008F7D0F
:100530008093B000E32FFF27EC55FF4FE491FF2796
:100540008081892319F081E090E0089580E090E0B7
:100550000895482F5527CA0188599F4FFC012491BF
:10056000CA0184589F4FFC01949140575F4FFA0194
:1005700034913323C1F1222331F1233021F48091CE
:1005800080008F7705C0243031F4809180008F7D0A
:100590008093800018C0213019F484B58F7704C08F
:1005A000223021F484B58F7D84BD0DC0263021F426
:1005B0008091B0008F7705C0273029F48091B0007A
:1005C0008F7D8093B000E32FFF27E755FF4FE49125
:1005D000FF27662329F480819095892380830895DD
:1005E0008081892B80830895A1E21A2EAA1BBB1B50
:1005F000FD010DC0AA1FBB1FEE1FFF1FA217B307EF
:10060000E407F50720F0A21BB30BE40BF50B661F04
:10061000771F881F991F1A9469F7609570958095C8
:0C06200090959B01AC01BD01CF01089535
:0E062C000300070000000000050008000B009E
:00000001FF
